:020000040800F2
:10000000E8A201209D010008E7160008FD13000882
:10001000E516000867050008871A000800000000C0
:10002000000000000000000000000000ED160008C5
:100030006905000800000000EB160008EF16000834
:10004000B7010008B7010008B7010008B7010008B0
:10005000B7010008B7010008B7010008B7010008A0
:10006000B7010008B7010008B7010008B701000890
:10007000B7010008B7010008B7010008B701000880
:10008000B7010008B7010008B7010008B701000870
:10009000B7010008B7010008B7010008B701000860
:1000A000B7010008B7010008B7010008B701000850
:1000B000B7010008B7010008B7010008B701000840
:1000C000B7010008B7010008B7010008B701000830
:1000D000B7010008B7010008B7010008B701000820
:1000E000B7010008B7010008B7010008B701000810
:1000F000B7010008B7010008B7010008B701000800
:10010000B7010008B7010008B7010008B7010008EF
:10011000B7010008B7010008B7010008B7010008DF
:10012000B7010008B7010008B7010008B7010008CF
:10013000B7010008B7010008B7010008B7010008BF
:10014000B7010008B7010008B7010008E916000868
:10015000B7010008B7010008B7010008B70100089F
:10016000B7010008B7010008B7010008B70100088F
:10017000B7010008B7010008B7010008000000003F
:10018000B7010008B7010008DFF80CD000F0AEF9A5
:1001900000480047C13D0208E8A201200648804708
:1001A00006480047FEE7FEE7FEE7FEE7FEE7FEE75C
:1001B000FEE7FEE7FEE7FEE7991700088901000861
:1001C0002DE9F05F0546002092469B46884606468C
:1001D000814640241BE0284641464746224600F01F
:1001E00017F953465A46C01A914110D31146184682
:1001F000224600F0FEF82D1A67EB01084F46224612
:100200000120002100F0F5F817EB00094E41201EF7
:10021000A4F10104DFDC484631462A464346BDE8E6
:10022000F09F10B5431A934209D28318881803E04F
:1002300010F8011D03F8011D521EF9D210BD40EA4D
:1002400001039B0703D009E008C9121F08C0042A54
:10025000FAD203E011F8013B00F8013B521EF9D23B
:1002600010BDD2B201E000F8012B491EFBD270474D
:100270000022F6E710B513460A4604461946FFF772
:10028000F0FF204610BD421C10F8011B0029FBD1D5
:10029000801A704710B5002200E0521C835C8C5C11
:1002A000A34201D1002BF8D1D8B2E1B2401A10BD5F
:1002B000034611F8012B00F8012B002AF9D118464A
:1002C00070472DE9FE4F81EA030404F0004421F059
:1002D000004100944FF0000B23F0004350EA01046A
:1002E0005ED052EA03045BD0C3F30A54C1F30A554B
:1002F0002C44A4F2F3340194A0FB0254C1F3130183
:1003000041F48011C3F3130343F4801301FB02444F
:1003100000FB034E840A970A44EA815447EA835754
:10032000A4FB076802958D0A05FB07854FEA932C0D
:1003300004FB0C542705029D4FEA065847EA16377E
:10034000B5EB08056EEB070C870E920E47EA811796
:1003500042EA8312A7FB0201B6EB0B0164EB000437
:100360002B0D43EA0C335E1844EB1C50DA46514621
:10037000E7FB0201C5F313044FEA0B3343EA1453BE
:100380004FEA0432019C43EA0603A4F10C040294F0
:10039000009CCDE900B400F05AF803B0BDE8F08F3E
:1003A00000200146F9E70EB540F2334102910021E9
:1003B000CDE900110A460B4600F049F803B000BD34
:1003C000C1F30A5210B5C1F3130140F2FF3341F4F7
:1003D00080119A4201DA002010BD40F233439A4264
:1003E000A2F2334203DC524200F012F810BD9040FA
:1003F00010BD202A04DB203A00FA02F100207047E9
:100400009140C2F1200320FA03F319439040704752
:10041000202A04DB203A21FA02F00021704721FA59
:1004200002F3D040C2F120029140084319467047C0
:1004300010B5141E73F1000408DA401C41F10001EC
:1004400092185B411A4301D120F0010010BD2DE943
:10045000F04D92469B4611B1B1FA81F202E0B0FA3A
:1004600080F220329046FFF7C4FF04460F4640EA70
:100470000A0041EA0B0153465A46084313D011467D
:1004800053EA010019D0C8F140025046FFF7C0FFFF
:1004900005460E46504659464246FFF7AAFF084316
:1004A00005D0012004E020463946BDE8F08D00204B
:1004B000054346EAE0762C4337430A986305E40A8D
:1004C000A0EB08000022FD0A44EA47540A3002D596
:1004D00000200146E9E7010510196941DDE90845F9
:1004E00000196941BDE8F04DA2E70000064C074D38
:1004F00006E0E06840F0010394E8070098471034F4
:10050000AC42F6D3FFF744FE50FF020870FF02082A
:1005100070B58C1810F8015B15F0070301D110F8C5
:10052000013B2A1106D110F8012B03E010F8016BF2
:1005300001F8016B5B1EF9D12B0705D40023521E75
:100540000DD401F8013BFAE710F8013BCB1A921CDD
:1005500003E013F8015B01F8015B521EF9D5A142DB
:10056000D8D3002070BDFEE7704772B6FEE70000EA
:1005700070B5B3F5804F05D06FF0704140F8221090
:10058000002070BD50F82240084B8E891C40D1E9F4
:10059000003543EA05138D6889692D0245EA064551
:1005A0002B430B43234340F82230E9E70000F0CF10
:1005B000F0B50C6850F82430114A1340D1E90125F8
:1005C000D1E903672A433E4332434E6932438E6981
:1005D0003243CE6932430E6A32434E6A32438E6AE8
:1005E0003243CE6A3243CE6B096B32430A431A431D
:1005F000082D01D142F0400240F824200020F0BD37
:100600008000F0FF30B500EB820250688D8900F069
:100610004043D1E9000440EA04108C68240244EA13
:10062000054420430C8A074D05EB045420430C7D00
:100630006D0105EB04648969204308431843506049
:10064000002030BD0000F0FF70B54379012B1AD0B7
:10065000012646710223037105682C6840F6FE737B
:1006600093409C43D1E900310B43934023432B60DB
:1006700001680B68C0249440A3430B6006710021FD
:100680004171084670BD022070BD70B5040003D0F2
:100690002079002510B105E0012070BD657120466C
:1006A00000F008F80220207125610120207100204F
:1006B00070BD000010B586B0044614216846FFF7EF
:1006C000D7FD1149206888421CD1104800210268DA
:1006D00042F000520260006800F0005005900B48A4
:1006E0001038026842F001020260006800F0010068
:1006F0000590302000900320CDE9010169460448AF
:1007000000F054F806B010BD0074004040380240BC
:100710000000024070B5044600F02EF90546601C4A
:1007200002D004480078044400F026F9401BA0429F
:10073000FAD370BD0C000020F0B587B014216846D4
:10074000FFF796FD15480168002924D101210160B9
:1007500013480024016841F001010160006802258E
:1007600000F0010005904FF68070CDE9000502AA67
:1007700003260C2782E8D00069460A4800F016F8E4
:100780004CF6B370CDE9000502AA694682E8D000B4
:10079000054800F00BF807B0F0BD00000400002091
:1007A0003838024000100240000C02402DE9F84F9A
:1007B00000224FF0010803254FF00F0E0B6808FAD6
:1007C00002F42340A3426ED14E68012E05D0022EC2
:1007D00003D0112E01D0122E12D186684FEA420C9E
:1007E00005FA0CF7BE43CF6807FA0CF7374387606A
:1007F0004668A6430C79C4F3001494403443446023
:10080000C668570005FA07FC8C6826EA0C06BC404F
:100810003443C4604C68022C01D0122C13D1D4088C
:1008200000EB8404A346D4F8209054074FEAD46A1E
:100830000EFA0AF629EA06090E6906FA0AF646EAE7
:100840000906CBF8206006680C7926EA0C0604F04D
:100850000304BC40344304604C68E40065D5364C66
:10086000266846F480462660246822F0030604F4D5
:1008700080440094314C3444A446D4F80848960788
:10088000370F0EFA07F6B4432D4EB04201D10026C1
:1008900024E02C4EB04201D101261FE02A4EB04286
:1008A00002D102261AE040E0284EB04201D10326D0
:1008B00014E0274EB04201D104260FE0254EB0428D
:1008C00001D105260AE0244EB04201D1062605E0FA
:1008D000224EB04201D1072600E00826BE40264342
:1008E000CCF808681E4E34684F689C43FF0300D55F
:1008F0001C4334601A4C241D26684F689E43BF0376
:1009000000D51E432660164E083634684F689C4357
:10091000FF0200D51C433460114E0C3634684F681A
:100920009C43BF0200D51C433460521C102AFFF4C4
:1009300045AFBDE8F88F0000443802400030014068
:10094000000002400004024000080240000C024087
:10095000001002400014024000180240001C024037
:10096000003C01400069084000D0012070470AB1F6
:10097000816170470904FBE7014880687047000007
:100980000C000020024881680278114481607047A1
:100990000C0000200B4810B5016841F400710160A3
:1009A000016841F480610160016841F48071016077
:1009B000032000F061F8002000F006F800F024F8B1
:1009C000002010BD003C024070B50D4D04464FF4B0
:1009D0007A712878B1FBF0F00A490968B1FBF0F0B0
:1009E00000F031FB48B9102C07D200222146501EDE
:1009F00000F022F800206C6070BD012070BD000086
:100A00000C000020180000200A4808B5016841F4D5
:100A100080410160006800F4804000900548001F9C
:100A2000016841F080510160006800F08050009042
:100A300008BD000044380240F0B40E4B1B680C4661
:100A4000C3F30223C3F10705042D00D90425191DA2
:100A5000072901D2002300E0DB1E012606FA05F17A
:100A6000491E214099409E40761E16403143F0BCFD
:100A700001F01EB80CED00E0064900F0070208681E
:100A80004FF6FF03184040EA0220034A1043086073
:100A9000704700000CED00E00000FA052DE9F0477A
:100AA0000E46050065D0DFF81481D8F80000F7B2D3
:100AB00000F00F00B04207D288F80070D8F80000AC
:100AC00000F00F00B04254D128683D4C810712D588
:100AD000400703D5206840F4E050206028780007E4
:100AE00003D5206840F4604020602068A96820F0A9
:100AF000F000084320602878C0072DD0304968688E
:100B00000839012812D0022813D0032811D009680F
:100B1000890700292DDA216821F0030101432160B2
:100B2000FFF72AFF814641F2883A0EE009688903FF
:100B3000EFE709688901ECE7FFF71EFFA0EB090169
:100B4000514502D90320BDE8F0872068696800F0AC
:100B50000C00B0EB810FEFD1D8F80010404601F047
:100B60000F01B14207D90770006800F00F00B042D2
:100B700001D00120E7E72878400705D52068E9681B
:100B800020F4E050084320602878000706D520684C
:100B9000296920F4604040EAC100206000F018F8A4
:100BA0002168084AC1F30311515CC8400649086036
:100BB00006480068FFF708FF0020C4E7003C024039
:100BC00008380240C8B502081800002010000020B4
:100BD000154810B5006810F00C02144813D01449E1
:100BE000042A0FD0082A0ED10F4C241F2268236834
:100BF00002F03F025B0207D52068C0F38810A0FB1B
:100C0000010106E0084610BD2168C1F38811A1FB6F
:100C100000010023FFF7D4FA2168C1F30141491C08
:100C20004900B0FBF1F010BD083802400024F40088
:100C3000001BB7002DE9F84F04006ED02078DFF8D4
:100C40003C93C007A9F104054AD009F104000168EA
:100C5000C1F38101012908D00068C0F38100022896
:100C60000AD1D9F80000400206D52868800337D59C
:100C700060680028E1D033E06068B0F5803F10D0B4
:100C8000B0F5A02F286810D020F4803028602868A4
:100C900020F4802028606068A8B1FFF76DFE06464A
:100CA0000DE0286840F48030F4E740F480202860AC
:100CB000F7E700BFFFF760FE801B642873D8286841
:100CC0008003F7D50CE0FFF757FE064605E000BFAE
:100CD000FFF752FE801B6428F0D828688003F7D401
:100CE0002078DFF89C8280074FF0000A3ED5A348A9
:100CF000001D016811F00C0F08D00068C0F38100DE
:100D000002280BD1D9F80000400207D428688007D8
:100D100016D5E068012800D112E02BE1E068B8B1F7
:100D20000120C8F80000FFF727FE064605E000BFD7
:100D3000FFF722FE801B0228C0D828688007F7D55D
:100D40002868216920F0F80040EAC10028600DE021
:100D5000C8F800A0FFF710FE064604E0FFF70CFEFF
:100D6000801B02281FD828688007F7D42078000746
:100D700022D5824E83486169703671B101210160CC
:100D8000FFF7FAFD074604E0FFF7F6FDC01B022857
:100D900009D830688007F7D50EE0C0F800A0FFF74B
:100DA000EBFD074605E082E0FFF7E6FDC01B0228E9
:100DB0007DD830688007F7D42078400768D5DFF801
:100DC000BCB100270BF13C0BDBF80000C0000BD4DA
:100DD000DBF8001041F08051CBF80010DBF8000088
:100DE000012700F080500090674E3068C00510D495
:100DF000306840F480703060FFF7BEFD009005E081
:100E0000FFF7BAFD0099401A022850D83068C00593
:100E1000F6D55A4EA0686C3601280FD005283068E8
:100E200010D020F001003060306820F00400306005
:100E3000A068B8B1FFF7A0FD00900FE0306840F067
:100E40000100F4E740F004003060F7E7FFF794FD9D
:100E50000099411A41F28830814266D83068800793
:100E6000F4D50EE0FFF788FD009007E0FFF784FD62
:100E70000099411A41F28830814256D83068800783
:100E8000F4D42FB1DBF8001021F08051CBF8001022
:100E9000A069C8B33949091D0968C1F38101022954
:100EA0004AD00228504607D0C8F8600000E03CE075
:100EB000FFF762FD04463BE04746C8F86000FFF7D5
:100EC0005BFD064605E000BFFFF756FD801B0228CC
:100ED0002BD828688001F7D4D4E907010843A16A18
:100EE0002A4A490802EB0141626A41EA8211084339
:100EF00094F82C1040EA0161C9F80010012038660E
:100F0000FFF73AFD044606E036E000BFFFF734FD88
:100F1000001B022809D828688001F7D52CE000BF03
:100F2000FFF72AFD001B022802D90320BDE8F88F35
:100F300028688001F4D41FE00128F7D0D9F8000018
:100F4000E26900F48001914214D1226A00F03F016D
:100F500091420FD147F6C071626A0140914209D1B6
:100F6000A26A00F44031914204D1E16A00F070605D
:100F7000884201D00120D9E70020D7E70438024099
:100F800000004742800E4742007000400000FFFF13
:100F900070B5040003D06079002510B105E0012090
:100FA00070BD2571204600F00DF8022060712068A8
:100FB000016841F00401016001206071A56000201A
:100FC00070BD000008B500680649884208D106488F
:100FD000016841F040010160006800F040000090AD
:100FE00008BD0000000806503438024070B51546B0
:100FF0000E46040003D094F8490010B107E0012028
:1010000070BD002084F84800204600F01AF804F172
:1010100008012068FFF7CCFA3146A2682068FFF784
:10102000F1FAD4E901022946236BFFF7A1FAA1687E
:10103000206850F8212042F0010240F821200020D1
:1010400070BDFFF779BB10B5401EB0F1807F01D3B2
:10105000012010BD4FF0E02460610F21601700F007
:1010600027FD0020A06107202061002010BD0000A6
:1010700070B590F83C20012A32D0012480F83C4021
:10108000022280F83D2003685A689D6822F07006AD
:101090000A6832435A60134B02689A4214D0B2F184
:1010A000804F11D0104B9A420ED0104B9A420BD069
:1010B0000F4B9A4208D00F4B9A4205D00E4B9A42E2
:1010C00002D00E4B9A4204D1496825F0800319439F
:1010D000916080F83D40002180F83C10084670BDCA
:1010E000022070BD000001400004004000080040E4
:1010F000000C004000040140004001400018004086
:1011000010B5040003D094F83D0010B107E00120B1
:1011100010BD002084F83C00204600F00DF80220AD
:1011200084F83D00211D206800F044FB012084F874
:101130003D00002010BD000008B50F4A01680F48AF
:10114000914207D1016841F002010160006800F09E
:10115000020009E00A4A914208D1016841F0040105
:101160000160006800F00400009008BD054881425D
:10117000FBD10248001DE5E7000400404038024072
:10118000000800400004014070B5044690F83C009F
:10119000012817D0012584F83C50022084F83D0036
:1011A0002068826822F0770222F47F428260086819
:1011B000502830D00DDC20284DD005DC98B3102805
:1011C0003BD148E0022070BD302844D0402834D1C3
:1011D00039E0602828D0702806D0B0F5805F2CD088
:1011E000B0F5005F29D10AE0CB68D1E90121206880
:1011F00000F051FB2068816841F0770109E0CB687D
:10120000D1E90121206800F046FB2068816841F4A3
:101210008041816011E0CA684968206800F010FCD4
:101220005021206807E016E0CA684968206800F08D
:1012300018FC6021206800F038FB84F83D50002045
:1012400084F83C0070BDCA684968206800F0F8FB6B
:1012500040212068EFE7226801461046EBE70000D6
:1012600010B586B0044614216846FFF701F80D4911
:101270002068884214D10C480021026842F0010223
:101280000260006800F001000590402000900220FC
:10129000CDE90101CDE9031069460448FFF786FA5C
:1012A00006B010BD0004004030380240000002408B
:1012B00070B5044690F83C000D4601280DD001267B
:1012C00084F83C60022084F83D0042B1042A18D022
:1012D000082A2AD00C2A4DD139E0022070BD20689E
:1012E00000F0ECFA2068816941F008018161206812
:1012F000816921F004018161206881692A691143B3
:1013000011E0206800F00AFB2068816941F4006167
:1013100081612068816921F480618161206881692F
:101320002A6941EA0221816124E0206800F02CFB57
:101330002068C16941F00801C1612068C16921F0DC
:101340000401C1612068C1692A69114311E0206864
:1013500000F04EFB2068C16941F40061C161206862
:10136000C16921F48061C1612068C1692A6941EACB
:101370000221C16184F83D60002084F83C0070BD0A
:1013800010B5040003D094F83D0010B107E001202F
:1013900010BD002084F83C00204600F00CF802202C
:1013A00084F83D00211D206800F004FA012084F833
:1013B0003D00002010BD704710B5044600680122B2
:1013C00000F05CFA0B492068884202D00A49884242
:1013D00003D1416C41F4004141642068816801F00F
:1013E0000701062903D0016841F0010101600020D6
:1013F00010BD00000000014000040140FEE70000B5
:101400001CB50024104900940E4801940860084659
:10141000FFF73BF908B1FFF7A8F8009400226946EE
:1014200009480194FFF710F908B1FFF79EF8102260
:1014300069460548FFF708F9002801D0FFF795F83D
:101440001CBD000000740040600200202DE9F04146
:1014500086B014216846FEF70BFF37480024016868
:1014600041F080010160016801F08001059101688F
:1014700041F004010160016801F004010591016877
:1014800041F001010160016801F00101059101686D
:1014900041F002010160016801F00201059101685B
:1014A00041F010010160016801F01001059101682F
:1014B00041F0080101600068204F00F0080005902D
:1014C000002280213846FFF752FADFF874800022AC
:1014D00020214046FFF74BFA0F2602250096694669
:1014E0004046CDE90145FFF761F900966946384667
:1014F000CDE90145FFF75AF9802000900126CDE99A
:1015000001650325694638460395FFF74FF920200A
:10151000CDE9000669464046CDE90245FFF746F9A8
:101520004FF6FF70CDE90004694606480294FFF7C4
:101530003DF906B0BDE8F0813038024000000240BD
:101540000008024000040240074910B50548086041
:101550000846FFF71DFD002803D0BDE81040FFF747
:1015600004B810BD00080650C402002030B58DB08C
:1015700000240794089409940A940B941C2168464B
:101580000C94FEF775FE234D2148C5E9000441F295
:101590008730C5E902402C612846AC61FFF7B0FDF9
:1015A00008B1FEF7E2FF4FF48050079007A91948F1
:1015B000FFF7EAFD08B1FEF7D8FF1648FFF7E0FE97
:1015C00008B1FEF7D2FF0B940BA912480C94FFF759
:1015D0004FFD08B1FEF7C9FF602000904FF42F6067
:1015E00001900220029004200490002269460948DC
:1015F000FFF75EFE08B1FEF7B8FF2868816921F0A9
:10160000080181610348FFF72BFE0DB030BD0000DB
:1016100000040040D402002010B586B00024164813
:101620000094019402940394049412490594C0E92F
:1016300000144FF6FF71C0E9024104618461FFF7B5
:101640005FFD08B1FEF791FF4FF4805000906946AE
:101650000948FFF799FD08B1FEF787FF049404A934
:1016600005480594FFF704FD002801D0FEF77DFF33
:1016700006B010BD000800401403002010B586B06D
:10168000002417480094019402940394049413498D
:101690000594C0E900144FF6FF71C0E902410461EE
:1016A00044618461FFF72CFD08B1FEF75EFF4FF443
:1016B0008050009069460A48FFF766FD08B1FEF7C2
:1016C00054FF049404A906480594FFF7D1FC0028B0
:1016D00001D0FEF74AFF06B010BD00000004014033
:1016E00054030020FEE7FEE770477047704710B5CF
:1016F000FFF748F9012021F00FFEBDE810400AF085
:1017000031BE000030B593B030216846FEF7B0FD21
:1017100014210CA8FEF7ACFD1D480025016841F01E
:1017200080510160006800F08050119019480168F4
:1017300041F4804101600068022400F4804011906F
:1017400001200090000401908001CDE906400620B0
:101750000890A820CDE9090407200B906846FFF700
:1017600069FA08B172B6FEE70CA90F2081E83100D2
:101770004FF4A0500F904FF48050109005210CA80A
:10178000FFF78CF9002801D072B6FEE713B030BD28
:1017900040380240007000400548016841F4700183
:1017A000016003494FF00060803908607047000015
:1017B00088ED00E0F0B50268254C264D264E274FF7
:1017C000274B4FF0804CA04209D0604507D0A8427B
:1017D00005D0B04203D0B84201D0984204D122F0E3
:1017E000700E4A6842EA0E02A0421BD0604519D032
:1017F000A84217D0B04215D0B84213D0984211D0A9
:10180000184DA8420ED0184DA8420BD0174DA84233
:1018100008D0174DA84205D0164DA84202D0164D4B
:10182000A84203D122F44075CA682A434D6922F0C8
:1018300080022A4302608A68C2620A688262A04209
:1018400001D0984201D10969016301214161F0BDD4
:10185000000001400004004000080040000C00406F
:1018600000040140004001400044014000480140A4
:1018700000180040001C00400020004010B501F09E
:101880001F030121046A99408C430462016A9A4053
:101890001143016210BD10B5846842EA032224F4AA
:1018A0007F440A432243826010BD826822F07002A6
:1018B0000A4342F00701816070470000F0B5026AF8
:1018C00022F001020262036A42688469124E24F027
:1018D00073050C682C4323F002058B682B430D4DD8
:1018E000A84201D0B04205D123F00807CB683B43A2
:1018F00023F00403A84201D0B04205D14D6922F47F
:10190000407215438A692A43426084614968416391
:101910000362F0BD0000014000040140F0B5026A1E
:1019200022F010020262026A436884690D6824F49E
:10193000E64444EA05248D6822F0200242EA0512BA
:101940000F4D104EA84201D0B04206D1CF6822F010
:10195000800242EA071222F04002A84201D0B042BF
:1019600007D14D6923F4406343EA85038D6943EA57
:10197000850343608461496881630262F0BD0000B1
:101980000000014000040140F0B5026A22F48072B8
:101990000262026A4368C46922F4007224F073058B
:1019A0000C68124E2C438D6842EA05220E4DA84267
:1019B00001D0B04206D1CF6822F4006242EA072289
:1019C00022F48062A84201D0B04207D14D6923F4CD
:1019D000405343EA05138D6943EA05134360C4612C
:1019E0004968C1630262F0BD00000140000401408B
:1019F00030B5026A22F480520262046A4268C36906
:101A00000D6823F4E64343EA05238D6824F400546B
:101A100044EA0534084DA84202D0084DA84204D13A
:101A20004D6922F4804242EA85124260C3614968EE
:101A30000164046230BD0000000001400004014068
:101A400010B5036A046A24F001040462846924F076
:101A5000F00444EA021423F00A020A438461026299
:101A600010BD10B5036A23F0100303628369046A92
:101A700023F4704343EA023224F0A00343EA011145
:101A80008261016210BDFEE70FB4084B10B504A9D6
:101A900002AA039801F092FD044602A9002001F079
:101AA000BEFF204610BC5DF814FB00001F3A000882
:101AB0000907090E002804DB00F1E02080F800147B
:101AC000704700F00F0000F1E02080F8141D70470F
:101AD00002E008C8121F08C1002AFAD170477047F7
:101AE000002001E001C1121F002AFBD1704770B530
:101AF000044600256FF02F0608E02068411C216095
:101B0000007805EB850106EB410145182068007857
:101B100000F004F80028F0D1284670BD30380928BC
:101B200001D80120704700207047000010B5402107
:101B3000074801F081F800221E21064821F046FCEA
:101B4000054CA06002F0FCFA0020207010BD0000DF
:101B500010050020E94100088C01002070B5B1F9A2
:101B60000030B2F90040A34200DC23460380B1F903
:101B70000250B2F90240A54200DD2C464480B1F982
:101B80000460B2F90450AE4200DA35468580B1F9FE
:101B90000610B2F90620914200DB1146C1800120F7
:101BA000AB4201DC8C4200DD002070BDF8B50D4673
:101BB0000446B0F90000B1F900101646884247DB30
:101BC000B4F90210B5F90220914241DBB4F90410D6
:101BD000B5F9042091423BDCB4F90610B5F90620B2
:101BE000914235DC96B3ADF800006088ADF8020094
:101BF00032466946284600F099F8002827D0A08888
:101C0000ADF800006088ADF802003246694628460B
:101C100000F08CF800281AD02088ADF80000E08889
:101C2000ADF8020032466946284600F07FF80028E9
:101C30000DD0A088ADF80000E088ADF80200324673
:101C40006946284600F072F8002800D00120F8BD4F
:101C50000020F8BDB0F90020B1F904309A4213DC3D
:101C6000B0F90420B1F900309A420DDBB0F902203E
:101C7000B1F906309A4207DCB0F90600B1F902105A
:101C8000884201DB0120704700207047F8B50D46FF
:101C90000446B0F90400B1F900101646884243DB4F
:101CA000B4F90600B5F9021088423DDBB4F9000032
:101CB000B5F90410884237DCB4F90210B5F90620F2
:101CC000914231DC76B3ADF800006088ADF80200D7
:101CD00032466946284600F029F818BBA088ADF8BE
:101CE00000006088ADF8020032466946284600F0E0
:101CF0001DF8B8B92088ADF80000E088ADF8020002
:101D000032466946284600F011F858B9A088ADF867
:101D10000000E088ADF8020032466946284600F02F
:101D200005F808B10020F8BD0120F8BD2DE9FC41FF
:101D300014460E46B1F90020B0F9001005468A425B
:101D40003ADBB5F90400824236DCB6F90270B5F927
:101D50000220974230DBB5F906309F422CDC002C84
:101D600075DD401A9A1A401C521C00B212B200EBE8
:101D7000D07002EBD27240105210904200DB10463D
:101D8000844200DD0446ADF800102888002220447B
:101D9000ADF804006888ADF8020068883146204438
:101DA000ADF806006846FFF7C1FF40B1BDF804007A
:101DB0002044ADF804003FE00020BDE8FC81E88845
:101DC0000022001BADF80200E888ADF8060031469D
:101DD0006846FFF7ABFF28B1BDF804002044ADF81A
:101DE000040011E0A8880022001BADF80000A888BC
:101DF000ADF8040031466846FFF798FF50B1BDF8D2
:101E00000000001BADF80000BDF80200001BADF89B
:101E1000020016E06888ADF80200688800222044BD
:101E2000ADF8060031466846FFF780FF70B1BDF897
:101E30000000001BADF80000BDF806002044ADF81E
:101E40000600314668461EF00DFCB6E7FFE70120AC
:101E5000B3E710B5B1F90040B2F900309C4200DAA6
:101E600023460380B1F90240B2F902309C4200DA05
:101E700023464380B1F90440B2F904309C4200DDAE
:101E800023468380B1F90610B2F90620914200DCA6
:101E90001146C18010BD0000FEB5074621F032FAA0
:101EA0000025354C0646009537B1F8686060384625
:101EB00021F05AFB606802E013F06CFF606000697B
:101EC0001EF064FB6068406908B11EF05FFB60684B
:101ED000C0691EF05BFB6068006A1EF057FB60681B
:101EE0000169E1B31EF010FE1EF08CFD6068B0F8D1
:101EF000501199B30168097C890715D513F0A8FF23
:101F0000401E07B2606813F05DFF401E03B200225E
:101F1000114601A8009711F08AFD606801A90268C6
:101F2000926B516004F0D2FB60684FF480713030E6
:101F30001AF008F86068202100F598701AF002F88D
:101F40006068A0F85051304621F0D6F900906068E2
:101F50000068436A13B122680099984700E007E0DF
:101F600019F026FE00F036F8BDE8FE4000F006B895
:101F7000A0F85051FEBD00004800002070B50A4D89
:101F8000002400BFC4EBC40655F8260008B119F0C0
:101F900083FE05EB86001C2119F0D4FF641CE4B21B
:101FA000042CEFD370BD0000EC05002008494968FF
:101FB0000AE04A68824202D00A68824203D10A7E5D
:101FC00042F001020A7649690029F2D17047000007
:101FD0001C000020704700000421014800F02CBEC6
:101FE000040500201C21014800F026BE1C0500202D
:101FF0002DE9FF5F0446DDE90E0613B9B0F5807FD9
:102000007ED0B6F900504FF0FF376D42454307EBE5
:1020100025252DB22580B6F902C0CCF1000C0CFBB1
:1020200000FC07EB2C273FB26780B6F900C0A1EB9C
:102030000C0141434FF0020C0CEB212109B2A180AD
:10204000B6F90280A2EB080242430CEB222000B258
:10205000E080002B7ED04FF00A0A93FBFAF568422D
:1020600000EB800003EB400705F1010928B221F0E5
:10207000BBFB00900FFA89F021F0B6FB83465A357E
:1020800028B221F0B1FB804609F15A0000B221F0DC
:10209000ABFB0146009AC7F10A0000FB02F300FB0C
:1020A00008F00BFB073301FB070193FBFAF291FBEE
:1020B000FAF04FEA601AB4F90010B4F902000AFB12
:1020C00001FCCDF80CC05511378805FB10C207EB99
:1020D000A2220FFA82F905FB01F2BB460292778831
:1020E0000AFB002107EBA1210BB2B4F90410BE4694
:1020F0000AFB01FC05FB10C20BEBA22216B200E0AA
:102100002FE005FB01F7CDE9007CB4F90680DDF88E
:102110000CC00AFB007005FB18C1DDF804C0009F6D
:1021200005FB18C5029A0AFB087C0AFB08220BEB88
:10213000A1210EEBAC270EEBA02009B20EEBA222E0
:102140000BEBA5250FFA87FC00B212B22DB24F4659
:10215000494500E00EE000DA0F46B54216DAA8461F
:1021600015E000202080491E6080A180521EE28080
:10217000BDE8FF9F32882A44228072883A446280F8
:1021800032881144A180718808444FE0B046474529
:1021900004DA4F46494506DA0F4604E0B54201DA53
:1021A0002F4600E0374627804F46494500DD0F4661
:1021B000B54201DDA84600E0B046474503DD4D4687
:1021C000494505DC01E0B54201DD294600E0314624
:1021D000A1809A4201DA154600E01D46844501DAE5
:1021E000614600E001468D4205DA9A4201DA114665
:1021F00006E0194604E0844501DA614600E0014644
:1022000061809A4201DD114600E01946844501DDF6
:10221000654600E00546A94205DD9A4201DD10460B
:1022200004E0184602E0844500DD6046E0809FE758
:102230002DE9FE4F0446D0F800B0B0F90800E5895A
:10224000081AB4F90A10511AD4E90932B5F5807F99
:1022500038D0A589ADB3A66B704345114E437011BC
:10226000266BE16A06FB05F701FB1077694306FB65
:10227000001003EBA72902EBA02080460612B4F958
:1022800004004FEA2927B8424EDD002F4CDBB4F999
:102290000610B14248DD002E46DB94F834104A07A0
:1022A00045D58A0704F1140322D400FB06704500CB
:1022B0004FF0020A0BEB05015246184619F0ECFDEF
:1022C00027E00DE0256BE66A05FB00F706FB1177BA
:1022D000464305FB016003EBA70902EBA000CCE736
:1022E000A56B68434D4303EB601902EB6510C4E72F
:1022F00000FB067000EB40054FF0030A0BEB0501F5
:102300000222184619F0C8FDE81C584410F8010CC8
:10231000A07594F83400C0071FD04FF4FC60ADF8EE
:102320000000A18A814218D10020BDE8FE8F32B2A0
:1023300004F118002369CDE90102002539B2AA464B
:102340008B4617F091F80090BDF80000A082DDE9FF
:102350000102594617F020F8DAE7E07C78B1A4F8DA
:102360003C90A4F83E80A4F84070A4F842606564F4
:1023700084F848A02046BDE8FE4F00F002B80120D6
:10238000D3E72DE9F04F044690F83C10D0F80090C8
:1023900090F83E0087B04FF0FF36702907DAB4F9A5
:1023A00040203546012A00D5002580310DE09029D6
:1023B00016DDB4F94020B4F904300125521C9A42CC
:1023C00000DB0025A1F27F114942C9B2884670287E
:1023D00009DAB4F94210012900D50026803010E056
:1023E0000025FF21F2E790280DDDB4F94210B4F981
:1023F00006200126491C914200DB0026A0F27F1036
:102400004042C7B201E00026FF2760690090A07D2E
:102410000590002083468246049094F834004007DB
:1024200044D594F84810606C11FB05014944022220
:1024300001A819F031FDA08894F8481010FB01F0B4
:10244000616C022206FB0011494403A819F024FD27
:10245000A18894F8480011FB00F1626C06FB012290
:1024600010FB05901118022202A819F015FD94F82E
:102470003400800761D594F84800626C10FB052396
:1024800000EB09010B4413F8013C0493A38813FBF0
:1024900000F306FB0322114411F801BC10FB0500F8
:1024A000111801EB090010F8010C45E0B4F84000E8
:1024B000B4F94220284401B204F11800814623698E
:1024C00016F0D2FF0190B4F84200B4F94010304445
:1024D00002B254F8103F484616F0C6FF0390608ED3
:1024E0002368304402B2208E284401B2484616F0D8
:1024F000BBFF029094F82400103C80071DD5B4F96E
:10250000422034F8400F284401B2484616F044FFF8
:1025100004906088B4F90010304402B2484616F0C6
:102520003BFF83466088304402B234F840092844B7
:1025300001B2484616F030FF824694F83400424615
:102540004546800735D5059810FB08F30499C8F176
:10255000FF0011FB0031C1F307211BFB08F61AFB3A
:102560000060C0F3072011FB07F3C7F1FF0610FB63
:1025700006331B0AA375022907D8022803D80020B6
:1025800007B0BDE8F08F002702E0022800D8FF273F
:102590000598022800D800220498022800D8FF22BB
:1025A000BBF1020F00D80025BAF1020F03D8FF25B6
:1025B00001E0FF20A075EAB1FF2A04D0DDE90001A7
:1025C00012F080FF0090BDB1FF2D17D0DDE90210A1
:1025D0002A4612F077FF049097B1FF2F05D00146ED
:1025E0003A46009812F06EFF0090BDF80000A082FD
:1025F0000120C5E70198E5E70298ECE70398EAE7D0
:10260000BDF81000F3E700002DE9F0470446B0F9EB
:1026100008000A2700026062B4F90A000002A06202
:10262000B4F90C1091FBF7F5684200EB800001EB68
:102630004006684205F1010800B221F0D5F8824653
:10264000E84300B221F0D0F88146C5F15A0000B24B
:1026500021F0CAF80546C8F15A0000B221F0C4F8CA
:10266000C6F10A0101FB0AF3024609FB0630694381
:1026700090FBF7F002FB061191FBF7F14011E062CD
:1026800048112063A07C16F09CFF94F8341060F38E
:10269000000184F83410A07C16F083FF94F8341005
:1026A00060F3410184F83410A07C042824D005286C
:1026B00022D0062820D021F0040100BF84F8341075
:1026C00021682162A16921F0E00160F30401A08882
:1026D00060F39421E08860F35F51A161E0894FF4D9
:1026E000001101EB5001B1FBF0F0A063FF20A075D9
:1026F000208AA082BDE8F08741F00401DEE70000F7
:102700002DE9F04115460E460746114C20F0FAFD22
:1027100080462B4632463946204617F0D3FA20B180
:102720000020A062E06950B110E02C21204619F091
:1027300009FC4FF00040A0620020BDE8F081404657
:1027400020F0DAFDE06108B90120E0612046F4E7FD
:102750004005002010B51421074800F06DFA17F06D
:1027600077FA40B10549016005494160054981603A
:102770000549C16010BDFEE7280500207D960108CF
:10278000F9990108719B01084996010870B50D4639
:1027900004461021284619F0D5FB2068007801284E
:1027A00004D0022807D0042807D008E0208A288017
:1027B000608A688003E0E06800E00A2068602068C2
:1027C0004268002A03D02946BDE87040104770BD1A
:1027D000FEB5866A0446BEB9A08A218A0844A08252
:1027E000E08A618A0844E08220460AF048FA06003E
:1027F00079D020460CF09AFC00220921304616F0D0
:10280000E3F8607880076ED4208A10B9608A0028C7
:1028100069D00025ADF80450ADF8085094F83C009C
:1028200000F00F000328304616D01BF03DFA074693
:1028300030461BF0F3F803460C200090B4F9121058
:102840003A46304609F0CCFCADF8080030461BF0A3
:1028500037F9C10712D017E01BF0BAF90746304626
:102860001BF056F9024603200090B4F910103B46C5
:10287000304609F0B5FCADF80400E7E7BDF90410F7
:10288000002901DDADF80450810705D4BDF904101D
:10289000002901DAADF80450410705D4BDF908104C
:1028A000002901DDADF80850000705D4BDF9080086
:1028B000002801DAADF8085002AA01A9204622F04A
:1028C000B4FD0023BDF90820BDF9041030461DF009
:1028D000F5F9A08ABDF804100844A082E08ABDF88A
:1028E00008100844E082FEBD2DE9FC5F0446806AC2
:1028F0005FEA000B71D094F83C0000076DD017F030
:102900009BFC019000684021457E58461CF07AF9F6
:102910004FF0000818B9A4F81A80A4F81880584697
:102920001BF0B4F9824658461BF0B7F9064694F8F6
:102930003C004FF0640900F00F000C2802D003287F
:102940004CD09AE0A4F8188056B1B4F91A50002778
:1029500017F072FC00684946407EC0F1640022E036
:10296000608BC5F1640110FB01F191FBF9F060830C
:1029700058461BF053F8054658461BF095F9024699
:102980000C200090B4F91A102B46584609F028FC88
:102990006083024600231EE07A1917B210FB05F28D
:1029A00092FBF1F215B2002DF6D1ADF80070A4F84B
:1029B0001A806A460021204622F037FD41F6FF7258
:1029C000BDF90030514258460AF0BEFABDF8001079
:1029D0000123084402B200214CE09AE0A4F81A80D6
:1029E000BAF1000F0AD0B4F91850002717F024FCF0
:1029F00000684946407EC0F1640022E0208BC5F1AA
:102A0000640110FB01F191FBF9F0208358461BF0A3
:102A10007FF8054658461BF0DBF80346032000907C
:102A2000B4F918102A46584609F0DAFB208301460B
:102A300000231EE07A1917B210FB05F292FBF1F2A7
:102A400015B2002DF6D1ADF80070A4F81880002260
:102A50006946204622F0E9FC41F6FF72BDF90030DC
:102A6000514258460AF0E8F9BDF800100123084425
:102A700001B2002258461DF021F9208B002848D1D0
:102A8000608B002845D1C6B958461BF00DF90546A4
:102A900058461AF0C3FF002D06DC00280DDD002D7E
:102AA00002DA01232A4604E0002806DA0123404224
:102AB00002B2002158461DF001F9BAF1000F19D1F8
:102AC00058461BF025F8054658461BF081F8002DA6
:102AD00007DC00280EDD002D03DA01230022294641
:102AE00005E0002806DA01230022404201B25846E0
:102AF0001DF0E4F80A215846019A15F065FF607848
:102B0000800706D414F83C0F20F00F00207044F822
:102B1000148CBDE8FC9F00007FB50E46040003D175
:102B200013F038F9040023D00025FEB1ADF80050B1
:102B3000ADF8025013F046F9401EADF804002046EF
:102B400013F086F9401EADF806006A46314602A829
:102B5000FFF704F800280BD02068017C890708D50E
:102B6000DDE90001C4E90C0101202AE0A0F8505180
:102B70007FBD82690AB102A9904700260BE000BF21
:102B800004EBC601002202A83031FFF70FF800283D
:102B9000EED1761CB6B2B4F85001B042F0D880B293
:102BA000202804D204EBC00002A9303004E0A4F8CD
:102BB000505104F13000694610F090FEB4F8500115
:102BC000401CA4F8500160680028D1D020F0D8FC47
:102BD0007FBD70B5054600F012F804460CE02146B2
:102BE000284600F01EF806462146284600F071F8F7
:102BF000204619F051F83446002CF0D170BD002861
:102C000000D04068704700B503460022FFF7F7FF89
:102C100003E01846521C00F004F80100F9D11046F8
:102C200000BD0068091D4058704700684058704753
:102C3000002800D08068704700224260C91C21F043
:102C4000030182600160704770B504460068083077
:102C500018F098FF050013D001460022204621F00D
:102C600099FD29462046626821F08EFD616819B100
:102C70002A46204621F08EFD6560A06800B9A56057
:102C8000284670BD70B504460068083018F07AFF19
:102C9000050013D001460022204621F075FD29468B
:102CA0002046A26821F076FDA16819B12A46204687
:102CB00021F06AFDA560606800B96560284670BDB6
:102CC00028B1416809B9806808B100207047012027
:102CD000704770B504000DD0FFF791FF00228842C5
:102CE000204608D1FFF79DFF6060011E01D0002241
:102CF0001EE0A26070BDFFF79BFF88422068084479
:102D00000AD10168A16029B12046BDE870400022C7
:102D100021F03ABD626070BD05682046FFF781FF73
:102D2000064602462946204621F02EFD2A46314617
:102D30002046BDE8704021F02DBD10B50446006866
:102D400082680AB12146904720680068002801D0B7
:102D50002060F5E710BD8068002801D0B0F91600AA
:102D6000704700002DE9F047074690B0408C189E50
:102D700040F00400788490463A8499468A46328925
:102D800038461BF0A7FD0546A7F82090328951462A
:102D900038461BF09FFD0446788CA54220F00400C5
:102DA000788403D12904B1EB044F68D0A7F82080C0
:102DB0003289514638461BF08DFD05468046A7F8FE
:102DC0002090514638460BF08DFA318900682A462A
:102DD0001FF040F83089602823D147F6FF794D4530
:102DE00001D04C451DD138461BF0C3FE00EBD0701E
:102DF000451038461BF0BDFE00EBD0704010C845B2
:102E000006D1691C431C994200DA00E01946884645
:102E10004C4506D1691C421C914201DA6C1C00E051
:102E200014461948FFF710FF05002BD02F60C5E9A5
:102E300003843089A8806846C5F808A010F066F8B9
:102E40001248FF21CDE9005011480290114803902B
:102E500000200790CDE9080130880A9070889DF81D
:102E60003E1040420B90F0680690002060F3000195
:102E70008DF83E1030690590684610F0BBF810B030
:102E8000BDE8F087FEE70000340500205980020805
:102E90004D820208A981020814210148FFF7CCBE27
:102EA000340500202DE9FC5F002592468B4606463E
:102EB0002C46042743F60F0843F60E0900E100BF35
:102EC000F16807EBC400085882017DD480B230EA73
:102ED0000B0212D05FF0000230EA0A000FD000208F
:102EE000824271D051F8340001AA41F610010090DD
:102EF0001EF096FD002868D103E00122ECE70120D6
:102F0000EEE701AA41F6110100981EF089FD0028A4
:102F100073D101AA41F6120100981EF081FD00282C
:102F20006BD101AA41F6130100981EF079FD00282B
:102F300063D101AA41F6150100981EF071FD002829
:102F40005BD101AA41F6140100981EF069FDE0BBB7
:102F500001AA41F2690100981EF062FDA8BB01AA16
:102F600043F20C0100981EF05BFD70BB01AA43F216
:102F70000D0100981EF054FD38BB01AA41F2010179
:102F800000981EF04DFD00BB01AA41F2040100981B
:102F90001EF046FDC8B901AA41F2020100981EF0D8
:102FA0003FFD90B901AA41F2030100981EF038FDDF
:102FB00058B901AA41F2050100981EF031FD20B96F
:102FC00001AA41F2060101E079E016E000981EF046
:102FD00027FD90B901AA41F2320100981EF020FDB0
:102FE00058B901AA414600981EF01AFD28B901AA55
:102FF000494600981EF014FD10B10320BDE8FC9F67
:1030000001AA40F60A0100981EF00AFDF0BB01AAD1
:1030100040F60B0100981EF003FDB8BB01AA414623
:1030200000981EF0FDFC88BB01AA494600981EF0DE
:10303000F7FC58BB01AA40F63C0100981EF0F0FCDA
:1030400020BB01AA40F63D0100981EF0E9FCE8B95A
:1030500001AA40F63A0100981EF0E2FCB0B901AABC
:103060004FF4046100981EF0DBFC78B901AA40F629
:10307000450100981EF0D4FC40B901AA40F6410178
:1030800000981EF0CDFC08B901AA00E013E040F65C
:10309000420100981EF0C4FC68B901AA40F6430141
:1030A00000981EF0BDFC30B901AA40F64901009815
:1030B0001EF0B6FC08B1022501E005B90125641C2B
:1030C000708CC0F3C500A0423FF6FAAE284695E7E3
:1030D0000148406870470000480000207047C0F376
:1030E0000410072800D907207047000010B51821E8
:1030F0000348FFF7A1FD03490120087010BD00003F
:10310000E0040020B80100202DE9F04190460C4673
:10311000050015D0FDF7B7F80A4F06462146BA68F4
:10312000284690470446BA68281941469047014608
:10313000701A03E06218AA5C2A55641CA042F9D2F6
:10314000BDE8F081CC0100202DE9F041094D904609
:103150000E466A681C46074619469047306020B103
:1031600020686A68384400219047C8F80000BDE82C
:10317000F0810000CC0100202DE9F04F87B08A4695
:10318000DDE910581F4693460446002105B1298009
:103190005CB12078002809D0BAF1000F05D00026D4
:1031A00018F0060F15D0002004E0002007B0BDE89D
:1031B000F08F401C215C0A2904D00D2902D000297F
:1031C000F7D100E0401C002DF0D04FF0FF312980F6
:1031D000ECE75FEA887001D541F6FF77894608463B
:1031E0008DF81410049127E00498CDF8189068B376
:1031F0004FF0000C05AA06ABCDF80CC0CDF800804E
:10320000CDE9013220443B465A46514620F016FB98
:1032100006997A1A314417B20EB288B10499014462
:10322000049120780A280BD00D2809D0605C0A2868
:103230000FD00D280DD00846205C08B1002FD3DC3C
:10324000049848B105B12E800498AFE74FF0010C07
:10325000D0E7481C0490F3E7064A04A920465268C8
:103260009047002DF0D001460022504615F087FC13
:1032700006B2E8E7CC0100202DE9F0411746884668
:1032800006001ED0002F1CD0FCF7FDFF0446384678
:10329000FCF7F9FF050014D00B4A2C444146926814
:1032A00030469047411903E0621BB25C3255641E00
:1032B000A142F9D930442A463946BDE8F04118F018
:1032C00003BEBDE8F0810000CC010020002302789D
:1032D000232902D0012A0DD00FE02AB10021012AB2
:1032E00004D0022A04D008E0012101E0017004E0CA
:1032F000017001E0202902D0012318467047022105
:10330000F6E72DE9F0410E4680460246002133469D
:10331000084620F00DFD04460027401C18F032FC42
:10332000050008D02F5533464246611C20F000FDB1
:103330002846BDE8F081FEE72DE9F0471E46144619
:103340000D468246DDF8209015E000BF4FEA540894
:1033500008FB0657394650464A469047002808DD84
:1033600044F30000C0EB540407EB0605A4F101048C
:1033700001E005DA4446002CE8D12046BDE8F0879C
:103380003846FBE72DE9FC5F9B460CAB8A4681463D
:10339000DDE9116093E81210DDE90F575FEA8078EC
:1033A0004FF030031AD45EB15FEAC07808D000F065
:1033B0000C0858EA0C0803D0761E01E00B55641C7B
:1033C000BC4204D2202CF9D301E00B55641C5FEA07
:1033D000C07803D0B44201D2202CF6D35FEAC06893
:1033E00025D55FEA40580AD44CB1BC4201D0B44262
:1033F00005D1641E03D0102D03D1641E04E0102DEE
:1034000002D0022D0AD00EE0850603D4202C1ED255
:10341000782506E0202C1AD2582502E0202C16D25E
:1034200062250D55641C202C11D20B55641C202CD8
:103430000DD2BCF1000F01D02D2306E0430701D5CA
:103440002B2302E0030702D520230B55641CCDE992
:1034500000BAC846154681468B46AA46800714D155
:10346000274607E02A46DDE900316D1C2020C446CE
:10347000E0477F1CB742F5D307E02A466D1C641E67
:10348000DDE900311BF80400C047002CF5D15FEAEC
:10349000897006D409E02A46DDE900316D1C202040
:1034A000C047A5EB0A00B042F5D32846BDE8FC9F13
:1034B0002DE9F04F8FB099468B46DDE91818DDE90C
:1034C0001C63DDE91A4792468646002209B923F0BB
:1034D0001003580507AD00D5C9B1B1FBF4F004FBEA
:1034E0001010C0B20A2801D2303009E05FEA836CC4
:1034F00002D54FF0410C01E04FF0610C60440A38F6
:10350000B1FBF4F1A854521C09B1202AE5D3CDF83F
:103510000880CDE90563CDE90052CDE903474B466C
:10352000524659467046FFF72DFF0FB0BDE8F08FA9
:103530002DE9FF4F8FB01CACDDE9239594E803081B
:1035400020AC94E8C004002450EA010201D125F027
:1035500010056A050DF11C0802D550EA010217D0CA
:1035600032463B46FCF72CFED2B20A2A01D2303258
:1035700006E0AB0601D5412300E061231A440A3A74
:1035800008F80420641C50EA010201D0202CE7D383
:10359000CDE90084CDF808B0CDE90595CDE9036A01
:1035A0000FAF97E80F00FFF7EDFE13B0BDE8F08F07
:1035B0009A4200D288547047704700002DE9FF4FAF
:1035C0008DB00F460546002606E025280BD0DDE924
:1035D0000F1290476D1C761C28780028F5D111B089
:1035E0003046BDE8F08F0024A246A1460122EC49F6
:1035F00000E0044315F8013F203B02FA03F00842C3
:10360000F7D128782A2810D06FF02F022878A0F15F
:103610003001092914D80AEB8A0102EB410144F078
:10362000020400EB010A6D1CF0E701CF5FEA000A1B
:1036300003D544F40054CAF1000A44F002046D1C9E
:1036400028782E2817D115F8010F44F004042A28F1
:103650000ED06FF02F022878A0F1300109290AD886
:1036600009EB890102EB410100EB01096D1CF2E756
:1036700057F8049B6D1C28786C280FD006DC4C286A
:1036800017D068280DD06A2814D104E0742810D00F
:103690007A280FD10DE044F400140AE044F48014B9
:1036A00001E044F440146978814202D104F58014A9
:1036B0006D1C6D1C2A786E2A1FD00CDC632A31D059
:1036C00004DC002A8BD0582A11D1A3E0642A68D0E8
:1036D000692A0CD165E0732A2ED004DC6F2A73D0DE
:1036E000702A04D19BE0752A6FD0782A6ED01046DC
:1036F000DDE90F129047761C50E1C4F30250022816
:1037000006D0032809D0042801CF09D0066045E17E
:1037100001CFF117C0E9006140E101CF06803DE132
:1037200006703BE117F8040B8DF8000000208DF8BF
:103730000100EB46012003E057F804BB4FF0FF30D7
:1037400061074FF0000102D40DE008F10101884645
:1037500049450FDA8045F8DB1BF808100029F4D141
:1037600008E008F1010188468142FADB1BF80810E5
:103770000029F6D1DDE90F23AAEB08008146214696
:1037800000F036F9304400EB080604E0DDE90F12E2
:103790001BF8010B9047B8F10108F7D221464846C3
:1037A000F7E00A21C4F302534FF0000B0891022BFB
:1037B00004D001CFC117032B09D00AE0FF1D27F069
:1037C0000707F7E8020108E032E01FE020E000B25E
:1037D000C117042B01D140B2C117031E71F10003C0
:1037E00007DA4FF0000CD0EB0C006CEB01012D233D
:1037F00002E0230504D52B238DF82430012303E0B8
:10380000E30701D02023F7E7984658E00A2110E0AB
:1038100010210EE010204FF0000B08900CE010215A
:103820004FF0000B44F004044FF00809089103E046
:1038300008214FF0000B0891C4F30253022B04D06F
:1038400001CF0021032B06D006E0FF1D27F007075C
:10385000F7E8020103E080B2042B00D1C0B24FF0C0
:10386000000823072BD5702A07D0DDF820C08CF084
:10387000100C5CEA0B0C05D00EE040238DF82430D0
:10388000012308E050EA010306D030238DF82430EC
:103890008DF8252002239846DDF820C08CF0080C16
:1038A0005CEA0B0C0BD150EA010301D1630706D58A
:1038B00030238DF824304FF00108A9F10109582A6E
:1038C00004D038A20B9208AA0A920BE03AA2F9E7B8
:1038D0005B46089AFCF774FC0B9B9B5C0A9A521E91
:1038E0000A92137050EA0102F2D10A98ADEB00007F
:1038F00000F1200B600702D524F4803401E04FF082
:103900000109D94502DDA9EB0B0000E0002000EB26
:103910000B0141440890AAEB010AE00306D4DDE95B
:103920000F232146504600F063F806444FF000098B
:1039300008E009A911F80900DDE90F12904709F123
:103940000109761CC145F4DBE0030CD5DDE90F234A
:103950002146504600F04CF8064404E0DDE90F1221
:1039600030209047761C0899481E08900029F5DC05
:1039700008E00A980A990078491C0A91DDE90F12BB
:103980009047761CBBF10001ABF1010BF1DC214645
:103990005046DDE90F2300F019F806446D1C1BE6C4
:1039A0000928010030313233343536373839616215
:1039B00063646566000000003031323334353637D9
:1039C0003839414243444546000000002DE9F041AA
:1039D000044600251E461746880404D405E03946EF
:1039E0002020B0476D1C641EF9D52846BDE8F08143
:1039F0002DE9F041044600251E469046C80301D536
:103A0000302700E02027880404D505E041463846E9
:103A1000B0476D1C641EF9D52846BDE8F0810A68E0
:103A2000531C0B60107070472DE9FF4F89B005469D
:103A30000A9800249246002800D1FE4D8FE12528E7
:103A400004D02246641C53460A990BE2491C4FF0ED
:103A5000000808460C9101782B2919D004DC202994
:103A600019D0232904D119E02D290ED0302909D0ED
:103A70000026C8B2FEF752F8B0B10CA8FEF737F82E
:103A800006461FE048F001010AE048F0020107E0A5
:103A900048F0040104E048F0080101E048F010019A
:103AA000401C88460C90D6E70C9908782A2809D142
:103AB000169840C81690002E02DA48F002087642A6
:103AC000491C0C910C984FF0000B01782E2919D14C
:103AD000401C0C9048F480680078FEF71FF820B175
:103AE0000CA8FEF704F883460CE00C9A10782A28FC
:103AF00008D1169802C81690002900DC0021521C3B
:103B00008B460C920C9801786C290AD004DC682949
:103B10000FD06A2919D128E0742929D07A2914D123
:103B200026E0401C0C90017848F480786C291CD069
:103B30000BE0401C0C90017848F08008682904D103
:103B400048F04001401C88460C90024600786928E5
:103B500022D015DC62281FD00DDC252871D050281A
:103B60001AD058287FF46DAF16E048F40071E9E7E9
:103B700048F48071E6E7632878D06428F2D10BE03E
:103B8000732874D004DC6F2806D07028EAD103E0D3
:103B9000752801D07828E5D178280DD058280BD089
:103BA00070280BD0502809D06F2816D0622816D064
:103BB0000A2128F0100016E0102107E050781021AB
:103BC00048F48878562804D1521C0C921078582852
:103BD00007D01078502804D006E0082109E002211F
:103BE00007E048F0200080461078692803D0642858
:103BF00001D028F00C085FEA485001D528F00108F0
:103C0000107869281ED064281CD0562864D05FEA3A
:103C1000885072D5169804ABC01D002283E80608B0
:103C20000292CDE9076820F007005346F0E802123F
:103C3000CDE900121690224628460A99FFF778FC33
:103C400089E00AE15FEA885024D5169804AFC01DC8
:103C500020F00703F3E802021693002387E80A081E
:103C6000CDE90768002A03DA012102E080E0A6E03E
:103C700000210023029119461B1A914101DA1146D5
:103C800003E00021404261EB020153462246CDE9A8
:103C90000001D1E75FEAC85004D5169804C80FE0C8
:103CA000524215E05FEA486003D5169810F8042BDD
:103CB00006E05FEA0860F0D5169830F8042B12B2DF
:103CC0001690CDE9021BCDE90468D00F002AE7DD8C
:103CD000CDE9002053461EE01698AAEB040202C864
:103CE00016904868006800900A980B6801192846E9
:103CF000FFF79AFE04442FE0FFE75FEAC8500CD5B7
:103D0000CDE9021BCDE9046816980021534604C88A
:103D1000CDE900211690224619E05FEA486003D5FC
:103D2000169810F8042B08E05FEA0860169803D58F
:103D300030F8042B92B200E004C816900020CDE9C0
:103D40000020CDE9021BCDE90468534622462846EF
:103D50000A99FFF7ADFB04460C98401C0C900C9997
:103D6000087800287FF46BAE54457DD222467DE072
:103D700001275FEA887006D509E02246641C534695
:103D800020200A99A84738467F1CB042F5D31699DF
:103D90002246641C11F8040B169153460A99A84751
:103DA0005FEA887006D4D7E72246641C5346202079
:103DB0000A99A84738467F1CB042F5D3CCE716983D
:103DC00050F8049B16904B46BBF1000001D0014611
:103DD00001E04FF0FF31484600E0401C02780AB194
:103DE000491EFAD2C71A5FEA485003D558465F45C4
:103DF00000D307465FEA887006D512E02246641CAD
:103E0000534620200A99A84738467F1CB042F5D374
:103E100007E000BF224609F10109641C53460A99D4
:103E2000A84799F8000040B15FEA4851F2D5BBF1CC
:103E3000010B01E0B9350008ECD25FEA887006D4C6
:103E40008AE72246641C534620200A99A847384630
:103E50007F1CB042F5D37FE706E02246641C534640
:103E600025200A99A84777E7AAF1010253460020C6
:103E70000A99A8470DB02046BDE8F08F10B50200A2
:103E80004FF000000CD04B1E194200D0FEE70A4450
:103E9000521E9A43B2F5803F02D20C2A01D9104635
:103EA00010BD0C2010BD08444A1E401E9043114214
:103EB00000D0FEE7704700002DE9F0410F460121D8
:103EC0000025044641862E460BE01B49FCF7E2F92B
:103ED00010B16D1CADB202E0608E401C6086761C95
:103EE000B6B257F8260010B101780029EDD1208E26
:103EF000A8421ED0A06A002610B117F0CDFEA6621F
:103F0000E06A10B117F0C8FEE662E80017F03AFE6A
:103F1000A06238B1680017F035FEE06218B1A16AFE
:103F200011B102E0FEE7FEE70025690018F00AF88B
:103F30002586BDE8F08100000C4301082DE9F84F0B
:103F40008146407A0F4600F00700022819D010463B
:103F50008046974200DD3A46164603202A4C2B4AFB
:103F600000EB460020F00305A06811681035411AE7
:103F7000636805EB010C9C4505D2416821F00041C6
:103F800024E00846E4E79D4219D892464FF0FF3BF3
:103F900048196168884210D9002269461C48CDF84A
:103FA00000B00BF07BFC002269461A480BF076FC4F
:103FB000A168DAF80000091AEAE7A068DDE72846F8
:103FC00017F0E0FDC0B1416841F0004188EA6702A6
:103FD000416089EA02010160416801F04041491CE9
:103FE00031F0804141608681A0F80E8005D500F156
:103FF00010018160BDE8F88FFEE7A16801F11002B1
:1040000029448260A160F5E750000020A80100204B
:104010006DCC0008FDF8000870B586B000228DF860
:1040200008208DF80C208DF81020444C90F83C208E
:10403000142302F00302A5784FF4B476012A23D0AA
:10404000022A5FD0AA4211D010F8265F05EB0515B1
:1040500005EB4505B5FBF3F52570407800EB001046
:1040600000EB4000B0FBF3F06070A27004AA03A85C
:10407000CDE9000201EB41004FF6FF7101EA40007B
:1040800002AB627821781AE0AA4210D0858C05EB49
:1040900045056D02B5FBF6F5A58090F8270000EB0D
:1040A000001000EB4000B0FBF3F06070A27004AAB7
:1040B00003A8CDE90002C9B202AB62783CE008F087
:1040C000E7FA9DF810209DF80C10D308BDF80020E9
:1040D0009DF8080063F30402ADF800208A08BDF8DB
:1040E000001062F34A11ADF80010C108BDF80000DD
:1040F00061F3CF20ADF8000080B20090BDF8000061
:1041000006B070BDAA4210D0858C05EB45056D0246
:10411000B5FBF6F5A58090F8260000EB001000EB4B
:104120004000B0FBF3F02070A27004AA03A8CDE910
:104130000002CAB2217802ABA088C0E700010020CB
:1041400010B5084C012020700748FEF758FD0028E4
:10415000A06803D0BDE810401FF012BABDE81040BF
:104160001FF002BA8C0100201005002010B5044693
:1041700090F83E00626B810707D4A18F39B1A1F599
:104180007F43FF3B15D0491EA187A18F89B90AB192
:1041900081070ED521461348FEF79BFDFFF7D0FFA0
:1041A000E16809B1204688472046BDE8104017F075
:1041B00073BDA16B4942E162002A11D0810702D48C
:1041C000216B4942E1624110491C61F3410084F8CE
:1041D0003E00616AE069E1616062A06AA2626063B8
:1041E00010BD00001005002070B5304D68681FF04C
:1041F00083F80646687880F00100687047E0002088
:10420000287094F83E006978C0F380028A4242D058
:1042100061F3820084F83E00E16A8A19030719D429
:10422000002917DC002A15DBC00709D1216939B143
:1042300020468847E1690144E161616A084460629F
:10424000A16809B12046884794F83E0040F0080074
:1042500084F83E00E06A8019E06216D4A16A8842C0
:1042600000DDE162A169204688470146206A884254
:1042700004D0216262680AB120689047D4E90A013B
:10428000814202DB2046FFF771FF287818B1084809
:10429000FEF7B5FC03E021460548FEF7C2FC04002A
:1042A000ADD11FF02FF8686070BD00008C010020B8
:1042B0001005002070B5044640680D4608B1FFF7B0
:1042C000F9FF2268002A04D029462046BDE8704044
:1042D000104770BD89B20FF066BA89B20FF09FBA6D
:1042E00010B50446406882080AD0496821F00301ED
:1042F000091D08446060204600F042F8204610BDC9
:10430000FEE74068103120F00300884201D301200D
:104310007047002070472DE9FC47054648680C4669
:1043200020F0030001AA694620F03AF8DDE90070A8
:1043300005EBC71101EB80098046D9F83C0060B15C
:1043400064B1C4E9020504F10806C46030460421E2
:10435000FFF7A9FD864202D0FEE7FEE7FEE7C9F8B7
:104360003C400120296900FA07F21143296105EB5D
:10437000870100FA08F04A6902434A61BDE8FC87F8
:1043800010B5044600F087F8046010BD2DE9FC4725
:1043900006464FF000000D0000900746019042D005
:1043A0000C46E9460DF10408802907D3084623F09E
:1043B0004CFE411F01208840401E044442464946AD
:1043C00020461FF0EDFF009C0A2C2CDA06EB84003F
:1043D000019A40694FF0FF3101FA02F210400CD10E
:1043E000641C3069A14008401DD023F026FE04461D
:1043F000009006EB8000406978B123F01EFE034672
:1044000006EBC411019001EB8000C76B5FB17868C7
:1044100020F00300A84201D2FEE7FEE7394630460D
:10442000009A20F03DFE3846BDE8FC8710B50446F2
:10443000FFF7A6FF416841F002014160606840F06B
:104440000100606010BD10B5044600F024F841681A
:1044500021F002014160606820F00100606010BD41
:1044600070B506460D46084600F015F8040010D059
:104470002079C0070BD0686880080BD021463046F1
:1044800000F03CF821462846FFF72AFF054628465B
:1044900070BDFEE7FEE7426800F1080122F003006C
:1044A000001F0844910800D1FEE7704770B506462A
:1044B0000C004FF000001ED0F2B120791546C00765
:1044C0001BD011462046FFF71CFF78B12946204635
:1044D00000F025F805462046FFF752FF6868294698
:1044E00040F0020068603046FFF715FF2046FFF7F6
:1044F000AAFF04F1080070BDFEE7FEE77CB50546A3
:1045000048680C4620F0030001AA69461FF048FFE6
:10451000DDE900232146284620F0C2FD7CBD2DE9BF
:10452000F0410D46044600F10801281F0E1860688E
:1045300006F1080720F00300401BA0F104083846EC
:104540000421FFF7B0FC874200D0FEE7606820F04E
:10455000030108EB0500001D814200D0FEE7307921
:1045600000F0030040EA0800706020F003000C280F
:1045700000D2FEE7207900F0030028436060304657
:10458000FFF754FF3046BDE8F08138B5044615F01A
:1045900053FE054615F085FE0028204605D0218FE4
:1045A000E1861AF0FDFD012038BD13F0D3FF00288D
:1045B00020461ED013F0A3FE218FE08E81420CD046
:1045C0002087E08E00906A461C21204614F0FCF9FA
:1045D0000128E9D120461AF0E3FD284615F06DFECA
:1045E0000428E0D1204619F0C7F9002114F0B2FEEA
:1045F000D9E714F00BF8D6E770B514F0E0F90546EA
:1046000019F000FA044628460FF02AFF014620461A
:10461000BDE8704001221EF069B900002DE9F04F9D
:104620000D4687B00446002119F0DBF860B3294637
:10463000204600F061FA2946204600F06FF800217C
:1046400020461AF005F80590002120461AF0D2F80D
:1046500004900021204619F0C7FE012800D0002058
:104660008046002120461AF061FA074600212046C4
:1046700019F038FF42F2D17906464F450BD1608CD4
:10468000400508D4012707E007B02846BDE8F04FF1
:104690001C2117F057BC0027204619F020F9DFF83D
:1046A00078A0834620460021BAF802201AF012F9B9
:1046B000D5F810C0AB682968CDF800C0CDF80C80E3
:1046C000CDE90131C2B239465846059B09F07CFE5E
:1046D00028834E4504D1608C800501D4012600E07A
:1046E0000026204619F0E1F8074620460021BAF8D6
:1046F00006201AF0EFF8C2B2686900246B68E96816
:104700008DE81B0031463846049B09F05DFE688346
:1047100007B0BDE8F08F0000740000202DE9F34FD2
:1047200081B00C46019809F0BDF80646019819F0D1
:10473000D6F88246304600F00BFF2061400017F0AB
:104740004DFA20602069400017F048FA002541F634
:104750009A79A0603AE036F91510DFF820814945D2
:1047600033D10027DFF818B11FE03946019819F05E
:1047700038F8594600901AF04CFAA8B9009809F098
:10478000A3F8012810D1009809F094F8A8420BD1A1
:1047900000981AF0EEF94146404501DA084602E079
:1047A00000981AF0E6F980467F1C019819F02BF862
:1047B000B842DAD8B8F1000F03DBA16821F8158000
:1047C00003E0A168002021F815006D1C2069A842B3
:1047D000C1D800252F46284641F69B784B4615E068
:1047E00036F91010414504DB0D44A5F5F8559B3D05
:1047F0000BE0994204D1A16831F81010394403E06C
:10480000A26822F8101039440FB2401C216981427D
:10481000E6D80021019819F01BFF2169C1F10102BE
:1048200000FB02A0C01B00B2002800DA002000221A
:104830004FF0FF331146C44611E000BF36F9117046
:1048400067450BDBA7F5F8579B3F3AB210FB02F325
:10485000B3FBF5F3A76827F811300B46491C27690D
:104860008F42EBD8002B07DBA91A4143B1FBF5F1CE
:10487000401AA16821F81300BDE8FE8F01E0FFFF98
:10488000010006002DE9F14F0022114600981BF0AF
:1048900053FB0021009819F0DBFD0446002100982D
:1048A00019F0BDFF20440FFA80F90021009819F09B
:1048B0007BFE20440FFA80F8009819F03BFD00EBD6
:1048C000090101EB0800DFF898A006B254460098F1
:1048D00018F099FF074600252AE0009821498068D2
:1048E000006850F8250083461AF093F9F8B9584645
:1048F0001AF0B8FC40BB0021584619F040FD18B32F
:10490000012821D002281FD003281DD0002158469D
:104910001AF028F958B9BBF81A10BBF81600081A93
:10492000401C00B24844A04200DB044624B26D1C87
:10493000BD42D2D3544504D004EB080000B2B042CB
:1049400000DC3046BDE8F88F0098BBF91A10B0F9CA
:104950001600081A411CA142E8DB0C46E6E70000FD
:1049600001E0FFFF010004002DE9F84F002280461E
:1049700011461BF0CBFA0021404619F069FD0446B0
:104980000021404619F0E2FE20440FFA80FA00218F
:10499000404619F080FE20440FFA80F9404619F095
:1049A000D7FC00EB090101EB0A00DFF844B105B2C6
:1049B0005C46404618F027FF07460021404619F0A4
:1049C000FEFC01284FF0000644D078E0D8F808003B
:1049D0004849006850F8260000901AF01AF9C0BB48
:1049E00000981AF03FFC50B10098B8F91810B0F9CF
:1049F0001400091A481CA0422ADB4C1C28E00021A4
:104A0000009819F0BCFC58B1032809D0062807D03B
:104A1000082805D0002100981AF09DF858B118E038
:104A20000098B8F91810B0F91400081A411CA142F6
:104A30000EDB0C460CE00098143000900EF0BFFF27
:104A40005044A04204DB00980EF0B9FF00EB0A04CA
:104A500024B2761CBE42B9D35C453BD004EB0900BE
:104A600033E000BFD8F808002249006850F826005B
:104A700000901AF0CEF808BB00981AF0F3FB60BB68
:104A80000021009819F07BFC38B3012825D00428B8
:104A900023D0072821D0002100981AF063F868B9C4
:104AA0000098143000900EF08AFF4844A04204DBC6
:104AB00000980EF084FF00EB090424B2761CBE427D
:104AC000D0D35C4506D004EB0A0000B2584501D0B3
:104AD000A84200DC2846BDE8F88F0098B0F918100D
:104AE000B8F91400091A481CA042E6DB4C1CE4E7A4
:104AF00001E0FFFF010004002DE9F84F0C4683465A
:104B000009F0EEFA064600F023FD6061400017F060
:104B100065F860606069400017F060F8002541F6B4
:104B20009A79E0603AE036F91500DFF80C814845E3
:104B300033D10027DFF804A11FE03946584618F0AA
:104B400050FE514600901AF064F8A8B9009809F098
:104B50004DFB012810D1009809F03EFBA8420BD173
:104B6000009818F00EFF4146404501DA084602E081
:104B7000009818F006FF80467F1C584618F043FE48
:104B8000B842DAD8B8F1000F03DBE16821F81580EC
:104B900003E0E168002021F815006D1C6069A8425F
:104BA000C1D800273D46384641F69B784A4615E075
:104BB00036F91010414504DB0F44A7F5F8579B3F29
:104BC0000BE0914204D1E16831F81010294403E070
:104BD000E36823F8101029440DB2401C616981423A
:104BE000E6D80021584619F005FE8146584618F0CF
:104BF0005CFE01466069C0F1010209FB0210401B26
:104C000002B2002A00DA0022002043460FE000BF73
:104C100036F91010994209DBA1F5F8519B3912FBC6
:104C200001F1B1FBF7F1E56825F81010401C61694E
:104C30008142EDD8BDE8F88F01E0FFFF01000600DA
:104C40001CB50B8804892344ADF800304B88448997
:104C50002344ADF802308B8804892344ADF8043036
:104C6000C98843891944ADF80610436969469847D5
:104C70001CBD0000F8B50D46D0E90C2104468AB1F0
:104C800012787AB141B100BF1EF03DF90D490968B3
:104C90008847616B884211D2206B88B100200A4E90
:104CA000009006E061B1EFE7326869469047A8429C
:104CB00006D0206B0099415C0029F5D10020F8BD99
:104CC0000120F8BDE4010020D00100202DE9FF4FB4
:104CD00087B0C878189CC0070D46002801D0F1485D
:104CE00000E0F148069001D0F04800E0F048049060
:104CF00001D1EE4800E0EE484FF0100A4FF00C0EE4
:104D0000CDF814006088A1884FF0000BA0EB0100E3
:104D100001B25A465846276912E000BF00EB8006F0
:104D2000E3680AEB860C13F80CC05FEACC7C0BD06E
:104D30004FF0080C0CEB86069B5BC91A09B2401CAD
:104D40008742EBD8002347E00EEB86069B5B1A44B4
:104D500012B2F4E703EB8306E7680AEB86000190E2
:104D6000385CC00737D191FBF2F00EEB860CCDF822
:104D700000C037F80CC00CFB00FC0FFA8CF94FF0A8
:104D8000060C04200CEB860C00EB860037F90C8037
:104D9000385ECC46C84500DCC446604504DC40466D
:104DA000CC46C84500DD6046484506D0DDF80480A5
:104DB0004FF0010CE34647F808C0D4F80CC00827B0
:104DC00007EB86062CF80600E768009EBE5B921B88
:104DD000081A12B201B25B1C20699842BAD8BBF122
:104DE000000F8FD10021079819F0F7FA012826D07B
:104DF00000270020ADF80800ADF80C0003A902A8B8
:104E0000CDE900012089B4F9022003B2287816996F
:104E10001FF052FDE878384207D0079818F05FFD80
:104E2000BDF808100844ADF808000999079818F073
:104E3000D8FC06464FF4FA684FF0640B27E10127CF
:104E4000D7E79C49304619F0E4FE00287DD10021C7
:104E5000304619F02FFBE8B34FF0000948462169AE
:104E600011E000BFE26800EB800352F82320B24259
:104E700008D100EB8002E168082000EB820031F9E4
:104E8000009002E0401C8142ECD8E878C007708CAA
:104E900002D040F4806001E040F40070708406F1BC
:104EA0001400049982468847484528D030461AF0B5
:104EB00077F9B08AADF80000F08AADF80200308BC7
:104EC000ADF80400708BADF80600069A49465046CE
:104ED000904700E00FE06A462921304613F074FD48
:104EE000304618F08FFD3246222113F06DFD30461A
:104EF0001AF056F903E0708C20F4C0607084002032
:104F000000906878012810D0022816D1059906F182
:104F100014008847B4F90010491C21F00101081A57
:104F200000EBD07040F34F0006E0059906F1140045
:104F300088472188081A00B20090E87838420AD0E1
:104F4000049906F11400884700E098E0BDF80810C5
:104F5000081AADF808003046002143F20C0219F09F
:104F6000B9FC0FFA80F93046002143F20D0219F026
:104F7000B1FC0FFA80FA304619F0FBFD0190304683
:104F800018F0FFFC0146C9F3413001280ED129F485
:104F9000C04040450ADCB0F57A7F01DDC0F57A708B
:104FA000019A504390FBFBF00FFA80F9CAF34130AD
:104FB00001280DD12AF4C040404509DCB0F57A7FC4
:104FC00001DDC0F57A70484390FBFBF00FFA80FAE0
:104FD000B18A1498F28A411A01EB0900159900B2BE
:104FE0008A1A02EB0A01EA7809B2D207002A02D033
:104FF000BDF9082000E0009A10440FFA80FA01D0B1
:10500000009801E0BDF9080008440FFA80F95AEA57
:1050100009001BD030461AF0C3F8B18A01EB0A0030
:10502000B082318B01EB0A003083F18A01EB090079
:10503000F082718B01EB0900708330461AF0B0F8F2
:1050400001234A46514630461AF05AF9E878384268
:105050000CD1049906F11400884717990844BDF84B
:105060000C100844BDF80810084406E0BDF80C1008
:1050700017980844BDF80810081AADF80800E87839
:1050800009AAC0F38001079808F0F6FE0646002E34
:1050900004D0DDE9090188427FF4D3AE0BB0BDE84E
:1050A000F08F0000473A01083D3A0108E339010852
:1050B0008B390108010006002DE9F04F91B00E0078
:1050C00005463FD02E83286808B116F0E5FD06EBB3
:1050D0004600062101EB400016F054FD286040B365
:1050E000022101EB46010144E960042101EB860144
:1050F0000144C5E9010101210024012E1AD0F0006C
:10510000083016F06BFD814600EB860000F10408C4
:10511000B00000B2A346ADF81000C0F1010280104B
:10512000ADF812B00FFA82FA5C46CDF828B00690BE
:10513000ABE0FEE7B4220270E8680480E8684180D2
:10514000A868048011B0BDE8F08F0027BDF81220D8
:10515000BAF1000F07DC032101EB42010AEB010069
:105160000FFA80FA0CE0BDF810100523521A03EB79
:10517000420202EB0A00491E0FFA80FAADF8101045
:10518000BDF81200401CADF8120004A800F0E9F8C8
:1051900068B1BDF9100006A9821041F827200AA9BC
:1051A00000F0030041F827007F1C042FCEDB042F02
:1051B00071D109990698884212D129F8140028F86B
:1051C00014B0DDE90A010144DDE90C201044084473
:1051D00069680855696800010855641C24B252E0EA
:1051E0000799884219D029F8140028F814B06A6881
:1051F0000A9810556A6800011055641C069A20B27E
:10520000521E29F8102028F810B0DDE90B120A44CC
:105210000D99091D11446A682FE0089929F81400B6
:10522000884228F814B0DDE90A025946104412D029
:105230006A6810556A6800011055641C069A20B20D
:10524000521E29F8102028F81010DDE90C12114424
:1052500008316A6811E00C9A10446A6810556A684F
:1052600000011055641C069A20B2521E29F8102025
:1052700028F810100D996A680C3111546A680901F8
:105280001154401C04B20BF1010B04A800F069F8A2
:1052900000287FF45AAF40F2D32016FB00F109EB4F
:1052A0004402881232F9022C824205D108EB4402F2
:1052B00032F9022C82421AD0A1EB8021B1F5007F95
:1052C00003DC494341F3CF3106E0C1F58061494336
:1052D00041F3CF31C1F10F0129F8140028F814006F
:1052E00068680155686809010155641C24B2A01E54
:1052F0000EE000BF38F8102029F8142039F81020EB
:1053000028F8142069680A5C0A55641C24B2401EFF
:105310000028EFDAEA680021084611801BE0EA68FD
:1053200022F81100AB6839F8102023F811200AE0A8
:10533000AE6839F9102036F81130934200DA1A4677
:1053400026F81120401C38F910208A4201D1A042D1
:10535000EEDB491C09B2A042E1DB484616F08AFCAC
:10536000F0E6B0F90210B0F90000814201DC012042
:1053700070470020704717B581B0022A03D8BDF8E6
:10538000080004B010BDBDF80830BDF80400D90A0B
:1053900001EBD0211F2900D31F2161F3CF20C3F3DC
:1053A0004511C0F345142144ADF804003F2900D352
:1053B0003F2161F34A1003F01F0100F01F0319445D
:1053C000ADF804001F2900D31F2161F30400ADF8DC
:1053D0000400FF2A07D0DDE9010110F08DF80090EC
:1053E000BDF80000CDE780B2CBE717B581B0022A47
:1053F00003D8BDF8080004B010BDBDF80400BDF826
:105400000810C30ACC0A13FB04F35B0963F3CF2033
:1054100000F01F0301F01F0413FB04F35B0963F3A7
:105420000400C0F34513C1F3451113FB01F18909D1
:1054300061F34A10ADF80400FF2A07D0DDE901014D
:1054400010F05AF80090BDF80000D4E780B2D2E71F
:1054500017B581B0022A03D8BDF8080004B010BD0A
:10546000BDF80830BDF80400D90AA1EBD02100290D
:1054700000DC002161F3CF20C3F34511C0F34514D4
:10548000091BADF80400002900DC002161F34A107B
:1054900003F01F0100F01F03C91AADF80400002932
:1054A00000DC002161F30400ADF80400FF2A07D0FE
:1054B000DDE9010110F020F80090BDF80000CDE713
:1054C00080B2CBE7F8B5044613F079FA06462046D9
:1054D00013F037FA0546304618F094FA04462B2D9F
:1054E0002AD00A2D27D16946304618F0F1FA304605
:1054F00018F0F5F905460021204618F07CFF012838
:10550000BDF9000005EBD5711CD000EB610000BFB8
:1055100090FBF5F001B2002900DA0021608D4FF018
:1055200001028842204610D01DF0E0F900221C2123
:10553000204613F049FAF8BD618DBDE8F84000221D
:105540001DF0D4B9C0EB6100E2E71DF0CFF9F8BD62
:105550000146002041F6FF7200E0401C31F9103096
:105560009342FAD170471CB5044690F8500000F001
:10557000010088422DD094F8500011B140F0010094
:1055800001E020F0010084F8500004F14401684675
:105590000EF0ECF9606ABDF80010828A1144ADF893
:1055A0000010BDF80210C08A0844ADF80200606A1D
:1055B000BDF80410808A0844ADF80400606ABDF8A4
:1055C0000610C08A0844ADF806006946204619F066
:1055D0001BFE1CBD08B5084611460FF02EFE0090BC
:1055E000BDF8000008BD2DE9F04F0646C87A89B025
:1055F00015460F46022803D8012009B0BDE8F08FF8
:1056000018463A69B968FDF77BF8041EF5D0207D8D
:1056100000F01F0013F0D5FF08B1062008E0207D40
:1056200000F01F0013F0BDFF08B1052000E00420CA
:10563000226A814622B12946304620F014FAB7E0AA
:10564000A069E8B3294602A80EF051F9388818B9C4
:105650007888B0F5807F2AD0A88829886A88401A7F
:10566000401C01B2E8883B1D801A401C02B27888B9
:10567000CDE90003B7F9003002A8FCF7B9FCBDF88A
:10568000080029880844ADF80800BDF80A006988B8
:105690000844ADF80A00BDF80C0029880844ADF8AC
:1056A0000C00BDF80E0069880844ADF80E0002AA8F
:1056B00004A8B168FCF752FA002879D004A800E0E9
:1056C0000DE0D6F80880B060CDF800902A46394643
:1056D0003046A36910F0FAFDC6F8088068E02A4653
:1056E00004A8B168FCF73AFA002861D0BDF81400AC
:1056F000BDF81010401A401C0FFA80FB0BEB4B005A
:1057000016F06CFA039004A901A8D6F808A00EF0D0
:10571000EEF8012101A80EF091F9BDF91000B5F9DC
:105720000010BDF91280401A0690B5F90200A8EBEE
:10573000000534E001AA514607A8FCF70FFA60B350
:105740000398009006985B4601B22AB2204614F0F6
:1057500017FB01280CD0204614F067FA039816F0C6
:1057600089FA204614F061FA0020C6F808A044E740
:1057700007A8B060CDF8009001AA39463046039BD7
:1057800010F0A4FDBDF80600401CADF80600BDF801
:105790000A00401CADF80A006D1C08F10108BDF9B3
:1057A00016004045C6DAC6F808A0039816F062FA5B
:1057B000204614F03AFA1FE7704738B505460092C4
:1057C000B1F90240B1F90630B1F90420B1F9000095
:1057D00021460AF0A5F92846BDE8384010F0D4BAB1
:1057E00070B5054614F028FD0646286B1DF084FDB3
:1057F0003168898B884223D295F83C006C6A10F09E
:10580000030105D06420012906D0022909D106E050
:10581000002060F30F0404E060F3174401E060F33C
:105820001F64304614F07BFE2146284610F044F9F0
:1058300030B100221C21284613F0C6F8012803D1FC
:105840001DF060FD2863012070BD00002DE9F04FC0
:10585000A1B0074614468A4604A810F01FFB4FF477
:10586000A021384618F095FD9DF81D1060F38201C7
:105870008DF81D10A1882088091A491C09B201EB76
:10588000D1714E103044ADF8700060880021304472
:10589000ADF87200384618F064FE8146514608A8FB
:1058A00017F0DEFD04A810904FF4003015902D483D
:1058B000099000200A9007F130008346FDF7B8F9FF
:1058C0004AE02079032843D1208BADF81000208ACC
:1058D000ADF812006079FD2801D9484602E010FBBE
:1058E00009F0000A8DF81C002568B5F92030E88B16
:1058F00018440090D5E90512A06816F031F98046E9
:10590000B5F92030E88B18440090D5E90512E0681D
:1059100016F026F90546608B08AA3044ADF85C0005
:105920001CA811901A211994384613F04DF8A9B209
:105930001FFA88F0CDE90001BDF85C301CAA04A96B
:10594000504610F09BFA08AA1B21384613F03CF889
:1059500021465846FDF769F90400B2D121B0BDE8EF
:10596000F08F0000E0BC02082DE9F74FC878A0B026
:105970000C4602287DD9114601A80DF0CAFFB4F9E2
:105980002000012829DD94F82200FD2825D3208855
:1059900018B394F82300BDF804104008C0F3800247
:1059A0001144ADF80410BDF80610C0F340000844DF
:1059B000ADF8060094F82310BDF808004908C1F3BB
:1059C000C001401AADF8080094F82310BDF80A0091
:1059D000C1F34001401AADF80A00209801A982687D
:1059E00005A8FCF7BBF8002843D0E07B10F00706C1
:1059F00019D0E088ADF80000BDF800006189884248
:105A000000D1002601A811F057F907461C210EA865
:105A1000FAF72EFCA0788DF85100BDF80000ADF823
:105A200040001FB105E060680090E5E7208800B9FC
:105A3000EEB3E078FD2800D3FF208346BDF80800D0
:105A4000BDF80410401A401C0FFA80FABDF80A0095
:105A5000BDF80610401A401C01B289465046CA459E
:105A600000DB0846B4F90050B5EB600F00DB4510D1
:105A700000E043E0BDF81810BDF81400081A401CFF
:105A80000FFA80F84FF0FF301D9000200790002D96
:105A900000DC87B1404616F0A1F8079000232A46A3
:105AA00001A916A811F074FB002116A800E01CE063
:105AB00010F022FF1D90BDF81400ADF80C00BDF8E9
:105AC0001800ADF810000798119003A80E901390DD
:105AD000FF208DF850004A465146A01D13F05CFA95
