:020000040800F2
:10000000C0CE01209D0100080F210008991D0008A5
:100010000D21000867050008493D000800000000A8
:100020000000000000000000000000008D22000819
:10003000B1050008000000008B220008992200088A
:10004000B7010008B7010008B7010008B7010008B0
:10005000B7010008B7010008B7010008B7010008A0
:10006000B7010008B7010008B7010008B701000890
:10007000B7010008B7010008B7010008B701000880
:10008000B7010008B7010008B7010008B701000870
:10009000B7010008B7010008B7010008B701000860
:1000A000B7010008B7010008B7010008B701000850
:1000B000B7010008B7010008B7010008B701000840
:1000C000B7010008B7010008B7010008B701000830
:1000D000B7010008B7010008B7010008B701000820
:1000E000B7010008B7010008B7010008B701000810
:1000F000B7010008B7010008B7010008B701000800
:10010000B7010008B7010008B7010008B7010008EF
:10011000B7010008B7010008B7010008B7010008DF
:10012000B7010008B7010008B7010008B7010008CF
:10013000B7010008B7010008B7010008B7010008BF
:10014000B7010008B7010008B70100081121000835
:10015000B7010008B7010008B7010008B70100089F
:10016000B7010008B7010008B7010008B70100088F
:10017000B7010008B7010008B7010008000000003F
:10018000B7010008B7010008DFF80CD000F0AEF9A5
:10019000004800473D800208C0CE01200648804745
:1001A00006480047FEE7FEE7FEE7FEE7FEE7FEE75C
:1001B000FEE7FEE7FEE7FEE73D23000889010008B1
:1001C0002DE9F05F0546002092469B46884606468C
:1001D000814640241BE0284641464746224600F01F
:1001E00017F953465A46C01A914110D31146184682
:1001F000224600F0FEF82D1A67EB01084F46224612
:100200000120002100F0F5F817EB00094E41201EF7
:10021000A4F10104DFDC484631462A464346BDE8E6
:10022000F09F10B5431A934209D28318881803E04F
:1002300010F8011D03F8011D521EF9D210BD40EA4D
:1002400001039B0703D009E008C9121F08C0042A54
:10025000FAD203E011F8013B00F8013B521EF9D23B
:1002600010BDD2B201E000F8012B491EFBD270474D
:100270000022F6E710B513460A4604461946FFF772
:10028000F0FF204610BD421C10F8011B0029FBD1D5
:10029000801A704710B5002200E0521C835C8C5C11
:1002A000A34201D1002BF8D1D8B2E1B2401A10BD5F
:1002B000034611F8012B00F8012B002AF9D118464A
:1002C00070472DE9FE4F81EA030404F0004421F059
:1002D000004100944FF0000B23F0004350EA01046A
:1002E0005ED052EA03045BD0C3F30A54C1F30A554B
:1002F0002C44A4F2F3340194A0FB0254C1F3130183
:1003000041F48011C3F3130343F4801301FB02444F
:1003100000FB034E840A970A44EA815447EA835754
:10032000A4FB076802958D0A05FB07854FEA932C0D
:1003300004FB0C542705029D4FEA065847EA16377E
:10034000B5EB08056EEB070C870E920E47EA811796
:1003500042EA8312A7FB0201B6EB0B0164EB000437
:100360002B0D43EA0C335E1844EB1C50DA46514621
:10037000E7FB0201C5F313044FEA0B3343EA1453BE
:100380004FEA0432019C43EA0603A4F10C040294F0
:10039000009CCDE900B400F05AF803B0BDE8F08F3E
:1003A00000200146F9E70EB540F2334102910021E9
:1003B000CDE900110A460B4600F049F803B000BD34
:1003C000C1F30A5210B5C1F3130140F2FF3341F4F7
:1003D00080119A4201DA002010BD40F233439A4264
:1003E000A2F2334203DC524200F012F810BD9040FA
:1003F00010BD202A04DB203A00FA02F100207047E9
:100400009140C2F1200320FA03F319439040704752
:10041000202A04DB203A21FA02F00021704721FA59
:1004200002F3D040C2F120029140084319467047C0
:1004300010B5141E73F1000408DA401C41F10001EC
:1004400092185B411A4301D120F0010010BD2DE943
:10045000F04D92469B4611B1B1FA81F202E0B0FA3A
:1004600080F220329046FFF7C4FF04460F4640EA70
:100470000A0041EA0B0153465A46084313D011467D
:1004800053EA010019D0C8F140025046FFF7C0FFFF
:1004900005460E46504659464246FFF7AAFF084316
:1004A00005D0012004E020463946BDE8F08D00204B
:1004B000054346EAE0762C4337430A986305E40A8D
:1004C000A0EB08000022FD0A44EA47540A3002D596
:1004D00000200146E9E7010510196941DDE90845F9
:1004E00000196941BDE8F04DA2E70000064C074D38
:1004F00006E0E06840F0010394E8070098471034F4
:10050000AC42F6D3FFF744FECC0F0508EC0F05080C
:1005100070B58C1810F8015B15F0070301D110F8C5
:10052000013B2A1106D110F8012B03E010F8016BF2
:1005300001F8016B5B1EF9D12B0705D40023521E75
:100540000DD401F8013BFAE710F8013BCB1A921CDD
:1005500003E013F8015B01F8015B521EF9D5A142DB
:10056000D8D3002070BDFEE7002070470020704700
:1005700010B500220449054802F05EF90449034819
:1005800002F054F9002010BDB4920120E48501204E
:10059000B48A012010B50146034802F047F9024829
:1005A00002F029F9002010BDE485012000207047E9
:1005B000704772B6FEE7000070B5B3F5804F05D006
:1005C0006FF0704140F82210002070BD50F82240BA
:1005D000084B8E891C40D1E9003543EA05138D682C
:1005E00089692D0245EA06452B430B43234340F816
:1005F0002230E9E70000F0CFF0B50C6850F8243065
:10060000114A1340D1E90125D1E903672A433E434A
:1006100032434E6932438E693243CE6932430E6AA9
:1006200032434E6A32438E6A3243CE6A3243CE6BD5
:10063000096B32430A431A43082D01D142F04002AC
:1006400040F824200020F0BD8000F0FF30B500EB22
:10065000820250688D8900F04043D1E9000440EAED
:1006600004108C68240244EA054420430C8A074D98
:1006700005EB045420430C7D6D0105EB046489698E
:100680002043084318435060002030BD0000F0FFB5
:1006900070B54379012B1AD00126467102230371EC
:1006A00005682C6840F6FE7393409C43D1E9003105
:1006B0000B43934023432B6001680B68C024944094
:1006C000A3430B60067100214171084670BD0220F2
:1006D00070BD70B5040003D02079002510B105E08D
:1006E000012070BD6571204600F008F802202071DD
:1006F000256101202071002070BD000010B586B07A
:10070000044614216846FFF7B3FD1149206888426A
:100710001CD110480021026842F0005202600068BB
:1007200000F0005005900B481038026842F00102BA
:100730000260006800F00100059030200090032066
:10074000CDE901016946044800F054F806B010BD37
:1007500000740040403802400000024070B504467A
:1007600000F02EF90546601C02D0044800780444CD
:1007700000F026F9401BA042FAD370BD0C00002007
:10078000F0B587B014216846FFF772FD154801687F
:10079000002924D10121016013480024016841F09F
:1007A000010101600068022500F0010005904FF68C
:1007B0008070CDE9000502AA03260C2782E8D0004C
:1007C00069460A4800F016F84CF6B370CDE900050A
:1007D00002AA694682E8D000054800F00BF807B08D
:1007E000F0BD000004000020383802400010024034
:1007F000000C02402DE9F84F00224FF001080325BC
:100800004FF00F0E0B6808FA02F42340A3426ED19A
:100810004E68012E05D0022E03D0112E01D0122ECB
:1008200012D186684FEA420C05FA0CF7BE43CF6836
:1008300007FA0CF7374387604668A6430C79C4F380
:100840000014944034434460C668570005FA07FC1E
:100850008C6826EA0C06BC403443C4604C68022C09
:1008600001D0122C13D1D40800EB8404A346D4F891
:10087000209054074FEAD46A0EFA0AF629EA0609CC
:100880000E6906FA0AF646EA0906CBF82060066801
:100890000C7926EA0C0604F00304BC4034430460DF
:1008A0004C68E40065D5364C266846F480462660E0
:1008B000246822F0030604F480440094314C34444C
:1008C000A446D4F808489607370F0EFA07F6B44343
:1008D0002D4EB04201D1002624E02C4EB04201D171
:1008E00001261FE02A4EB04202D102261AE040E063
:1008F000284EB04201D1032614E0274EB04201D168
:1009000004260FE0254EB04201D105260AE0244E10
:10091000B04201D1062605E0224EB04201D10726A1
:1009200000E00826BE402643CCF808681E4E346816
:100930004F689C43FF0300D51C4334601A4C241DB0
:1009400026684F689E43BF0300D51E432660164E9F
:10095000083634684F689C43FF0200D51C4334605E
:10096000114E0C3634684F689C43BF0200D51C43BF
:100970003460521C102AFFF445AFBDE8F88F000028
:1009800044380240003001400000024000040240B0
:1009900000080240000C0240001002400014024017
:1009A00000180240001C0240003C01400069084061
:1009B00000D0012070470AB1816170470904FBE74C
:1009C00001488068704700000C00002002488168E0
:1009D00002781144816070470C0000200B4810B56C
:1009E000016841F400710160016841F480610160B7
:1009F000016841F480710160032000F06FF800206D
:100A000000F006F800F024F8002010BD003C024081
:100A100070B50D4D04464FF47A712878B1FBF0F0B3
:100A20000A490968B1FBF0F000F0DBFF48B9102C6F
:100A300007D200222146501E00F030F800206C60E2
:100A400070BD012070BD00000C00002018000020C7
:100A50000A4808B5016841F480410160006800F46B
:100A6000804000900548001F016841F080510160FE
:100A7000006800F08050009008BD0000443802403B
:100A8000002809DB00F01F0201219140400980008D
:100A900000F1E020C0F8001170470000F0B40E4BE8
:100AA0001B680C46C3F30223C3F10705042D00D9CC
:100AB0000425191D072901D2002300E0DB1E0126B1
:100AC00006FA05F1491E214099409E40761E1640C7
:100AD0003143F0BC03F04EB90CED00E0064900F0E4
:100AE000070208684FF6FF03184040EA0220034A55
:100AF00010430860704700000CED00E00000FA05AC
:100B000070470068416200207047F0B50368586A7A
:100B100039B19C6A4FF4827600EB144400204D1EDC
:100B20000AE040EA024098620FE006EB8007DF59D6
:100B3000401C04EB1744C0B2A842F6D344EA02407A
:100B40004FF4807202EB810158500020F0BDD0F8C4
:100B5000040402F0F6B8C1EBC10200EB8202D0F847
:100B60000404926C02F061B8C1EBC10200EB820296
:100B7000D0F80404D2F8082202F0ACB8D0F804048B
:100B800002F0E1B870B504460B0601F00F00C0EBAF
:100B9000C00104EB81014FF001024FF0000503D5C5
:100BA00081F83D203C3103E081F8FD5101F5FE71F3
:100BB000087094F8BC03012808D084F8BC2320688E
:100BC00002F05AFC84F8BC53002070BD022070BDB6
:100BD00070B5044601F00F006268904201D901200F
:100BE00070BD0B0601F00F01C1EBC10104EB8101E7
:100BF0004FF001024FF0000503D581F83D203C3154
:100C000003E081F8FD5101F5FE718D70087094F8D4
:100C1000BC03012808D084F8BC23206802F026FE1B
:100C200084F8BC53002070BD022070BD01F00F019C
:100C3000C1EBC10100EB8100D0F8140270472DE92F
:100C4000F04104460F0601F00F00C0EBC00104EBB9
:100C500081014FF001064FF0000503D581F83D609A
:100C60003C3103E081F8FD5101F5FE7108708A60A6
:100C7000CB704A7802B1C880022B00D10D7194F874
:100C8000BC03012809D084F8BC63206802F050FB43
:100C9000284684F8BC53BDE8F0810220FBE770B51C
:100CA0000C4601F00F05C5EBC50100EB8101C1F851
:100CB0001032C1F808220023C1F8143281F8FD3146
:100CC00081F8FC51036901F5FE71012B00D10A6125
:100CD0002207027C006803D002F020FE002070BDD5
:100CE00002F00CFDFAE770B504460D4601F00F0066
:100CF0006168884201D9012070BD29064FF00006C5
:100D00004FF0010207D5C0EBC00104EB810181F86F
:100D10003D203C3107E0C5EBC50104EB810181F8C2
:100D2000FD6101F5FE718A70087094F8BC0301281A
:100D300007D084F8BC23206802F0C4FD280702D045
:100D400007E0022070BD217C04F57172206802F07A
:100D500061FD84F8BC63002070BD70B50C4601F0E5
:100D60000F05C5EBC50100EB81010B658A6400230B
:100D70004B65012381F83D3001F83C5F0369012B8D
:100D800000D10A612207027C006803D002F0C6FD90
:100D9000002070BD02F0B2FCFAE700002DE9FC5F14
:100DA00005680446284602F0E2FE00287ED120684D
:100DB00002F009FF002879D0206802F004FF8007C4
:100DC00004D52168486900F002004861206802F0FB
:100DD000FAFEC10604F57170009034D5206881696F
:100DE00021F0100181612F6A07F00F00C0EBC000F5
:100DF00004EB8006C7F3434006F5FE76022802D0D6
:100E0000062811D01AE047F6F070074216D0C7F353
:100E10000A1217462846F16802F0D9FEF0683844F5
:100E2000F060B069384408E008222846009902F0D2
:100E3000CEFEB069C7F30A110844B0612068816929
:100E400041F010018161206802F0BDFE00034FF007
:100E5000010A4FF0080B5BD50026206802F092FED5
:100E60000746DFF8689351E0F8074DD0F1B22068EB
:100E700002F0A1FE8046C00707D005EB4611C1F87D
:100E800008AB3146204601F049F95FEA087022D5E7
:100E900005EB4611C1F808BB2068016C00EB461059
:100EA0000191D0F8082B494507D900E08BE11104E6
:100EB00003D54FF40041C0F8081B204600F076FA35
:100EC0000198484507D92069012804D120680121EB
:100ED000009A02F09FFC5FEAC86004D505EB46115A
:100EE0001020C1F8080B5FEA886004D505EB4611B5
:100EF0002020C1F8080B5FEA884005D505EB4610B5
:100F00004FF40051C0F8081B7F08761C002FABD1AE
:100F1000206802F058FE40034FF000095CD52068BD
:100F200002F029FE0746002654E0F80750D0F1B23F
:100F3000206802F02EFE8046C00723D006F00F0284
:100F40000AFA02F0D5F834288243C5F8342805EBB4
:100F50004610C0F808A9206901280FD1C6EBC600C9
:100F600004EB8000D0E911211144816436B9206D71
:100F700020B920680121009A02F04CFCF1B2204611
:100F8000FFF7E9FD5FEA087003D505EB4611C1F8EC
:100F900008B95FEAC86004D505EB46111020C1F816
:100FA00008095FEA486004D505EB46114020C1F806
:100FB00008095FEA887004D505EB46110220C1F8E4
:100FC00008095FEA086003D53146204601F00CF9B4
:100FD0007F08761C002FA8D1206802F0F4FD0028BD
:100FE00011DAD5F8040820F00100C5F8040894F8D7
:100FF000F403012829D0204600F0BCF9206841699B
:1010000001F000414161206802F0DDFD00050BD5D3
:10101000D5F80808C00702D0204600F0EFF9206894
:10102000416901F400614161206802F0CCFDC00417
:1010300068D5D5F8040820F00100C5F8040810218F
:10104000206802F075FD002127E084F8F493002168
:101050002046FFF755FDD1E705EB41104FF67F32F3
:10106000C0F80829D0F8003923F40013C0F800397B
:10107000D0F8003943F00063C0F80039C0F8082BFD
:10108000D0F8002B22F40012C0F8002BD0F8002B6F
:1010900042F00062C0F8002B491C60688842DBD82F
:1010A000D5F81C0840F00110C5F81C08206B60B191
:1010B000D5F8840840F00B00C5F88408D5F844083A
:1010C00040F00B00C5F844080CE0D5F8141842F2C3
:1010D0002B000143C5F81418D5F8100840F00B0098
:1010E000C5F81008D5F8000820F4FE60C5F800081F
:1010F000217C2068009A02F08DFB2068416901F490
:1011000080514161206802F05EFD800415D52068A1
:1011100002F04EF9206802F01DFDE06000F020FAB8
:101120000146227B206802F089FD204600F00CF980
:101130002068416901F400514161206802F043FDDB
:10114000000707D5204600F019F92068416901F031
:1011500008014161206802F036FDC00208D5002177
:10116000204600F035F82068416901F480114161A2
:10117000206802F028FD800208D50021204600F0FA
:101180002BF82068416901F400114161206802F0E8
:101190001AFD400007D52046FFF7D9FC20684169B9
:1011A00001F080414161206802F00DFD40070AD541
:1011B00020684568680702D52046FFF7DFFC2068F5
:1011C000416829434160BDE8FC9F00000A30544F4C
:1011D000D0F8040401F008BED0F8040401F006BE03
:1011E0002DE9F0418AB0040005D094F8BD032668CB
:1011F000002520B108E001200AB0BDE8F08184F8A4
:10120000BC53204600F05EF8032084F8BD03F06B69
:10121000C00500D42561206802F06AFA04F11001CB
:10122000282288466846FEF7FCFF94E80F0002F08B
:10123000CDF80226C8BB0021206802F0D6FC0020B1
:1012400001270EE0C0EBC00104EB810181F83D7085
:1012500001F83C0FC880CD708D60CD60401CC0B2DD
:101260004D6161688142EDD8002011E0C0EBC00102
:1012700004EB810181F8FD5181F8FC0181F8FF51F7
:10128000C1F80452C1F80852401CC0B2C1F8105253
:1012900061688142EAD8282241466846FEF7C1FFCC
:1012A00094E80F0002F06AF910B184F8BD63A2E778
:1012B00084F8385084F8BD73206802F051F900209A
:1012C0009AE7000010B586B0044614216846FEF780
:1012D000CFFF2068B0F1A04F2FD11948002102683C
:1012E00042F001020260006800F0010005904FF436
:1012F000C05000900220CDE90101032003900A2094
:10130000049069460F48FFF775FA0D48001D016803
:1013100041F0800101600A481430016841F48041C5
:1013200001600068002200F48040059011464320CF
:10133000FFF7B4FB4320FFF7A3FB06B010BD00008E
:10134000303802400000024070B50446C0680125F4
:1013500070B1022801D0FFF72CF92946D4F8040413
:1013600001F09AFDD4F80404BDE8704001F055BDC9
:101370000025F2E7D0F8040401F078BDD0F80404A9
:1013800001F07EBD10B5044690F8BC0301280BD0D7
:10139000012084F8BC0384F83810206802F03CFC7B
:1013A000002084F8BC0310BD022010BDD0F8042436
:1013B00000F57171104601F07BBD10B50446006860
:1013C00094F8BC13012906D0012184F8BC13A16A4A
:1013D000012902D008E0022010BDA169012903D033
:1013E000816B41F480318163206802F08BFB2068BF
:1013F00002F0A8F8002084F8BC0310BD10B5044624
:10140000D0F8040401F096FD2068D0F8001E41F0E9
:101410000101C0F8001E206A002804D002480168BB
:1014200041F00601016010BD10ED00E02DE9F0472C
:101430000E46050065D0DFF81481D8F80000F7B239
:1014400000F00F00B04207D288F80070D8F8000012
:1014500000F00F00B04254D128683D4C810712D5EE
:10146000400703D5206840F4E0502060287800074A
:1014700003D5206840F4604020602068A96820F00F
:10148000F000084320602878C0072DD030496868F4
:101490000839012812D0022813D0032811D0096876
:1014A000890700292DDA216821F003010143216019
:1014B000FFF786FA814641F2883A0EE0096889030F
:1014C000EFE709688901ECE7FFF77AFAA0EB090179
:1014D000514502D90320BDE8F0872068696800F013
:1014E0000C00B0EB810FEFD1D8F80010404601F0AE
:1014F0000F01B14207D90770006800F00F00B04239
:1015000001D00120E7E72878400705D52068E96881
:1015100020F4E050084320602878000706D52068B2
:10152000296920F4604040EAC100206000F01EF804
:101530002168084AC1F30311515CC840064908609C
:1015400006480068FFF764FA0020C4E7003C024048
:1015500008380240540D0308180000201000002035
:10156000014800687047000018000020154810B5B9
:10157000006810F00C02144813D01449042A0FD04C
:10158000082A0ED10F4C241F2268236802F03F0264
:101590005B0207D52068C0F38810A0FB010106E0BC
:1015A000084610BD2168C1F38811A1FB000100238A
:1015B000FEF706FE2168C1F30141491C4900B0FB5A
:1015C000F1F010BD083802400024F400001BB70001
:1015D0002DE9F84F04006ED02078DFF83C93C00767
:1015E000A9F104054AD009F104000168C1F38101A1
:1015F000012908D00068C0F3810002280AD1D9F877
:101600000000400206D52868800337D560680028AE
:10161000E1D033E06068B0F5803F10D0B0F5A02F86
:10162000286810D020F480302860286820F48020BA
:1016300028606068A8B1FFF7C3F906460DE0286886
:1016400040F48030F4E740F480202860F7E700BFE2
:10165000FFF7B6F9801B642873D828688003F7D594
:101660000CE0FFF7ADF9064605E000BFFFF7A8F96B
:10167000801B6428F0D828688003F7D42078DFF82E
:101680009C8280074FF0000A3ED5A348001D0168E8
:1016900011F00C0F08D00068C0F3810002280BD1B4
:1016A000D9F80000400207D42868800716D5E06802
:1016B000012800D112E02BE1E068B8B10120C8F8A0
:1016C0000000FFF77DF9064605E000BFFFF778F957
:1016D000801B0228C0D828688007F7D528682169B0
:1016E00020F0F80040EAC10028600DE0C8F800A032
:1016F000FFF766F9064604E0FFF762F9801B02284F
:101700001FD828688007F7D42078000722D5824E9A
:1017100083486169703671B101210160FFF750F9AA
:10172000074604E0FFF74CF9C01B022809D83068CF
:101730008007F7D50EE0C0F800A0FFF741F9074693
:1017400005E082E0FFF73CF9C01B02287DD8306835
:101750008007F7D42078400768D5DFF8BCB10027B0
:101760000BF13C0BDBF80000C0000BD4DBF80010E1
:1017700041F08051CBF80010DBF80000012700F0A9
:1017800080500090674E3068C00510D4306840F437
:1017900080703060FFF714F9009005E0FFF710F952
:1017A0000099401A022850D83068C005F6D55A4E24
:1017B000A0686C3601280FD00528306810D020F0C2
:1017C00001003060306820F004003060A068B8B1DB
:1017D000FFF7F6F800900FE0306840F00100F4E702
:1017E00040F004003060F7E7FFF7EAF80099411A8B
:1017F00041F28830814266D830688007F4D50EE027
:10180000FFF7DEF8009007E0FFF7DAF80099411AD9
:1018100041F28830814256D830688007F4D42FB125
:10182000DBF8001021F08051CBF80010A069C8B39C
:101830003949091D0968C1F3810102294AD00228EA
:10184000504607D0C8F8600000E03CE0FFF7B8F869
:1018500004463BE04746C8F86000FFF7B1F806468B
:1018600005E000BFFFF7ACF8801B02282BD82868E2
:101870008001F7D4D4E907010843A16A2A4A49083C
:1018800002EB0141626A41EA8211084394F82C108C
:1018900040EA0161C9F8001001203866FFF790F8AE
:1018A000044606E036E000BFFFF78AF8001B022876
:1018B00009D828688001F7D52CE000BFFFF780F831
:1018C000001B022802D90320BDE8F88F2868800198
:1018D000F4D41FE00128F7D0D9F80000E26900F441
:1018E0008001914214D1226A00F03F0191420FD150
:1018F00047F6C071626A0140914209D1A26A00F4C0
:101900004031914204D1E16A00F07060884201D018
:101910000120D9E70020D7E7043802400000474201
:10192000800E4742007000400000FFFF70B50400C9
:1019300003D06079002510B105E0012070BD25714C
:10194000204600F00DF8022060712068016841F027
:101950000401016001206071A560002070BD0000DD
:1019600008B500680649884208D10648016841F078
:1019700040010160006800F04000009008BD0000D8
:10198000000806503438024070B515460E46040073
:1019900003D094F8490010B107E0012070BD002089
:1019A00084F84800204600F01AF804F10801206885
:1019B000FEF722FE3146A2682068FEF747FED4E912
:1019C00001022946236BFEF7F7FDA168206850F855
:1019D000212042F0010240F82120002070BDFEF7D6
:1019E000CFBE10B5401EB0F1807F01D3012010BDE5
:1019F0004FF0E02460610F21601702F0BBF9002076
:101A0000A06107202061002010BD000070B590F893
:101A10003C20012A32D0012480F83C40022280F888
:101A20003D2003685A689D6822F070060A683243B8
:101A30005A60134B02689A4214D0B2F1804F11D011
:101A4000104B9A420ED0104B9A420BD00F4B9A4239
:101A500008D00F4B9A4205D00E4B9A4202D00E4B43
:101A60009A4204D1496825F080031943916080F8B7
:101A70003D40002180F83C10084670BD022070BD3A
:101A8000000001400004004000080040000C00403D
:101A900000040140004001400018004010B504005F
:101AA00003D094F83D0010B107E0012010BD0020E4
:101AB00084F83C00204600F00DF8022084F83D0038
:101AC000211D206800F048FC012084F83D00002022
:101AD00010BD000008B50F4A01680F48914207D1B8
:101AE000016841F002010160006800F0020009E0B5
:101AF0000A4A914208D1016841F00401016000687E
:101B000000F00400009008BD05488142FBD1024866
:101B1000001DE5E700040040403802400008004096
:101B20000004014070B5044690F83C00012817D02D
:101B3000012584F83C50022084F83D00206882682A
:101B400022F0770222F47F4282600868502830D069
:101B50000DDC20284DD005DC98B310283BD148E09F
:101B6000022070BD302844D0402834D139E06028AC
:101B700028D0702806D0B0F5805F2CD0B0F5005F7B
:101B800029D10AE0CB68D1E90121206800F055FC99
:101B90002068816841F0770109E0CB68D1E9012133
:101BA000206800F04AFC2068816841F4804181602F
:101BB00011E0CA684968206800F014FD50212068CF
:101BC00007E016E0CA684968206800F01CFD602143
:101BD000206800F03CFC84F83D50002084F83C0074
:101BE00070BDCA684968206800F0FCFC402120688C
:101BF000EFE7226801461046EBE7000010B586B01B
:101C0000044614216846FEF733FB0D4920688842DC
:101C100014D10C480021026842F001020260006801
:101C200000F001000590402000900220CDE9010164
:101C3000CDE9031069460448FEF7DCFD06B010BD8F
:101C400000040040303802400000024070B50446F5
:101C500090F83C000D4601280DD0012684F83C6028
:101C6000022084F83D0042B1042A18D0082A2AD064
:101C70000C2A4DD139E0022070BD206800F0F0FB45
:101C80002068816941F0080181612068816921F043
:101C900004018161206881692A69114311E020688B
:101CA00000F00EFC2068816941F4006181612068C8
:101CB000816921F480618161206881692A6941EA32
:101CC0000221816124E0206800F030FC2068C169B5
:101CD00041F00801C1612068C16921F00401C161BE
:101CE0002068C1692A69114311E0206800F052FCA4
:101CF0002068C16941F40061C1612068C16921F4B3
:101D00008061C1612068C1692A6941EA0221C1611B
:101D100084F83D60002084F83C0070BD10B50400DC
:101D200003D094F83D0010B107E0012010BD002061
:101D300084F83C00204600F00CF8022084F83D00B6
:101D4000211D206800F008FB012084F83D000020E0
:101D500010BD704710B504460068012200F060FB1A
:101D60000B492068884202D00A49884203D1416C5D
:101D700041F4004141642068816801F007010629AF
:101D800003D0016841F001010160002010BD000096
:101D90000000014000040140FEE70000F0B5002310
:101DA0000A24302537261F4611E000BFB4EB107F10
:101DB00002D905EB107C01E006EB107C01F813C0A2
:101DC00001EB430C00015B1C8CF80170DBB2934209
:101DD000ECD3F0BD1CB50024104900940E480194CA
:101DE00008600846FEF775FC08B1FEF7E2FB0094B8
:101DF0000022694609480194FEF74AFC08B1FEF743
:101E0000D8FB102269460548FEF742FC002801D0A5
:101E1000FEF7CFFB1CBD00000074004054050020FD
:101E20002DE9F04186B014216846FEF721FA3748C3
:101E30000024016841F080010160016801F0800127
:101E40000591016841F004010160016801F004019D
:101E50000591016841F001010160016801F0010193
:101E60000591016841F002010160016801F0020181
:101E70000591016841F010010160016801F0100155
:101E80000591016841F0080101600068204F00F0F1
:101E900008000590002280213846FEF78CFDDFF80F
:101EA0007480002220214046FEF785FD0F26022582
:101EB000009669464046CDE90145FEF79BFC009639
:101EC00069463846CDE90145FEF794FC8020009034
:101ED0000126CDE901650325694638460395FEF7DD
:101EE00089FC2020CDE9000669464046CDE902453F
:101EF000FEF780FC4FF6FF70CDE900046946064806
:101F00000294FEF777FC06B0BDE8F081303802405D
:101F1000000002400008024000040240074910B5DA
:101F2000054808600846FFF701FD002803D0BDE81A
:101F30001040FEF73EBB10BD00080650B80500205B
:101F400030B58DB000240794089409940A940B943A
:101F50001C2168460C94FEF78BF9234D2148C5E9F6
:101F6000000441F28730C5E902402C612846AC618B
:101F7000FFF794FD08B1FEF71CFB4FF4805007906B
:101F800007A91948FFF7CEFD08B1FEF712FB164866
:101F9000FFF7C4FE08B1FEF70CFB0B940BA9124827
:101FA0000C94FFF733FD08B1FEF703FB60200090AF
:101FB0004FF42F6001900220029004200490002230
:101FC00069460948FFF742FE08B1FEF7F2FA2868B1
:101FD000816921F0080181610348FFF70FFE0DB010
:101FE00030BD000000040040C805002010B586B0D8
:101FF0000024164800940194029403940494124916
:102000000594C0E900144FF6FF71C0E90241046174
:102010008461FFF743FD08B1FEF7CBFA4FF480501F
:10202000009069460948FFF77DFD08B1FEF7C1FA47
:10203000049404A905480594FFF7E8FC002801D0A2
:10204000FEF7B7FA06B010BD0008004008060020F1
:1020500010B586B0002417480094019402940394AC
:10206000049413490594C0E900144FF6FF71C0E9C8
:102070000241046144618461FFF710FD08B1FEF77D
:1020800098FA4FF48050009069460A48FFF74AFDDD
:1020900008B1FEF78EFA049404A906480594FFF7E8
:1020A000B5FC002801D0FEF784FA06B010BD000090
:1020B000000401404806002010B500220F491048D6
:1020C00000F087FD08B1FEF774FA0E490C4800F0E5
:1020D00059FF08B1FEF76DFA0B49094800F09FFB64
:1020E00008B1FEF766FA064800F0C6FF002803D0E4
:1020F000BDE81040FEF75DBA10BD0000C40300202B
:10210000E48501200405002014040020FEE7FEE71A
:102110000148FEF743BE0000B49A01202DE9F041CA
:1021200003680D4604461E6C03EB4511D1F8080BFD
:10213000D4F810E04FF400474FF0200C04F5717212
:10214000BEF1010F09D0DFF898E0764539D10204DD
:1021500032D500BFC1F8087B3FE0224B5FEA007E2A
:1021600004D59E4239D90004F4D436E05FEA806E8B
:1021700002D5C1F808CB30E010F0280F2DD19E42D7
:1021800001D90004E6D4C5EBC50004EB8000D1F80A
:10219000101BD0F80432C1F31201591AC0F81412FE
:1021A000D0F808121944C0F8081295B9D4F81002F2
:1021B00078B9012120680AE080060AD5C1F808CB69
:1021C00007E035B9D4F8100218B90021184601F01B
:1021D00021FBE9B22046FEF7C7FC0020BDE8F081F4
:1021E0000A31544F0A30544F2DE9F84F0E46C1EBD7
:1021F000C60100EB810481460568D4E914103C3423
:10220000884202D90120BDE8F88F081AA1688142EE
:1022100000D20846C01C870805EB46181BE000BF2B
:10222000A0EB010AA068504500D282460AF10300E3
:10223000870899F8100000901FFA8AF3F2B2284636
:10224000E16801F06FFDE16801EB0A00E060A1695F
:1022500001EB0A00A061D8F8180980B2B84205D392
:10226000D4E90501814201D20028D9D1D4E9050180
:10227000884208D806F00F0101208840D5F83418AC
:102280008143C5F834180020BDE7704770470178D6
:10229000407841EA0020704710B5FEF797FBBDE893
:1022A0001040012025F0AAB930B593B0302168461E
:1022B000FDF7DEFF14210CA8FDF7DAFF1D4800250D
:1022C000016841F080510160006800F08050119079
:1022D0001948016841F4804101600068022400F45B
:1022E0008040119001200090000401908001CDE910
:1022F000064006200890A820CDE9090407200B908D
:102300006846FFF765F908B172B6FEE70CA90F2021
:1023100081E831004FF4A0500F904FF4805010909E
:1023200005210CA8FFF782F8002801D072B6FEE75D
:1023300013B030BD403802400070004005480168CD
:1023400041F47001016003494FF00060803908607A
:102350007047000088ED00E0F0B50268254C264D7E
:10236000264E274F274B4FF0804CA04209D06045A6
:1023700007D0A84205D0B04203D0B84201D098425D
:1023800004D122F0700E4A6842EA0E02A0421BD02D
:10239000604519D0A84217D0B04215D0B84213D02A
:1023A000984211D0184DA8420ED0184DA8420BD01B
:1023B000174DA84208D0174DA84205D0164DA84287
:1023C00002D0164DA84203D122F44075CA682A43B0
:1023D0004D6922F080022A4302608A68C2620A685C
:1023E0008262A04201D0984201D1096901630121B2
:1023F0004161F0BD000001400004004000080040C1
:10240000000C004000040140004001400044014035
:102410000048014000180040001C0040002000401F
:1024200010B501F01F030121046A99408C43046236
:10243000016A9A401143016210BD10B5846842EAF6
:10244000032224F47F440A432243826010BD826841
:1024500022F070020A4342F00701816070470000D9
:10246000F0B5026A22F001020262036A42688469DE
:10247000124E24F073050C682C4323F002058B6880
:102480002B430D4DA84201D0B04205D123F00807DF
:10249000CB683B4323F00403A84201D0B04205D1EE
:1024A0004D6922F4407215438A692A43426084616F
:1024B000496841630362F0BD00000140000401402F
:1024C000F0B5026A22F010020262026A436884696F
:1024D0000D6824F4E64444EA05248D6822F02002C5
:1024E00042EA05120F4D104EA84201D0B04206D16B
:1024F000CF6822F0800242EA071222F04002A8428E
:1025000001D0B04207D14D6923F4406343EA85030B
:102510008D6943EA8503436084614968816302628F
:10252000F0BD00000000014000040140F0B5026A67
:1025300022F480720262026A4368C46922F4007263
:1025400024F073050C68124E2C438D6842EA052274
:102550000E4DA84201D0B04206D1CF6822F40062ED
:1025600042EA072222F48062A84201D0B04207D199
:102570004D6923F4405343EA05138D6943EA05137B
:102580004360C4614968C1630262F0BD000001405C
:102590000004014030B5026A22F480520262046AEB
:1025A0004268C3690D6823F4E64343EA05238D6856
:1025B00024F4005444EA0534084DA84202D0084DE2
:1025C000A84204D14D6922F4804242EA8512426059
:1025D000C36149680164046230BD0000000001402D
:1025E0000004014010B5036A046A24F00104046287
:1025F000846924F0F00444EA021423F00A020A4336
:102600008461026210BD10B5036A23F010030362F7
:102610008369046A23F4704343EA023224F0A0037E
:1026200043EA01118261016210BD2DE9F0410C46BF
:10263000D0F8C432D0F8BC12F9B104EB840200EB3C
:102640008202002695694DB1C4EBC40703EB8703F2
:102650005B6CB5FBF3F703FB175383B1C1F814624E
:10266000D0F8C002D1F8085222460369284601F585
:10267000047198470020BDE8F0810320FBE70023A8
:1026800096611A46214600F05EFCF3E770B5D0F87B
:10269000BC4205466CB100F062FBC4F80C02D5F8F0
:1026A000C012D4F80402CA6804F5037190470020F0
:1026B00070BD032070BD70B504460026812100F076
:1026C000ABFA002525870121204600F0A5FAA4F8E1
:1026D00078518221204600F09FFAA4F84C50A4F8CB
:1026E0004E50D4F8BC0248B1D4F8C00204F52F749F
:1026F0004068804720680EF045FD2560304670BD7B
:1027000010B5D0E9AF4159B194F80002FF2807D0C5
:102710008B6894F8012221469847FF2084F8000234
:10272000002010BD0A210180004870472C040020C1
:1027300043210180004870477C0400204321018030
:10274000004870473804002043210180004870474A
:10275000C00400202DE9F04704464FF4077025F02F
:102760001DFD05004FF0000735D0C4F8BC52207C99
:102770004FF010084FF40079012680B34023022265
:102780008121204600F034FB2687402302220121CC
:10279000204600F02DFBA4F87861A4F84E800823B1
:1027A00003228221204600F023FBA4F84C60D4F8D9
:1027B000C00200688047C5F81472C5F81872207C02
:1027C000D5F80422A8B140230121204600F01CFBCB
:1027D0000020BDE8F0870220C4F8BC72F9E7FFE7EB
:1027E0004B4602228121204600F002FB26874B4601
:1027F000CCE74B46E8E710B5D0F8BC1251B1027CEB
:10280000002AD1F8042207D04023012100F0FCFA6D
:10281000002010BD032010BD4FF40073F5E719B17F
:10282000C0F8C0120020704703207047D0F8BC02E7
:10283000C0F8041200207047D0F8BC02C0F8102283
:10284000C0F80812002070472DE9FC410546D0F879
:10285000BC7200208DF80000ADF804000646087830
:102860000C4610F0600121D020293DD1E288AAB1A8
:102870000006607807D5D5F8C0128B6839469847AE
:10288000E288394628E087F80002A07987F801023B
:10289000E2883946284600F052F82AE0D5F8C012FE
:1028A000607800228B682146984722E0607830B13A
:1028B00001281ED00A2809D00B2815D110E095F860
:1028C0009C02032810D1022201A905E095F89C0280
:1028D000032809D101226946284600F04AF808E099
:1028E00095F89C02032804D02146284600F01CF8E5
:1028F00003263046BDE8FC8110B5D0F8B8220AB1F5
:1029000052689047002010BD134610B50A460021BA
:1029100000F07AFA002010BD134610B50A460021D7
:1029200000F011FB002010BD10B50446802100F01E
:10293000EFFA2046BDE81040002100F0E9BA10B5DA
:102940000323C0F85821C0F89432C0F85C21134624
:102950000A46002100F058FA002010BD10B50521EC
:102960000023C0F894121A46194600F04DFA0020D0
:1029700010BD10B502238261C0F89432C2611346C3
:102980000A46002100F0DFFA002010BD10B5042136
:102990000023C0F894121A46194600F0D4FA002019
:1029A00010BD000010B50A46024903A000F0E1F88E
:1029B000004810BDB488012043444320436F6E6635
:1029C000696700001220088000487047E403002077
:1029D00010B50A46024903A000F0CBF8004810BD2C
:1029E000B488012043444320496E74657266616374
:1029F000650000000420088000487047E0030020C4
:102A000010B50A46024903A000F0B3F8004810BD13
:102A1000B488012053544D6963726F656C656374AB
:102A2000726F6E696373000010B50A46024903A015
:102A300000F09FF8004810BDB488012053544D3376
:102A400032205669727475616C20436F6D506F72DD
:102A50007400000010B51A2008800A480168001DA3
:102A60000468001D0068081809D008220649FFF70D
:102A700095F90549042210312046FFF78FF90248E5
:102A8000801E10BD107AFF1FFA030020F8B504461F
:102A90000020ADF8000048880D46010A08295FD2E1
:102AA000DFE801F05E0409175E5E3C45D4F8B4121D
:102AB000207C0A6819E0207C02260028D4F8B8029D
:102AC00005D0C16A684688470146467039E0816A88
:102AD000F8E7C0B2062843D2DFE800F0030A10147A
:102AE000181CD4F8B402426805E0694690471CE01F
:102AF000D4F8B402826892B3207CF6E7D4F8B4022A
:102B0000C268F8E7D4F8B4020269F4E7D4F8B40272
:102B10004269F0E7D4F8B4028269ECE7207CF0B9AE
:102B2000D4F8B802416B68468847014609E0207C2A
:102B3000A8B9D4F8B802016B684688470146072057
:102B40004870EA888AB1BDF8000040B1824200D9DD
:102B50000246ADF800202046FFF70BFFF8BDFFE767
:102B600029462046FFF7E0FEF8E72046FFF70EFF74
:102B7000F4E770B5002300281ED00025044602E0CB
:102B80006D1CEDB2641C2678002EF9D1022404EBF2
:102B9000450414801278CA545B1C0322CA540024D2
:102BA0005B1C06E0CA545B1CDAB28C54521CD3B2D4
:102BB000401C0278002AF5D170BD01004FF00000E2
:102BC00004D0012901D0022901D00320704701203F
:102BD000704730B4A0B1D0F8B84200230CB1C0F8AF
:102BE000B832D0F8CC420CB1C0F8CC3209B1C0F840
:102BF000B412012180F89C12027030BC00F0B4B80D
:102C000030BC0320704710B5D0F8C402FDF7E0FFD8
:102C1000BDE81040FFF7D1BF10B5D0F8C402FDF7F2
:102C2000B1FFBDE81040FFF7C8BF70B516460446B7
:102C300049B1D4F8B80242691AB194F89C02032849
:102C400042D0032070BDD4F89412002504F1140082
:102C5000022932D1D0E902318B4206D95A1A826058
:102C600031462046FFF758FE0FE0994214D14068E4
:102C7000884211D3D4F8981288420DD2002211460E
:102C80002046FFF749FEC4F8985200231A46194619
:102C9000204600F0B9F810E0D4F8B802C16829B1B4
:102CA00094F89C02032801D12046884780212046C1
:102CB00000F02EF92046FFF751FE94F8A0020128FB
:102CC00006D184F8A05203E0204690470028B9D1ED
:102CD000002070BD10B51346044649B1D4F8B802BF
:102CE00082691AB194F89C02032824D0032010BDF5
:102CF000D4F8941204F5AA70032920D1D0E9021265
:102D000091420AD98A1A8260C068824200D3024680
:102D100019462046FFF7F8FD11E0D4F8B802016922
:102D200029B194F89C02032801D120468847204607
:102D3000FFF72CFE03E0204690470028D7D1002063
:102D400010BD0020704710B5012180F89C12D0F80A
:102D5000B82212B1526801799047002010BDD0F816
:102D6000C402FDF763BF000010B5017839BB1549F7
:102D70000222C1F80404C0F8C4124FF0A040086059
:102D8000042048600020C1E90320C1E90620086250
:102D90004862C86208630846FEF722FA08B1FDF7E8
:102DA00008FC80210748FDF7ACFE402200210548C1
:102DB000FDF7ABFE802201210248FDF7A6FE0020B0
:102DC00010BD0000B49A01200A0601F07F01D0F87E
:102DD000C402C1EBC10100EB810002D590F83E00B6
:102DE000704790F8FE017047002070470020704740
:102DF00010B51C461346D0F8C4022246FDF71FFF4B
:102E0000BDE81040FFF7D9BE10B5D0F8C402FDF7F9
:102E100046FFBDE81040FFF7D0BE70B5012504465F
:102E200080F89C520020C4F894026060C4F8A402A8
:102E3000D4F8BC0228B1D4F8B80200214268204678
:102E400090470022402311462046FFF7D1FF40263D
:102E5000A4F864513346002280212046C4F8606102
:102E6000FFF7C6FFA5840020266270BD90F89C1273
:102E7000042903D190F89D1280F89C12002070471D
:102E800010B590F89C12032904D1D0F8B812C96982
:102E900001B18847002010BD01740020704710B5B3
:102EA000D0F8C402FEF76EFABDE81040FFF785BE09
:102EB00070B5044600F2AA20054600F04DF8012046
:102EC000C4F89402B4F8B002C4F8980294F8AA02C4
:102ED00010F01F010AD001290ED0022912D000F0F3
:102EE00080012046BDE8704000F012B82946204617
:102EF000BDE8704000F0C2B829462046BDE87040E9
:102F000000F0ECB929462046BDE8704000F040B919
:102F100010B5D0F8C402FDF7E6FEBDE81040FFF79B
:102F20004CBE10B5D0F8C402FEF747FABDE8104019
:102F3000FFF743BE90F89C1280F89D12042180F8A0
:102F40009C120020704710B5D0F8C402FDF705FFB1
:102F5000BDE81040FFF731BE70B5054611F8010B12
:102F60002870087868704C1C2046FFF790F968803C
:102F7000A41C2046FFF78BF9A880A01CFFF787F957
:102F8000E88070BD38B504460020ADF8000041B1BE
:102F9000C4F8B812896A68468847C4F8CC02002091
:102FA00038BD032038BD02460320D2F8B832002BCA
:102FB00002D01B6810461847704700002DE9F04109
:102FC0000F462C4E8978002504463170012906D918
:102FD00039462046FFF7A8FC0320BDE8F08194F8AD
:102FE0009C0202280CD003281DD039462046FFF74A
:102FF0009BFC31782046FFF77FFC03252846ECE751
:1030000099B320466160FFF7CEFF050004D0394632
:103010002046FFF789FCF1E72046FFF7B7FC0320C5
:1030200084F89C02EAE74FF00208C1B16068884268
:103030001BD0C1B22046FFF75FFC317820466160AB
:10304000FFF7B1FF050010D039462046FFF76CFCB2
:1030500021792046FFF750FC84F89C82CEE784F863
:103060009C8220466160FFF747FC2046FFF78EFCFC
:10307000C4E7000028040020FFF753BF2DE9F0410A
:103080000A78002512F0600208D0202A01D0402AD8
:1030900071D1D0F8B8229268904731E04B78002285
:1030A00001260A2B67D2DFE803F0415E6658660806
:1030B00005662D29FFF7EAFC5FE004468888D8B949
:1030C000C888C8B94888802816D200F07F0794F8CD
:1030D0009C02032810D084F89E7239462046FFF7E0
:1030E000DEFE2046FFF752FC1FB1022084F89C024E
:1030F00043E084F89C6240E020463CE0FFF75EFF3E
:1031000005463AE0CB88012B35D190F89C32012B53
:1031100004D0022B02D0032B2DD104E082600122C7
:1031200000F1080116E00122011D13E090F89C2235
:10313000012A03D0022A01D0032A1CD1CA88022AFC
:1031400019D1C660D0F8A41209B10321C1600222CE
:1031500000F10C01FFF70DFC0FE0498801290CD1AB
:10316000C0F8A46211E090F89C32012B08D0022B29
:1031700006D0032B04D0FFF7D7FB2846BDE8F0812B
:1031800049880129F9D1C0F8A422FFF7FFFBF4E731
:103190002DE9F0410D46044628780027097910F002
:1031A00060000BD0202801D0402873D1D4F8B80299
:1031B000294682682046904707468CE06878D8B355
:1031C000012822D0032865D194F89C02022802D05D
:1031D00003287CD10BE0002979D0802977D02046C4
:1031E000FFF796FE80212046FFF792FE73E0688885
:1031F00038B931B1802904D0E88810B92046FFF7EA
:1032000087FE2046FFF7C2FB65E094F89C02022887
:10321000E1D003285BD16888D8BB480602D020469D
:10322000FFF7F1FC2046FFF7B1FBD4F8B8022946BE
:103230008268204690474EE0FFE794F89C02002603
:10324000022802D0032842D111E009B180293ED1E1
:10325000080601F07F0000EB800004EB800101D53F
:10326000143101E001F5AA7102220E602BE008067C
:1032700001F00F0000EB800004EB80000BD5808C88
:1032800040B101F07F0000EB800004EB80051435B5
:103290000CE020E01BE0B0F86401C0B101F07F0059
:1032A00000EB800004EB800505F5AA7541B180298B
:1032B00006D02046FFF788FD10B10120286000E00D
:1032C0002E60022229462046FFF753FB03E02946E1
:1032D0002046FFF729FB3846BDE8F08170B5064669
:1032E000087800240D4610F0600003D0202801D09B
:1032F000402817D196F89C02012803D0022801D05B
:1033000003280FD1287901280CD8D6F8B802826892
:10331000304690470446E888204306D13046FFF700
:1033200035FB02E03046FFF7FFFA204670BD000093
:1033300070B50A78012302F00F054E78AB401B4CA4
:10334000D0F81C58012E17D045EA0343C0F81C38AA
:1033500000EB4210D0F8002B12040BD4D0F8002B55
:103360000B89C978C3F30A031A4344EA81410A432B
:10337000C0F8002B002070BD9BB21D43C0F81C5844
:1033800000EB4210D0F800391B04F3D4D0F8003918
:103390000D89C978C5F30A0589042B4341EA825196
:1033A0000B432343C0F80039E4E70000008000101D
:1033B000D0F800196FF30A01C0F80019D0F804180A
:1033C00041F48071C0F804180020704770B50446BD
:1033D00006990A9E049D0D98012916D0E06840F0D8
:1033E0004000E060204600F02BF8A16B1EB321F4F2
:1033F0008031A163012D07D1A16841F00601A160D0
:10340000A16841F02001A16070BDA16B21F4803161
:10341000A163E168094A1140E160E16821F44011CB
:10342000E160012803D1E06840F48010E0602046AC
:1034300000F006F8DEE741F48031DAE7BFFFBDFFB8
:1034400001220C4902E0521C8A420BD80369002B6E
:10345000F9DA026942F001020261012204E0521C21
:103460008A4201D9032070470369DB07F7D10020A6
:1034700070470000400D030030B54C780A780123F6
:1034800000EB4212012C2CD0D2F8004B002C0BDAAE
:10349000D2F8004B44F00064C2F8004BD2F8004B65
:1034A00044F08044C2F8004BD0F83C580C7804F04B
:1034B0000F0403FA04F425EA0444C0F83C48D0F8A9
:1034C0001C48097801F00F018B4024EA0341C0F841
:1034D0001C18D2F8000B19490840C2F8000B002054
:1034E00030BDD2F80049002C0BDAD2F8004944F084
:1034F0000064C2F80049D2F8004944F08044C2F8A0
:103500000049D0F83C480D7805F00F0503FA05F5A1
:10351000ADB2AC43C0F83C48D0F81C48097801F083
:103520000F018B4099B28C43C0F81C48D2F80009B7
:1035300003490840C2F80009D1E700000078F3EF22
:10354000007833ECD0F8001E21F00301C0F8001E13
:10355000D0F8041821F00201C0F8041800207047C8
:10356000D0F8001E21F00301C0F8001ED0F80418A6
:1035700041F00201C0F80418002070472DE9F04F17
:1035800000250E460446DDF82CC0DDF824B0109F5F
:103590002846294604EB8002C2F80411401C0F287B
:1035A000F8D32046C7B1806B20F40012A263A06B51
:1035B00040F40022A26308468846C4F8000ED4F8FE
:1035C00000182046C4F80018BCF1010F16D0D0F83E
:1035D000001841F0030116E0D0F8040840F00202A0
:1035E000C4F80428A06B40F40012A263A06B20F47E
:1035F0000022A263A06B20F48022DBE7D0F8001841
:103600000BB141F00101C0F80018102100F090FA50
:1036100000B10125204600F07BFA00B101254046AB
:10362000C4F81088C4F81488C4F81C8800214FF02E
:1036300000694FF0904A4FF67F3314E004EB4112DB
:10364000D2F800C9BCF1000F06DA11B1C2F800A926
:1036500004E0C4F8009901E0C2F80009C2F81009BA
:10366000C2F80839491C8E42E8D8002115E000BF95
:1036700004EB4112D2F800CBBCF1000F06DA11B115
:10368000C2F800AB04E0C4F8009B01E0C2F8000BF4
:10369000C2F8100BC2F8083B491C8E42E8D8D4F897
:1036A000101821F48072C4F81028A0616FF08040D7
:1036B0006061BBF1000F03D1A06940F01000A06170
:1036C000A06909490843A0610C9818B1A06940F0AD
:1036D0000800A061012F03D1A06904490843A0613B
:1036E0002846BDE8F08F000000383C800400004010
:1036F000816821F0010181600020704770B50D786C
:103700004E78434CEBB200EB4313012E1FD0D3F89D
:10371000100B6FF31200C3F8100BD3F8100B2040FE
:10372000C3F8100B486908B188684861D3F8100BDA
:1037300040F40020C3F8100BD3F8100B8C68C4F3CE
:1037400012042043C3F8100B012A55D058E04E69EB
:10375000002ED3F8106932D06FF31206C3F8106947
:10376000D3F810692640C3F810694E698C68A642E8
:1037700000D94C61D3F8104944F40024C3F810492F
:10378000D3F810494E69C6F312063443C3F8104902
:10379000012A22D000EB4512D2F8003943F004434D
:1037A000C2F800394A6932B3D0F83428097801F0F8
:1037B0000F03012199400A43C0F8342826E026402F
:1037C000C3F81069D3F8104944F40024C3F8104931
:1037D000D3F810496FF31204D8E7096919B100EB67
:1037E0004512C2F8141900EB4510D0F8001941F049
:1037F0000441C0F8001909E0C86808B1C3F8140B07
:10380000D3F8000B40F00440C3F8000B002070BD5B
:10381000FFFF07E010B5036C134CA34203D9D0F8A7
:10382000003B002B1EDB0023C0F8103BD0F8103B00
:1038300043F40023C0F8103BD0F8103B43F01803CA
:10384000C0F8103BD0F8103B43F0C043C0F8103B29
:10385000012907D1C0F8142BD0F8001B41F08021BA
:10386000C0F8001B002010BD0A30544F4A780B7876
:10387000012A00EB43100BD0D0F8002B22F40012E9
:10388000C0F8002BC978032914D0022912D017E000
:10389000D0F8002922F40012C0F80029C9780329C1
:1038A00001D002290CD1D0F8001941F08051C0F8A4
:1038B000001905E0D0F8001B41F08051C0F8001B52
:1038C000002070470A784B78D1B200EB4110012BF1
:1038D00012D0D0F8001B002906DB2AB1D0F8001B5B
:1038E00021F08041C0F8001BD0F8001B41F400110A
:1038F000C0F8001B00207047D0F80019002906DB33
:103900002AB1D0F8001921F08041C0F80019D0F890
:10391000001941F40011C0F80019EBE7F8B50C7874
:103920004F78774DE3B26FF0604600EB4313012F01
:1039300026D0D3F8104B6FF31204C3F8104BD3F812
:10394000104B2C40C3F8104B4C69002C74D08D6880
:103950002C44641EB4FBF5F4D3F8105BA4B206EA61
:10396000C4463543C3F8105BD3F8105B8E686643DA
:10397000C6F312042543C3F8105B012A71D0A6E0F8
:103980004F691FB3D3F810796FF31207C3F810799A
:10399000D3F810792F40C3F810794F698D682F4400
:1039A0007F1EB7FBF5F506EAC545D3F81069354328
:1039B000C3F81059D3F810594E69C6F312063543AF
:1039C000C3F81059CD78012D10D01BE0D3F8106941
:1039D0002E40C3F81069D3F8105945F40025C3F8F8
:1039E0001059D3F810596FF3120509E0D3F81059A4
:1039F00025F0C045C3F81059D3F8105945F00055CB
:103A0000C3F81059012A18D000EB4413D3F8004929
:103A100044F00444C3F80049CC78012C2FD04A6903
:103A200062B3D0F83428097801F00F0301219940DE
:103A30000A43C0F8342860E036E00A691AB100EBA6
:103A40004413C3F81429C97801290FD1D0F80818F4
:103A5000C90500EB4411D1F8002903D442F000520B
:103A600002E030E042F08052C1F8002900EB44103F
:103A7000D0F8001941F00441C0F800193DE0D0F839
:103A80000848E405D3F8004902D444F0005401E0AA
:103A900044F08054C3F8004900928A8A93B20A78AD
:103AA000C96800F03FF928E0D3F8104B8D68C5F3E2
:103AB00012052C43C3F8104BD3F8104B44F40024E8
:103AC000C3F8104B59E7CA680AB1C3F8142BC97878
:103AD00001290CD1D0F80808C005D3F8000B02D496
:103AE00040F0005001E040F08050C3F8000BD3F8E4
:103AF000000B40F00440C3F8000B0020F8BD0000AC
:103B0000FFFF07E0816841F00101816000207047FC
:103B1000002110220261054A491C914201D903206B
:103B200070470369DB06F7D400207047400D03009F
:103B30000022202343EA811101610549521C8A4277
:103B400001D90320704703699B06F7D40020704712
:103B5000400D0300D0F8080810F0060004D0022839
:103B600003D0062801D00F2070470220704740691B
:103B700000F001007047D0F81818D0F81C08084071
:103B800080B27047D0F81818D0F81C080840000C14
:103B9000704710B5D0F81038D0F8342801F00F0471
:103BA00000EB4110E24002F00102D0F8080943EABC
:103BB000C212104010BD00EB4111D1F8081BD0F823
:103BC0001408084070474169806908407047D21C5A
:103BD00010B59308002200F5805002E00468521CE2
:103BE00010C19A42FAD3084610BD10B5C26822F03F
:103BF000C042C260012902D029B1012010BDC168B4
:103C000041F0005102E0C16841F08041C1603220C2
:103C1000FCF7A4FD002010BDD0F8002822F4FE62BD
:103C2000C0F80028D0F800284FF4FE6303EA011121
:103C30000A43C0F80028002070470000022A3ED145
:103C4000264A274B0A449A4201D20F2138E0254ADE
:103C5000254B0A449A4201D20E2131E0234A244BDB
:103C60000A449A4201D20D212AE0224A224B0A44F8
:103C70009A4201D20C2123E0204A214B0A449A4265
:103C800001D20B211CE01F4A1F4B0A449A4201D269
:103C90000A2115E01D4A1E4B0A449A420FD31D4AC1
:103CA0001D4B0A449A4201D2082109E01B4A1144E3
:103CB0001B4A914201D2072102E0062100E00921BE
:103CC000C26822F47052C260C2684FF4705303EAB3
:103CD00081210A43C260002070470000405327FF43
:103CE00000350C00401E1BFF40420F0000DC0BFFA4
:103CF000804F1200808CF9FE20D6130060B6E5FEDE
:103D000060E3160000D3CEFE40771B00C05BB3FE1D
:103D1000C091210000CA91FE20753800E05459FE80
:103D2000E09C410010B5029C64B9DB1C9C0800EBD0
:103D30000230002300F5805002E004C902605B1CE1
:103D4000A342FAD3002010BDFEE700000FB4084BD9
:103D500010B504A902AA039801F092FD044602A935
:103D6000002001F0BEFF204610BC5DF814FB0000EF
:103D7000E35C00080907090E002804DB00F1E020DD
:103D800080F80014704700F00F0000F1E02080F888
:103D9000141D704702E008C8121F08C1002AFAD19A
:103DA00070477047002001E001C1121F002AFBD1BB
:103DB000704770B5044600256FF02F0608E02068B4
:103DC000411C2160007805EB850106EB4101451897
:103DD0002068007800F004F80028F0D1284670BD73
:103DE0003038092801D801207047002070470000B2
:103DF00010B54021074801F081F800221E21064835
:103E000023F056FC054CA06003F09EF800202070C3
:103E100010BD000004080020F16F00089C01002084
:103E200070B5B1F90030B2F90040A34200DC23467E
:103E30000380B1F90250B2F90240A54200DD2C46E0
:103E40004480B1F90460B2F90450AE4200DA35465C
:103E50008580B1F90610B2F90620914200DB1146C7
:103E6000C1800120AB4201DC8C4200DD002070BD2E
:103E7000F8B50D460446B0F90000B1F90010164639
:103E8000884247DBB4F90210B5F90220914241DBC8
:103E9000B4F90410B5F9042091423BDCB4F90610E2
:103EA000B5F90620914235DC96B3ADF80000608884
:103EB000ADF8020032466946284600F099F800281D
:103EC00027D0A088ADF800006088ADF80200324627
:103ED0006946284600F08CF800281AD02088ADF8F2
:103EE0000000E088ADF8020032466946284600F03E
:103EF0007FF800280DD0A088ADF80000E088ADF86C
:103F0000020032466946284600F072F8002800D0C8
:103F10000120F8BD0020F8BDB0F90020B1F904304F
:103F20009A4213DCB0F90420B1F900309A420DDB5B
:103F3000B0F90220B1F906309A4207DCB0F9060068
:103F4000B1F90210884201DB012070470020704760
:103F5000F8B50D460446B0F90400B1F90010164654
:103F6000884243DBB4F90600B5F9021088423DDB14
:103F7000B4F90000B5F90410884237DCB4F9021036
:103F8000B5F90620914231DC76B3ADF800006088C7
:103F9000ADF8020032466946284600F029F818BB01
:103FA000A088ADF800006088ADF80200324669468E
:103FB000284600F01DF8B8B92088ADF80000E08868
:103FC000ADF8020032466946284600F011F858B9AB
:103FD000A088ADF80000E088ADF8020032466946DE
:103FE000284600F005F808B10020F8BD0120F8BD12
:103FF0002DE9FC4114460E46B1F90020B0F900103D
:1040000005468A423ADBB5F90400824236DCB6F94D
:104010000270B5F90220974230DBB5F906309F42B5
:104020002CDC002C75DD401A9A1A401C521C00B280
:1040300012B200EBD07002EBD272401052109042DC
:1040400000DB1046844200DD0446ADF800102888ED
:1040500000222044ADF804006888ADF802006888AA
:1040600031462044ADF806006846FFF7C1FF40B175
:10407000BDF804002044ADF804003FE00020BDE896
:10408000FC81E8880022001BADF80200E888ADF84A
:10409000060031466846FFF7ABFF28B1BDF80400C3
:1040A0002044ADF8040011E0A8880022001BADF800
:1040B0000000A888ADF8040031466846FFF798FF75
:1040C00050B1BDF80000001BADF80000BDF80200C3
:1040D000001BADF8020016E06888ADF802006888A1
:1040E00000222044ADF8060031466846FFF780FF05
:1040F00070B1BDF80000001BADF80000BDF806006F
:104100002044ADF806003146684620F0D5FCB6E7FD
:10411000FFE70120B3E710B5B1F90040B2F9003074
:104120009C4200DA23460380B1F90240B2F9023022
:104130009C4200DA23464380B1F90440B2F90430CE
:104140009C4200DD23468380B1F90610B2F90620B7
:10415000914200DC1146C18010BD0000FEB507464B
:1041600023F042FA0025354C0646009537B1F86831
:104170006060384623F06AFB606802E015F044FF97
:104180006060006920F02CFC6068406908B120F094
:1041900027FC6068C06920F023FC6068006A20F09A
:1041A0001FFC60680169E1B320F0EEFE20F06AFEBA
:1041B0006068B0F8501199B30168097C890715D57A
:1041C00015F080FF401E07B2606815F035FF401EF5
:1041D00003B20022114601A8009713F0F8FA6068B4
:1041E00001A90268926B516006F008F960684FF40B
:1041F000807130301BF0E8FF6068202100F5987076
:104200001BF0E2FF6068A0F85051304623F0E6F959
:10421000009060680068436A13B12268009998476B
:1042200000E007E01BF006FE00F036F8BDE8FE40B7
:1042300000F006B8A0F85051FEBD00004800002074
:1042400070B50A4D002400BFC4EBC40655F8260023
:1042500008B11BF063FE05EB86001C211BF0B4FFC8
:10426000641CE4B2042CEFD370BD0000E008002011
:10427000084949680AE04A68824202D00A688242D4
:1042800003D10A7E42F001020A7649690029F2D17F
:10429000704700001C000020704700000421014806
:1042A00000F02CBEF80700201C21014800F026BEBB
:1042B000100800202DE9FF5F0446DDE90E0613B962
:1042C000B0F5807F7ED0B6F900504FF0FF376D42D9
:1042D000454307EB25252DB22580B6F902C0CCF168
:1042E000000C0CFB00FC07EB2C273FB26780B6F9F3
:1042F00000C0A1EB0C0141434FF0020C0CEB21215B
:1043000009B2A180B6F90280A2EB080242430CEB8D
:10431000222000B2E080002B7ED04FF00A0A93FBEF
:10432000FAF5684200EB800003EB400705F1010954
:1043300028B223F0CBFB00900FFA89F023F0C6FBE4
:1043400083465A3528B223F0C1FB804609F15A0052
:1043500000B223F0BBFB0146009AC7F10A0000FB44
:1043600002F300FB08F00BFB073301FB070193FB93
:10437000FAF291FBFAF04FEA601AB4F90010B4F9BE
:1043800002000AFB01FCCDF80CC05511378805FB73
:1043900010C207EBA2220FFA82F905FB01F2BB461D
:1043A000029277880AFB002107EBA1210BB2B4F936
:1043B0000410BE460AFB01FC05FB10C20BEBA22257
:1043C00016B200E02FE005FB01F7CDE9007CB4F95F
:1043D0000680DDF80CC00AFB007005FB18C1DDF893
:1043E00004C0009F05FB18C5029A0AFB087C0AFB63
:1043F00008220BEBA1210EEBAC270EEBA02009B29B
:104400000EEBA2220BEBA5250FFA87FC00B212B22D
:104410002DB24F46494500E00EE000DA0F46B542A6
:1044200016DAA84615E000202080491E6080A18091
:10443000521EE280BDE8FF9F32882A4422807288A3
:104440003A44628032881144A180718808444FE068
:10445000B046474504DA4F46494506DA0F4604E0C0
:10446000B54201DA2F4600E0374627804F464945DE
:1044700000DD0F46B54201DDA84600E0B0464745E5
:1044800003DD4D46494505DC01E0B54201DD294625
:1044900000E03146A1809A4201DA154600E01D464F
:1044A000844501DA614600E001468D4205DA9A4210
:1044B00001DA114606E0194604E0844501DA614656
:1044C00000E0014661809A4201DD114600E0194694
:1044D000844501DD654600E00546A94205DD9A42B6
:1044E00001DD104604E0184602E0844500DD604628
:1044F000E0809FE72DE9FE4F0446D0F800B0B0F908
:104500000800E589081AB4F90A10511AD4E90932E9
:10451000B5F5807F38D0A589ADB3A66B7043451142
:104520004E437011266BE16A06FB05F701FB10771D
:10453000694306FB001003EBA72902EBA02080468D
:104540000612B4F904004FEA2927B8424EDD002FC5
:104550004CDBB4F90610B14248DD002E46DB94F87E
:1045600034104A0745D58A0704F1140322D400FB0E
:10457000067045004FF0020A0BEB05015246184643
:104580001BF0CCFD27E00DE0256BE66A05FB00F78C
:1045900006FB1177464305FB016003EBA70902EB1D
:1045A000A000CCE7A56B68434D4303EB601902EB19
:1045B0006510C4E700FB067000EB40054FF0030AEE
:1045C0000BEB0501022218461BF0A8FDE81C58441D
:1045D00010F8010CA07594F83400C0071FD04FF4F8
:1045E000FC60ADF80000A18A814218D10020BDE82E
:1045F000FE8F32B204F118002369CDE901020025D3
:1046000039B2AA468B4619F0B3F80090BDF8000005
:10461000A082DDE90102594619F042F8DAE7E07CB0
:1046200078B1A4F83C90A4F83E80A4F84070A4F8B7
:104630004260656484F848A02046BDE8FE4F00F063
:1046400002B80120D3E72DE9F04F044690F83C1062
:10465000D0F8009090F83E0087B04FF0FF367029F8
:1046600007DAB4F940203546012A00D5002580310B
:104670000DE0902916DDB4F94020B4F9043001258D
:10468000521C9A4200DB0025A1F27F114942C9B2B7
:104690008846702809DAB4F94210012900D50026AD
:1046A000803010E00025FF21F2E790280DDDB4F9FD
:1046B0004210B4F906200126491C914200DB002675
:1046C000A0F27F104042C7B201E00026FF276069D8
:1046D0000090A07D0590002083468246049094F8C7
:1046E0003400400744D594F84810606C11FB050174
:1046F0004944022201A81BF011FDA08894F848103B
:1047000010FB01F0616C022206FB0011494403A872
:104710001BF004FDA18894F8480011FB00F1626CC5
:1047200006FB012210FB05901118022202A81BF0C3
:10473000F5FC94F83400800761D594F84800626C69
:1047400010FB052300EB09010B4413F8013C049313
:10475000A38813FB00F306FB0322114411F801BCEC
:1047600010FB0500111801EB090010F8010C45E0E1
:10477000B4F84000B4F94220284401B204F1180012
:104780008146236918F0F4FF0190B4F84200B4F9AF
:104790004010304402B254F8103F484618F0E8FF89
:1047A0000390608E2368304402B2208E284401B208
:1047B000484618F0DDFF029094F82400103C800772
:1047C0001DD5B4F9422034F8400F284401B24846C0
:1047D00018F066FF04906088B4F90010304402B20B
:1047E000484618F05DFF83466088304402B234F8D2
:1047F0004009284401B2484618F052FF824694F816
:10480000340042464546800735D5059810FB08F32D
:104810000499C8F1FF0011FB0031C1F307211BFB14
:1048200008F61AFB0060C0F3072011FB07F3C7F17D
:10483000FF0610FB06331B0AA375022907D80228BE
:1048400003D8002007B0BDE8F08F002702E002285F
:1048500000D8FF270598022800D8002204980228D3
:1048600000D8FF22BBF1020F00D80025BAF1020FD9
:1048700003D8FF2501E0FF20A075EAB1FF2A04D08C
:10488000DDE9000114F08CFE0090BDB1FF2D17D0C2
:10489000DDE902102A4614F083FE049097B1FF2F41
:1048A00005D001463A46009814F07AFE0090BDF813
:1048B0000000A0820120C5E70198E5E70298ECE737
:1048C0000398EAE7BDF81000F3E700002DE9F04790
:1048D0000446B0F908000A2700026062B4F90A0031
:1048E0000002A062B4F90C1091FBF7F5684200EBEE
:1048F000800001EB4006684205F1010800B223F098
:10490000E5F88246E84300B223F0E0F88146C5F1BD
:104910005A0000B223F0DAF80546C8F15A0000B296
:1049200023F0D4F8C6F10A0101FB0AF3024609FBA1
:104930000630694390FBF7F002FB061191FBF7F19B
:104940004011E06248112063A07C18F0BEFF94F88B
:10495000341060F3000184F83410A07C18F0A5FF37
:1049600094F8341060F3410184F83410A07C0428DA
:1049700024D0052822D0062820D021F0040100BF31
:1049800084F8341021682162A16921F0E00160F30C
:104990000401A08860F39421E08860F35F51A16175
:1049A000E0894FF4001101EB5001B1FBF0F0A0637E
:1049B000FF20A075208AA082BDE8F08741F00401A5
:1049C000DEE700002DE9F04115460E460746114C82
:1049D00022F00AFE80462B4632463946204619F020
:1049E000F5FA20B10020A062E06950B110E02C215E
:1049F00020461BF0E9FB4FF00040A0620020BDE81C
:104A0000F081404622F0EAFDE06108B90120E06152
:104A10002046F4E73408002010B51421074800F0C0
:104A20006DFA19F099FA40B10549016005494160F4
:104A3000054981600549C16010BDFEE71C080020E2
:104A400085D9010801DD010879DE010851D9010885
:104A500070B50D460446102128461BF0B5FB2068B2
:104A60000078012804D0022807D0042807D008E0E5
:104A7000208A2880608A688003E0E06800E00A20DD
:104A8000686020684268002A03D02946BDE870406B
:104A9000104770BDFEB5866A0446BEB9A08A218A59
:104AA0000844A082E08A618A0844E08220460BF034
:104AB00078FE060079D020460EF0F2F80022092197
:104AC000304618F02FF9607880076ED4208A10B92C
:104AD000608A002869D00025ADF80450ADF8085070
:104AE00094F83C0000F00F000328304616D01DF06B
:104AF00019FA074630461DF0CFF803460C20009007
:104B0000B4F912103A4630460BF002FAADF808003C
:104B100030461DF013F9C10712D017E01DF096F9C9
:104B2000074630461DF032F9024603200090B4F9E2
:104B300010103B4630460BF0EBF9ADF80400E7E708
:104B4000BDF90410002901DDADF80450810705D43A
:104B5000BDF90410002901DAADF80450410705D46D
:104B6000BDF90810002901DDADF80850000705D493
:104B7000BDF90800002801DAADF8085002AA01A921
:104B8000204625F05AFC0023BDF90820BDF9041089
:104B900030461FF0CDF9A08ABDF804100844A08269
:104BA000E08ABDF808100844E082FEBD2DE9FC5FF4
:104BB0000446806A5FEA000B71D094F83C0000075D
:104BC0006DD019F0BDFC019000684021457E58462B
:104BD0001EF052F94FF0000818B9A4F81A80A4F892
:104BE000188058461DF090F9824658461DF093F9FA
:104BF000064694F83C004FF0640900F00F000C28C2
:104C000002D003284CD09AE0A4F8188056B1B4F929
:104C10001A50002719F094FC00684946407EC0F104
:104C2000640022E0608BC5F1640110FB01F191FB8F
:104C3000F9F0608358461DF02FF8054658461DF0E0
:104C400071F902460C200090B4F91A102B46584610
:104C50000BF05EF96083024600231EE07A1917B25A
:104C600010FB05F292FBF1F215B2002DF6D1ADF872
:104C70000070A4F81A806A460021204625F0DDFB6A
:104C800041F6FF72BDF90030514258460BF0EEFE7E
:104C9000BDF800100123084402B200214CE09AE064
:104CA000A4F81A80BAF1000F0AD0B4F918500027FE
:104CB00019F046FC00684946407EC0F1640022E0DD
:104CC000208BC5F1640110FB01F191FBF9F0208309
:104CD00058461DF05BF8054658461DF0B7F80346E8
:104CE00003200090B4F918102A4658460BF010F92A
:104CF0002083014600231EE07A1917B210FB05F24B
:104D000092FBF1F215B2002DF6D1ADF80070A4F8C7
:104D1000188000226946204625F08FFB41F6FF727D
:104D2000BDF90030514258460BF018FEBDF8001096
:104D30000123084401B2002258461FF0F9F8208BE5
:104D4000002848D1608B002845D1C6B958461DF0CF
:104D5000E9F8054658461CF09FFF002D06DC0028A8
:104D60000DDD002D02DA01232A4604E0002806DAD0
:104D70000123404202B2002158461FF0D9F8BAF18F
:104D8000000F19D158461DF001F8054658461DF090
:104D90005DF8002D07DC00280EDD002D03DA01236D
:104DA0000022294605E0002806DA012300224042BD
:104DB00001B258461FF0BCF80A215846019A17F074
:104DC000B1FF6078800706D414F83C0F20F00F0084
:104DD000207044F8148CBDE8FC9F00007FB50E469F
:104DE000040003D115F010F9040023D00025FEB112
:104DF000ADF80050ADF8025015F01EF9401EADF8A8
:104E00000400204615F05EF9401EADF806006A4623
:104E1000314602A8FFF704F800280BD02068017C77
:104E2000890708D5DDE90001C4E90C0101202AE069
:104E3000A0F850517FBD82690AB102A990470026AF
:104E40000BE000BF04EBC601002202A83031FFF7DF
:104E50000FF80028EED1761CB6B2B4F85001B0427B
:104E6000F0D880B2202804D204EBC00002A9303070
:104E700004E0A4F8505104F13000694612F0F8FB48
:104E8000B4F85001401CA4F8500160680028D1D04B
:104E900022F0E8FC7FBD70B5054600F012F804462C
:104EA0000CE02146284600F01EF80646214628461A
:104EB00000F071F820461BF031F83446002CF0D198
:104EC00070BD002800D04068704700B5034600223E
:104ED000FFF7F7FF03E01846521C00F004F801004A
:104EE000F9D1104600BD0068091D405870470068A0
:104EF00040587047002800D0806870470022426008
:104F0000C91C21F0030182600160704770B504463E
:104F1000006808301AF078FF050013D0014600221F
:104F2000204623F0C7FE29462046626823F0BCFED7
:104F3000616819B12A46204623F0BCFE6560A0686E
:104F400000B9A560284670BD70B5044600680830F9
:104F50001AF05AFF050013D001460022204623F024
:104F6000A3FE29462046A26823F0A4FEA16819B139
:104F70002A46204623F098FEA560606800B9656067
:104F8000284670BD28B1416809B9806808B1002081
:104F900070470120704770B504000DD0FFF791FFF6
:104FA00000228842204608D1FFF79DFF6060011E65
:104FB00001D000221EE0A26070BDFFF79BFF884277
:104FC000206808440AD10168A16029B12046BDE8E3
:104FD0007040002223F068BE626070BD0568204604
:104FE000FFF781FF064602462946204623F05CFE75
:104FF0002A4631462046BDE8704023F05BBE10B51E
:105000000446006882680AB121469047206800681B
:10501000002801D02060F5E710BD8068002801D08D
:10502000B0F91600704700002DE9F047074690B030
:10503000408C189E40F00400788490463A8499464B
:105040008A46328938461DF083FD0546A7F8209030
:105050003289514638461DF07BFD0446788CA542C6
:1050600020F00400788403D12904B1EB044F68D008
:10507000A7F820803289514638461DF069FD054663
:105080008046A7F82090514638460CF0E5FE31895D
:1050900000682A4621F006F93089602823D147F6B6
:1050A000FF794D4501D04C451DD138461DF09BFE82
:1050B00000EBD070451038461DF095FE00EBD07027
:1050C0004010C84506D1691C431C994200DA00E033
:1050D000194688464C4506D1691C421C914201DAAA
:1050E0006C1C00E014461948FFF710FF05002BD098
:1050F0002F60C5E903843089A8806846C5F808A0F8
:1051000011F0CEFD1248FF21CDE900501148029068
:105110001148039000200790CDE9080130880A90DB
:1051200070889DF83E1040420B90F0680690002079
:1051300060F300018DF83E1030690590684611F06B
:1051400023FE10B0BDE8F087FEE70000280800202D
:10515000E5D70208D9D9020835D902081421014837
:10516000FFF7CCBE280800202DE9FC5F0025924601
:105170008B4606462C46042743F60F0843F60E09D5
:1051800000E100BFF16807EBC400085882017DD43C
:1051900080B230EA0B0212D05FF0000230EA0A005F
:1051A0000FD00020824271D051F8340001AA41F69C
:1051B0001001009020F05CFE002868D103E001227D
:1051C000ECE70120EEE701AA41F61101009820F07A
:1051D0004FFE002873D101AA41F61201009820F079
:1051E00047FE00286BD101AA41F61301009820F078
:1051F0003FFE002863D101AA41F61501009820F076
:1052000037FE00285BD101AA41F61401009820F076
:105210002FFEE0BB01AA41F26901009820F028FEB0
:10522000A8BB01AA43F20C01009820F021FE70BB3C
:1052300001AA43F20D01009820F01AFE38BB01AA22
:1052400041F20101009820F013FE00BB01AA41F2D7
:105250000401009820F00CFEC8B901AA41F2020135
:10526000009820F005FE90B901AA41F203010098D0
:1052700020F0FEFD58B901AA41F20501009820F086
:10528000F7FD20B901AA41F2060101E079E016E03C
:10529000009820F0EDFD90B901AA41F2320100988A
:1052A00020F0E6FD58B901AA4146009820F0E0FD43
:1052B00028B901AA4946009820F0DAFD10B1032070
:1052C000BDE8FC9F01AA40F60A01009820F0D0FD3D
:1052D000F0BB01AA40F60B01009820F0C9FDB8BB55
:1052E00001AA4146009820F0C3FD88BB01AA4946A7
:1052F000009820F0BDFD58BB01AA40F63C01009883
:1053000020F0B6FD20BB01AA40F63D01009820F038
:10531000AFFDE8B901AA40F63A01009820F0A8FDD7
:10532000B0B901AA4FF40461009820F0A1FD78B94A
:1053300001AA40F64501009820F09AFD40B901AA63
:1053400040F64101009820F093FD08B901AA00E061
:1053500013E040F64201009820F08AFD68B901AAE6
:1053600040F64301009820F083FD30B901AA40F6D1
:105370004901009820F07CFD08B1022501E005B943
:105380000125641C708CC0F3C500A0423FF6FAAE44
:10539000284695E701484068704700004800002013
:1053A0007047C0F30410072800D907207047000099
:1053B00010B518210348FFF7A1FD0349012008702B
:1053C00010BD0000D4070020CC0100202DE9F041E1
:1053D00090460C46050015D0FAF755FF0A4F0646D1
:1053E0002146BA68284690470446BA6828194146BB
:1053F00090470146701A03E06218AA5C2A55641CA3
:10540000A042F9D2BDE8F081E00100202DE9F04191
:10541000094D90460E466A681C4607461946904755
:10542000306020B120686A68384400219047C8F88D
:105430000000BDE8F0810000E00100202DE9F04F00
:1054400087B08A46DDE910581F469346044600217E
:1054500005B129805CB12078002809D0BAF1000F8D
:1054600005D0002618F0060F15D0002004E000201B
:1054700007B0BDE8F08F401C215C0A2904D00D293B
:1054800002D00029F7D100E0401C002DF0D04FF0F1
:10549000FF312980ECE75FEA887001D541F6FF779C
:1054A000894608468DF81410049127E00498CDF839
:1054B000189068B34FF0000C05AA06ABCDF80CC0ED
:1054C000CDF80080CDE9013220443B465A46514692
:1054D00022F026FB06997A1A314417B20EB288B12F
:1054E00004990144049120780A280BD00D2809D092
:1054F000605C0A280FD00D280DD00846205C08B14A
:10550000002FD3DC049848B105B12E800498AFE792
:105510004FF0010CD0E7481C0490F3E7064A04A9B9
:10552000204652689047002DF0D001460022504698
:1055300017F0D3FC06B2E8E7E00100202DE9F041C6
:105540001746884606001ED0002F1CD0FAF79BFE97
:1055500004463846FAF797FE050014D00B4A2C444F
:105560004146926830469047411903E0621BB25CA5
:105570003255641EA142F9D930442A463946BDE865
:10558000F0411AF0E3BDBDE8F0810000E001002029
:1055900000230278232902D0012A0DD00FE02AB17E
:1055A0000021012A04D0022A04D008E0012101E0F0
:1055B000017004E0017001E0202902D001231846A7
:1055C00070470221F6E72DE9F0410E46804602467B
:1055D00000213346084622F0E9FC04460027401C1F
:1055E0001AF012FC050008D02F5533464246611CC4
:1055F00022F0DCFC2846BDE8F081FEE72DE9F0470B
:105600001E4614460D468246DDF8209015E000BF88
:105610004FEA540808FB0657394650464A46904719
:10562000002808DD44F30000C0EB540407EB060536
:10563000A4F1010401E005DA4446002CE8D120463B
:10564000BDE8F0873846FBE72DE9FC5F9B460CABD5
:105650008A468146DDE9116093E81210DDE90F57B3
:105660005FEA80784FF030031AD45EB15FEAC07809
:1056700008D000F00C0858EA0C0803D0761E01E0B0
:105680000B55641CBC4204D2202CF9D301E00B550D
:10569000641C5FEAC07803D0B44201D2202CF6D358
:1056A0005FEAC06825D55FEA40580AD44CB1BC42D5
:1056B00001D0B44205D1641E03D0102D03D1641E65
:1056C00004E0102D02D0022D0AD00EE0850603D48E
:1056D000202C1ED2782506E0202C1AD2582502E074
:1056E000202C16D262250D55641C202C11D20B558E
:1056F000641C202C0DD2BCF1000F01D02D2306E03C
:10570000430701D52B2302E0030702D520230B55C5
:10571000641CCDE900BAC846154681468B46AA46A8
:10572000800714D1274607E02A46DDE900316D1CC9
:105730002020C446E0477F1CB742F5D307E02A4645
:105740006D1C641EDDE900311BF80400C047002C0D
:10575000F5D15FEA897006D409E02A46DDE9003117
:105760006D1C2020C047A5EB0A00B042F5D32846A7
:10577000BDE8FC9F2DE9F04F8FB099468B46DDE9DF
:105780001818DDE91C63DDE91A47924686460022B7
:1057900009B923F01003580507AD00D5C9B1B1FB15
:1057A000F4F004FB1010C0B20A2801D2303009E036
:1057B0005FEA836C02D54FF0410C01E04FF0610CC1
:1057C00060440A38B1FBF4F1A854521C09B1202AF4
:1057D000E5D3CDF80880CDE90563CDE90052CDE9E8
:1057E00003474B46524659467046FFF72DFF0FB010
:1057F000BDE8F08F2DE9FF4F8FB01CACDDE923959C
:1058000094E8030820AC94E8C004002450EA0102A4
:1058100001D125F010056A050DF11C0802D550EAEA
:10582000010217D032463B46FAF7CAFCD2B20A2A26
:1058300001D2303206E0AB0601D5412300E06123FE
:105840001A440A3A08F80420641C50EA010201D004
:10585000202CE7D3CDE90084CDF808B0CDE905953B
:10586000CDE9036A0FAF97E80F00FFF7EDFE13B025
:10587000BDE8F08F9A4200D288547047704700000C
:105880002DE9FF4F8DB00F460546002606E025287E
:105890000BD0DDE90F1290476D1C761C287800288C
:1058A000F5D111B03046BDE8F08F0024A246A146E4
:1058B0000122EC4900E0044315F8013F203B02FAC5
:1058C00003F00842F7D128782A2810D06FF02F0271
:1058D0002878A0F13001092914D80AEB8A0102EBDB
:1058E000410144F0020400EB010A6D1CF0E701CF16
:1058F0005FEA000A03D544F40054CAF1000A44F0F8
:1059000002046D1C28782E2817D115F8010F44F0D9
:1059100004042A280ED06FF02F022878A0F130015D
:1059200009290AD809EB890102EB410100EB0109C1
:105930006D1CF2E757F8049B6D1C28786C280FD07B
:1059400006DC4C2817D068280DD06A2814D104E052
:10595000742810D07A280FD10DE044F400140AE026
:1059600044F4801401E044F440146978814202D187
:1059700004F580146D1C6D1C2A786E2A1FD00CDC77
:10598000632A31D004DC002A8BD0582A11D1A3E03D
:10599000642A68D0692A0CD165E0732A2ED004DC11
:1059A0006F2A73D0702A04D19BE0752A6FD0782AB1
:1059B0006ED01046DDE90F129047761C50E1C4F31B
:1059C0000250022806D0032809D0042801CF09D0AC
:1059D000066045E101CFF117C0E9006140E101CF68
:1059E00006803DE106703BE117F8040B8DF80000DE
:1059F00000208DF80100EB46012003E057F804BBBE
:105A00004FF0FF3061074FF0000102D40DE008F1C4
:105A10000101884649450FDA8045F8DB1BF808107C
:105A20000029F4D108E008F1010188468142FADB3F
:105A30001BF808100029F6D1DDE90F23AAEB0800B6
:105A40008146214600F036F9304400EB080604E0B8
:105A5000DDE90F121BF8010B9047B8F10108F7D2EE
:105A600021464846F7E00A21C4F302534FF0000BE9
:105A70000891022B04D001CFC117032B09D00AE0F3
:105A8000FF1D27F00707F7E8020108E032E01FE0FA
:105A900020E000B2C117042B01D140B2C117031E90
:105AA00071F1000307DA4FF0000CD0EB0C006CEB47
:105AB00001012D2302E0230504D52B238DF824308A
:105AC000012303E0E30701D02023F7E7984658E0DD
:105AD0000A2110E010210EE010204FF0000B08907A
