:020000040800F2
:10000000882100209D010008EF2500080523000835
:10001000ED250008410800088729000800000000BD
:10002000000000000000000000000000F5250008AE
:100030007314000800000000F3250008F7250008ED
:10004000B7010008B7010008B7010008B7010008B0
:10005000B7010008B7010008B7010008B7010008A0
:10006000B7010008B7010008B7010008B701000890
:10007000B7010008B7010008B7010008B701000880
:10008000B7010008B7010008B7010008B701000870
:10009000B7010008B7010008B7010008B701000860
:1000A000B7010008B7010008B7010008B701000850
:1000B000B7010008B7010008B7010008B701000840
:1000C000B7010008B7010008B7010008B701000830
:1000D000B7010008B7010008B7010008B701000820
:1000E000B7010008B7010008B7010008B701000810
:1000F000B7010008B7010008B7010008B701000800
:10010000B7010008B7010008B7010008B7010008EF
:10011000B7010008B7010008B7010008B7010008DF
:10012000B7010008B7010008B7010008B7010008CF
:10013000B7010008B7010008B7010008B7010008BF
:10014000B7010008B7010008B7010008F125000851
:10015000B7010008B7010008B7010008B70100089F
:10016000B7010008B7010008B7010008B70100088F
:10017000B7010008B7010008B7010008000000003F
:10018000B7010008B7010008DFF80CD000F0EEF965
:10019000004800475567000888210020064880472E
:1001A00006480047FEE7FEE7FEE7FEE7FEE7FEE75C
:1001B000FEE7FEE7FEE7FEE7992600088901000852
:1001C0002DE9F05F0546002092469B46884606468C
:1001D000814640241BE0284641464746224600F01F
:1001E00021F953465A46C01A914110D31146184678
:1001F000224600F008F92D1A67EB01084F46224607
:100200000120002100F0FFF817EB00094E41201EED
:10021000A4F10104DFDC484631462A464346BDE8E6
:10022000F09F40EA01039B0703D009E008C9121FB1
:1002300008C0042AFAD203E011F8013B00F8013BA0
:10024000521EF9D27047D2B201E000F8012B491ECC
:10025000FBD270470022F6E710B513460A46044663
:100260001946FFF7F0FF204610BD421C10F8011B95
:100270000029FBD1801A70472DE9FE4F81EA030463
:1002800004F0004421F0004100944FF0000B23F0F3
:10029000004350EA01045ED052EA03045BD0C3F38A
:1002A0000A54C1F30A552C44A4F2F3340194A0FB80
:1002B0000254C1F3130141F48011C3F3130343F457
:1002C000801301FB024400FB034E840A970A44EAB0
:1002D000815447EA8357A4FB076802958D0A05FB02
:1002E00007854FEA932C04FB0C542705029D4FEA27
:1002F000065847EA1637B5EB08056EEB070C870E74
:10030000920E47EA811742EA8312A7FB0201B6EB7D
:100310000B0164EB00042B0D43EA0C335E1844EB35
:100320001C50DA465146E7FB0201C5F313044FEABD
:100330000B3343EA14534FEA0432019C43EA0603A9
:10034000A4F10C040294009CCDE900B400F0C0F8C4
:1003500003B0BDE8F08F00200146F9E70EB540F28A
:10036000334102910021CDE900110A460B4600F00D
:10037000AFF803B000BDC1F30A5210B5C1F31301C9
:1003800040F2FF3341F480119A4201DA002010BD9F
:1003900040F233439A42A2F2334203DC524200F06D
:1003A00041F810BD904010BD00F0004230F0004018
:1003B0000AD0C10D01F56071C0F3160042EA015187
:1003C000C20840071143704700200146704701F002
:1003D000004330B421F0004150EA010206D00A0D7A
:1003E000A2F56072C1F31301002A02DC30BC0020C8
:1003F0007047440F44EAC104C100E01830BC00EB70
:10040000C25000F01FB8202A04DB203A00FA02F1A3
:10041000002070479140C2F1200320FA03F31943F2
:1004200090407047202A04DB203A21FA02F0002194
:10043000704721FA02F3D040C2F1200291400843F4
:10044000194670470029A8BF7047401C490008BFE3
:1004500020F00100704710B4B0FA80FC00FA0CF0F4
:1004600050EA010404BF10BC704749B1CCF120042C
:1004700021FA04F411FA0CF118BF012121430843B9
:10048000A3EB0C01CB1D4FEA00614FEA102042BFE5
:10049000002010BC704700EBC35010440029A4BFDB
:1004A00010BC7047401C490008BF20F0010010BC80
:1004B000704710B5141E73F1000408DA401C41F1B6
:1004C000000192185B411A4301D120F0010010BDD8
:1004D0002DE9F04D92469B4611B1B1FA81F202E04E
:1004E000B0FA80F220329046FFF78DFF04460F46A7
:1004F00040EA0A0041EA0B0153465A46084313D02A
:10050000114653EA010019D0C8F140025046FFF7E6
:1005100089FF05460E46504659464246FFF773FF8F
:10052000084305D0012004E020463946BDE8F08D9F
:100530000020054346EAE0762C4337430A986305DA
:10054000E40AA0EB08000022FD0A44EA47540A30FE
:1005500002D500200146E9E7010510196941DDE9EE
:10056000084500196941BDE8F04DA2E7064C074D6A
:1005700006E0E06840F0010394E807009847103473
:10058000AC42F6D3FFF704FEB8E40108D8E4010852
:100590002DE9FE4F804681EA0300C00F0C46009013
:1005A00021F0004123F00045B8EB0200A94105D23B
:1005B0004046214690461C460B46024623F000402A
:1005C000104347D0270DC7F30A00C3F30A51029026
:1005D000401A019040286BDAC3F3130040F4801BEB
:1005E0000098924620B10023D2EB030A63EB0B0B79
:1005F00001985946C0F140025046FFF704FF0646F5
:100600000D4650465946019A00F008F910EB0800D3
:100610006141002487EA115284EAE7731A4340D00B
:10062000009A62B3019A012A4FEA075215DC001BB7
:1006300061EB02014FF0004202EA0752CDE90042AD
:10064000001C41F5801132462B46FFF741FF03B0F5
:10065000BDE8F08F40462146F9E7001B61EB02013F
:10066000001C41F5801300185B412018A2F500170B
:1006700047EB030140EAD570B6196D4111E06D08F2
:100680004FEA360645EAC0754FEA0752001B61EB98
:100690000201001C41F5801149084FEA30000019A1
:1006A000514132462B4603B0BDE8F04FFFF701BF82
:1006B0000098012240000023D0EB020263EBE073BC
:1006C000009821464FEAE074B8EB000061EB0401AA
:1006D000E9E783F000435BE781F0004158E72DE94B
:1006E000F04D81EA030404F0004B21F0004514466C
:1006F0004FF0000A23F0004150EA050220D054EAEE
:1007000001021DD0C5F30A570246C5F31303C1F316
:100710001300C1F30A5640F4801543F48013A7EB8D
:100720000608101BD64608F2FD3873EB050002D30D
:1007300008F1010801E092185B41B8F1000F03DAFB
:1007400000200146BDE8F08D00204FF480110646E0
:1007500084460EE0171B73EB050705D3121B63EBF2
:10076000050306434CEA010C49084FEA3000921891
:100770005B4150EA0107EDD152EA030012D082EA50
:10078000040083EA0501084305D0101BAB4106D2E3
:100790000122002306E000224FF0004302E06FF048
:1007A000010253101AEB06004CEB085110EB0A0043
:1007B00041EB0B01BDE8F04DFFF77BBE0EB5C10F5D
:1007C00080EAE0700844CA07002140F233438DE814
:1007D0000E000A460B46FFF77BFE03B000BD70B566
:1007E000C1F30A5201F000450024C1F3130140F2A5
:1007F000FF3341F480119A4201DA002070BD40F2CB
:1008000033439A42A2F2334203DC5242FFF70AFE1C
:1008100000E090402C43F1D0404270BD202A06DB1E
:10082000CB17203A41FA02F043EAE07306E041FABE
:1008300002F3D040C2F120029140084319467047AC
:10084000FEE700002DE9F04F42F204102DED068B7B
:10085000ADF55F7D002140F23F13009040F2DF12C2
:10086000084605F05BFB962000F0D8FE00204FF410
:10087000967540F29D1600902B46324614210D20AD
:1008800005F04CFB962000F0C9FE43F6E7142B461A
:10089000324614210D20009402F0F8FF962000F05B
:1008A000BDFED5222B4614211046009402F094FF81
:1008B000962000F0B3FEA023324619460D20009486
:1008C00002F08AFF962000F0A9FE00255FF01506D1
:1008D00006EBC50082B280B2A2239E21009402F0F2
:1008E0007BFF052000F09AFE6D1CADB2312DEFD3D9
:1008F0005FF00005C5EBC5001B3083B281B2D72283
:10090000D320009402F068FF052000F087FE6D1CE4
:10091000ADB2272DEED300254FF0FD0A4FF0AD0B01
:10092000A14600246A4202EB820205EB85010BEB33
:10093000C2070AEBC10600BFC4EBC40000F1A70860
:100940001FFA88F1B0B24A4602F094FF1FFA88F10C
:10095000B8B24A4602F08EFFA4EBC40000F1990839
:100960001FFA88F1B0B24A4602F084FF1FFA88F1FC
:10097000B8B24A4602F07EFF641CA4B2132CDBD34B
:10098000052000F04BFE6D1CADB2042DC9D300252F
:10099000CA464FF0DD0BA5EBC50000EB8007C5EBA9
:1009A000C50000EB80060024C3367D370BEBC4097D
:1009B000B1B21FFA89F0524602F05CFF6242CD20CC
:1009C00000EBC208B1B21FFA88F0524602F052FFA3
:1009D000B9B21FFA89F0524602F04CFFB9B21FFAC1
:1009E00088F0524602F046FF641CA4B2182CDDD3F6
:1009F000052000F013FE6D1CADB2032DCBD34FF6D6
:100A0000E07422461521D52002F034FF1423D622AB
:100A10001946D420009402F0DFFE1323D722194692
:100A2000D320009402F0D8FE962000F0F7FD0025B8
:100A30005FF0180606EB850081B22246D52002F051
:100A400019FF052000F0EAFD6D1CADB2452DF1D374
:100A50000025112606EB850080B22246A02102F077
:100A600009FF052000F0DAFD6D1CADB2632DF1D356
:100A70001822B1A1C6A8FFF7D4FB1822B4A1CCA8B4
:100A8000FFF7CFFB1822B8A1D2A8FFF7CAFB3C2280
:100A9000BBA199A8FFF7C5FB3C22C8A1A8A8FFF7F6
:100AA000C0FBD54842F204153C220560D3A1B7A88B
:100AB000FFF7B7FB3C22E0A163A8FFF7B2FB3C22A3
:100AC000ECA17AA8FFF7ADFB2022F9A191A8FFF7CE
:100AD000A8FB2022FEA14DA8FFF7A3FBC6A9CDE9E4
:100AE0000014A3460B230C229B21002005F07AFD65
:100AF0004FF6E071CCA8CDE900010B230C22552163
:100B0000002005F06FFD4FF4FC61D2A8CDE9000193
:100B10000B230C22E121002005F064FD962000F05B
:100B20007DFD0D20ADF808000020ADF80A004BF265
:100B30001F00ADF814000C208DF816004FF03E0A8F
:100B40004FF6FF70ADF80CA0ADF81800B146ADF847
:100B50000E6002A802F0D6FB962000F05FFDA649C9
:100B60004BF21F000C2308604FF6FF7163A8CDE91C
:100B70000001BDF80A002622801C81B2BDF80800E1
:100B80000C3080B205F02EFD962000F047FD4E207F
:100B9000ADF808000020ADF80A003E20ADF80C00CA
:100BA0001120ADF80E004DF64C14ADF814400C2099
:100BB0008DF816004FF6FF70ADF8180002A802F08D
:100BC000A1FB962000F02AFD8B484FF6FF710C2305
:100BD00004607AA8CDE90001BDF80A002622801C35
:100BE00081B2BDF808000C3080B205F0FBFC962005
:100BF00000F014FD4FF6FF7040F21B14009010231C
:100C0000224600218F2002F041FE962000F006FDD2
:100C10000020661E00900F2332460121902005F02F
:100C20007DF9962000F0FAFC4FF6FF72012190202A
:100C300002F020FE4FF6FF720121304602F01AFE4C
:100C40004FF6FF720F21902002F014FE4FF6FF7254
:100C50000F21304602F00EFE2A4600218F2002F0BE
:100C600009FE2A460021902002F004FE2A460121B6
:100C70008F2002F0FFFD2A460021204602F0FAFDF7
:100C80002A460021304602F0F5FD2A460121204681
:100C900002F0F0FD2A4610218F2002F0EBFD2A46DB
:100CA0001021902002F0E6FD2A460F218F2002F04D
:100CB000E1FD2A461021204602F0DCFD2A461021E3
:100CC000304602F0D7FD2A460F21204602F0D2FD21
:100CD000962000F0A3FC00244FF61F059FED848AA8
:100CE000DFED848AB2EE009A01E0892C22D8671CDD
:100CF00007EBC700400000EE100AF8EE400A80EE55
:100D0000880A20EE280A10EE100AFFF74DFB41EC8E
:100D1000100B01F061FE51EC100BFFF758FB00EED9
:100D2000100A20EE090ABDEEC00A10EE100A0830C3
:100D300086B2E1E012E1000000007F00418077C050
:100D400077E077F077E077C077807F0000000000E1
:100D500000007F0077806BC05DE05DF041E05DC02A
:100D60005D807F000000000000007F0043805DC0C8
:100D70005DE043F05DE05DC043807F000000000067
:100D80001830CFF0F03C30CFF1F87E30C1839CE7D3
:100D900030C1830CC330C1830CC330C1830CC3305A
:100DA000C1830CFF30C1830CFF30C1830CC330C141
:100DB000839CC31F8181F8C30F0180F03C3FC3C3F4
:100DC000F07E3FC7E3F8E7060E731CE0060C330C19
:100DD00070060C330C38060C331C0C060C33F8066A
:100DE000060C33F007060C3300E7060E73007E0690
:100DF00007E3003C0603C3000000002000FF33F0BF
:100E00000000FF33F8000018331C000018030C002A
:100E10000018030C000018030C000018030C00005D
:100E200018030C000018030C000018031C00001825
:100E300003F800001803F000C30607E3FCC30F0724
:100E4000E3FCC31F818060C339C18060DB30C18097
:100E500060DB30C18060DB30C18060DB3FC180601F
:100E6000DB3FC18060DB30C18060FF30C7E060667F
:100E700030C7E06007E186618007F186718006393E
:100E800086718006198679800619867980063986EA
:100E90006D8007F1866D8007E18667800631866781
:100EA000800619CE63800618FC638006187861807E
:100EB00018C818C80D880D8802080D880D8818C834
:100EC00018C80000FFFE00008618492430C2000048
:100ED00018C818C80D880D8802080D880D8818C814
:100EE00018C80000FFFE0000FFFEFFFE000000002B
:100EF000DA0F49400000803D04EBC400400000EEE2
:100F0000100AB8EE400AC0EE080A20EEA80A10EE59
:100F1000100AFFF749FA41EC100B01F05DFD51ECAE
:100F2000100BFFF754FA00EE100AA846334620EEE5
:100F3000090A0095BDEEC00A10EE100A083081B211
:100F400004F1910082B29034A0B202F045FC052079
:100F500000F064FBBCB28B2CFFF4C7AE01235C46EF
:100F6000D8221946D220CDF800B002F035FC9620E8
:100F700000F054FBD5220E2302211046009402F00B
:100F80002BFC962000F04AFB002540F21F10ADF824
:100F90000800ADF80CA0ADF814400C26ADF80A50CE
:100FA0005746ADF80E908DF81660ADF81850FEA0BB
:100FB00004901720ADF81A0002A802F0A3F99620B9
:100FC00000F02CFBFA480F231A4604604DA8CDE927
:100FD0000005BDF80A00401C81B2BDF80800C01C25
:100FE00080B205F0FFFA962000F018FB4FF4B070C5
:100FF000ADF80800ADF80C701120ADF80E004FF4FC
:10100000FC69ECA0ADF814900490ADF80A508DF88E
:101010001660ADF8185002A802F074F9962000F09E
:10102000FDFAE34991A80F23C1F80090CDE900052E
:10103000BDF80A001A46401C81B2BDF80800C01C69
:1010400080B205F0CFFA962000F0E8FA0D20ADF856
:1010500008004FF0620AADF80CA01120ADF80E00A8
:10106000D5A00490ADF8185002204FF49777ADF852
:101070001440ADF81A00ADF80A708DF8166002A899
:1010800002F040F9962000F0C9FA7220ADF808008D
:10109000ADF80CA01120ADF80E00CAA0ADF81440B8
:1010A0000490ADF80A708DF81660ADF8185002A8DB
:1010B00002F028F9962000F0B1FAD720ADF8080028
:1010C000ADF80CA01120ADF80E00C1A0ADF8149041
:1010D0000490ADF80A708DF81660ADF8185002A8AB
:1010E00002F010F9962000F099FA4FF49E70ADF8D6
:1010F0000800ADF80CA01120ADF80E00B7A0ADF8B7
:1011000014900490ADF80A708DF81660ADF8185080
:1011100002A802F0F7F8962000F080FA4FF4D27A95
:10112000ADF808A0ADF80A703C27ADF80C7011209E
:10113000ADF80E004FF6A020ADF814008DF8166043
:10114000A9A04FF6FF760490ADF8186002A802F04F
:10115000D9F8962000F062FAA5A0D8AD0FC885E8AE
:101160000F003822A6A155A8FFF75BF8904842F27D
:1011700004150F230560D8A8CDE90004072201213A
:1011800040F2A51005F02EFA962000F047FA55A877
:10119000CDE900060B23232203214FF4DC7005F078
:1011A00021FA962000F03AFA0B234FF4E77205215A
:1011B0004FF4DD70009604F0B1FE962000F02EFA98
:1011C0006A119D4907A8FFF72CF89B492022403956
:1011D00072A8FFF726F898492022203989A8FFF73E
:1011E00020F80024724EE007356001D05F4600E031
:1011F000474607A8CDE90007C4EBC40000EB800018
:10120000143081B221233C22504605F0EBF9002036
:101210003760009072A80C2350F82420C4EBC4005F
:1012200000EB800707F1160081B24FF4D57005F08E
:101230005FFB3C214FF6FF703560CDE9000189A8C6
:10124000263750F82420B9B20C23504605F0AEFBE7
:10125000962000F0E3F9641CA4B2082CC2D3002449
:101260009FED76AADFED768A9FED769ADFED76AA7E
:10127000DFED769A4FF4C77A03E000BFB4F5C67F7E
:101280007DD8651C00EE105AB8EE400A60EE0A0ADE
:1012900080EE880A10EE100AFFF786F841EC100B7A
:1012A00001F09AFB51EC100BFFF791F800EE100AD9
:1012B000F0EE490A40EE280ABDEEE00A10EE100AF0
:1012C00000EE104AA030B8EE400A1FFA80F860EE37
:1012D0000A0A80EE880A10EE100AFFF765F841EC62
:1012E000100B01F079FB51EC100BFFF770F800EEDA
:1012F000100AF0EE490A04F10F0740EE280A7E1E9C
:10130000BAB24346CDF800B0BDEEE00A10EE100AC6
:10131000A03081B2B0B202F05FFA00EE105AB8EE1F
:10132000400A60EE2A0A80EE880A10EE100AFFF7E3
:101330003BF841EC100B01F04FFB51EC100BFFF7A9
:1013400046F800EE100AF0EE690A40EE280ABDEEFB
:10135000E00A10EE100A00EE104AA030B8EE400A83
:101360001FFA80F860EE2A0A80EE880A10EE100A52
:10137000FFF71AF841EC100B01F02EFB00E072E0D1
:1013800051EC100BFFF723F800EE900AB0EE690A5B
:10139000BAB200EEA80A4346BDEEC00A10EE100A2B
:1013A000A03081B2B0B253E03130306D5600000051
:1013B0000000002032560000467265713A3130302C
:1013C000487A0000566D61783A312E333556000068
:1013D0005769643A313230757300000056726D738C
:1013E0003A312E33305600002D2D203130485A002E
:1013F0001E1010101010387CFE1010101010F0008D
:10140000FFFFFFFF808000000080800000008080E0
:10141000000000E080000000A080000000A080002C
:101420000000A080000000E080000000808000003C
:101430000080FFFFFFFF8000CCE00108713D8A3E85
:101440000000484200008CC27B142E3E00008C42FB
:10145000CDF8009002F0C0F9052000F0DFF8ACB242
:101460005445FFF40BAF0DF55F7DBDEC068BBDE879
:10147000F08F704772B6FEE770B5B3F5804F05D0B8
:101480006FF0704140F82210002070BD50F82240EB
:10149000084B8E891C40D1E9003543EA05138D685D
:1014A00089692D0245EA06452B430B43234340F847
:1014B0002230E9E70000F0CFF0B50C6850F8243096
:1014C000114A1340D1E90125D1E903672A433E437C
:1014D00032434E6932438E693243CE6932430E6ADB
:1014E00032434E6A32438E6A3243CE6A3243CE6B07
:1014F000096B32430A431A43082D01D142F04002DE
:1015000040F824200020F0BD8000F0FF30B500EB53
:10151000820250688D8900F04043D1E9000440EA1E
:1015200004108C68240244EA054420430C8A074DC9
:1015300005EB045420430C7D6D0105EB04648969BF
:101540002043084318435060002030BD0000F0FFE6
:1015500070B54379012B1AD001264671022303711D
:1015600005682C6840F6FE7393409C43D1E9003136
:101570000B43934023432B6001680B68C0249440C5
:10158000A3430B60067100214171084670BD022023
:1015900070BD70B5040003D02079002510B105E0BE
:1015A000012070BD6571204600F008F8022020710E
:1015B000256101202071002070BD000010B586B0AB
:1015C000044614216846FEF745FE1149206888420A
:1015D0001CD110480021026842F0005202600068ED
:1015E00000F0005005900B481038026842F00102EC
:1015F0000260006800F00100059030200090032098
:10160000CDE901016946044800F054F806B010BD68
:1016100000740040403802400000024070B50446AB
:1016200000F02EF90546601C02D0044800780444FE
:1016300000F026F9401BA042FAD370BD1000002034
:10164000F0B587B014216846FEF704FE154801681E
:10165000002924D10121016013480024016841F0D0
:10166000010101600068022500F0010005904FF6BD
:101670008070CDE9000502AA03260C2782E8D0007D
:1016800069460A4800F016F84CF6B370CDE900053B
:1016900002AA694682E8D000054800F00BF807B0BE
:1016A000F0BD000008000020383802400010024061
:1016B000000C02402DE9F84F00224FF001080325ED
:1016C0004FF00F0E0B6808FA02F42340A3426ED1CC
:1016D0004E68012E05D0022E03D0112E01D0122EFD
:1016E00012D186684FEA420C05FA0CF7BE43CF6868
:1016F00007FA0CF7374387604668A6430C79C4F3B2
:101700000014944034434460C668570005FA07FC4F
:101710008C6826EA0C06BC403443C4604C68022C3A
:1017200001D0122C13D1D40800EB8404A346D4F8C2
:10173000209054074FEAD46A0EFA0AF629EA0609FD
:101740000E6906FA0AF646EA0906CBF82060066832
:101750000C7926EA0C0604F00304BC403443046010
:101760004C68E40065D5364C266846F48046266011
:10177000246822F0030604F480440094314C34447D
:10178000A446D4F808489607370F0EFA07F6B44374
:101790002D4EB04201D1002624E02C4EB04201D1A2
:1017A00001261FE02A4EB04202D102261AE040E094
:1017B000284EB04201D1032614E0274EB04201D199
:1017C00004260FE0254EB04201D105260AE0244E42
:1017D000B04201D1062605E0224EB04201D10726D3
:1017E00000E00826BE402643CCF808681E4E346848
:1017F0004F689C43FF0300D51C4334601A4C241DE2
:1018000026684F689E43BF0300D51E432660164ED0
:10181000083634684F689C43FF0200D51C4334608F
:10182000114E0C3634684F689C43BF0200D51C43F0
:101830003460521C102AFFF445AFBDE8F88F000059
:1018400044380240003001400000024000040240E1
:1018500000080240000C0240001002400014024048
:1018600000180240001C0240003C01400069084092
:1018700000D0012070470AB1816170470904FBE77D
:10188000014880687047000010000020024881680D
:101890000278114481607047100000200B4810B599
:1018A000016841F400710160016841F480610160E8
:1018B000016841F480710160032000F061F80020AC
:1018C00000F006F800F024F8002010BD003C0240B3
:1018D00070B50D4D04464FF47A712878B1FBF0F0E5
:1018E0000A490968B1FBF0F000F031FB48B9102C4F
:1018F00007D200222146501E00F022F800206C6022
:1019000070BD012070BD0000100000201C000020F0
:101910000A4808B5016841F480410160006800F49C
:10192000804000900548001F016841F0805101602F
:10193000006800F08050009008BD0000443802406C
:10194000F0B40E4B1B680C46C3F30223C3F107052A
:10195000042D00D90425191D072901D2002300E018
:10196000DB1E012606FA05F1491E214099409E40E2
:10197000761E16403143F0BC01F01EB80CED00E0BD
:10198000064900F0070208684FF6FF03184040EAD6
:101990000220034A10430860704700000CED00E08D
:1019A0000000FA052DE9F0470E46050065D0DFF886
:1019B0001481D8F80000F7B200F00F00B04207D24F
:1019C00088F80070D8F8000000F00F00B04254D141
:1019D00028683D4C810712D5400703D5206840F4A4
:1019E000E05020602878000703D5206840F460406C
:1019F00020602068A96820F0F00008432060287863
:101A0000C0072DD0304968680839012812D0022853
:101A100013D0032811D00968890700292DDA21681D
:101A200021F0030101432160FFF72AFF814641F2C3
:101A3000883A0EE009688903EFE709688901ECE755
:101A4000FFF71EFFA0EB0901514502D90320BDE8B5
:101A5000F0872068696800F00C00B0EB810FEFD1CF
:101A6000D8F80010404601F00F01B14207D90770C5
:101A7000006800F00F00B04201D00120E7E72878AD
:101A8000400705D52068E96820F4E050084320604D
:101A90002878000706D52068296920F4604040EACC
:101AA000C100206000F018F82168084AC1F3031152
:101AB000515CC8400649086006480068FFF708FF07
:101AC0000020C4E7003C024008380240FCA70008A0
:101AD0001C00002014000020154810B5006810F00C
:101AE0000C02144813D01449042A0FD0082A0ED12E
:101AF0000F4C241F2268236802F03F025B0207D5C7
:101B00002068C0F38810A0FB010106E0084610BD64
:101B10002168C1F38811A1FB00010023FEF750FBEF
:101B20002168C1F30141491C4900B0FBF1F010BD2F
:101B3000083802400024F400001BB7002DE9F84FDC
:101B400004006ED02078DFF83C93C007A9F10405AB
:101B50004AD009F104000168C1F38101012908D0CC
:101B60000068C0F3810002280AD1D9F800004002C1
:101B700006D52868800337D560680028E1D033E0B7
:101B80006068B0F5803F10D0B0F5A02F286810D065
:101B900020F480302860286820F480202860606865
:101BA000A8B1FFF76DFE06460DE0286840F48030CE
:101BB000F4E740F480202860F7E700BFFFF760FEFD
:101BC000801B642873D828688003F7D50CE0FFF7E2
:101BD00057FE064605E000BFFFF752FE801B642853
:101BE000F0D828688003F7D42078DFF89C8280073B
:101BF0004FF0000A3ED5A348001D016811F00C0FFC
:101C000008D00068C0F3810002280BD1D9F8000089
:101C1000400207D42868800716D5E068012800D163
:101C200012E02BE1E068B8B10120C8F80000FFF72E
:101C300027FE064605E000BFFFF722FE801B0228B4
:101C4000C0D828688007F7D52868216920F0F800F7
:101C500040EAC10028600DE0C8F800A0FFF710FEC0
:101C6000064604E0FFF70CFE801B02281FD82868F8
:101C70008007F7D42078000722D5824E8348616917
:101C8000703671B101210160FFF7FAFD074604E0EB
:101C9000FFF7F6FDC01B022809D830688007F7D58A
:101CA0000EE0C0F800A0FFF7EBFD074605E082E07C
:101CB000FFF7E6FDC01B02287DD830688007F7D407
:101CC0002078400768D5DFF8BCB100270BF13C0B4A
:101CD000DBF80000C0000BD4DBF8001041F08051AD
:101CE000CBF80010DBF80000012700F080500090D6
:101CF000674E3068C00510D4306840F480703060A2
:101D0000FFF7BEFD009005E0FFF7BAFD0099401A0D
:101D1000022850D83068C005F6D55A4EA0686C36F7
:101D200001280FD00528306810D020F00100306065
:101D3000306820F004003060A068B8B1FFF7A0FD63
:101D400000900FE0306840F00100F4E740F004003C
:101D50003060F7E7FFF794FD0099411A41F28830AF
:101D6000814266D830688007F4D50EE0FFF788FD21
:101D7000009007E0FFF784FD0099411A41F2883096
:101D8000814256D830688007F4D42FB1DBF80010B8
:101D900021F08051CBF80010A069C8B33949091D62
:101DA0000968C1F3810102294AD00228504607D0B0
:101DB000C8F8600000E03CE0FFF762FD04463BE04D
:101DC0004746C8F86000FFF75BFD064605E000BF28
:101DD000FFF756FD801B02282BD828688001F7D416
:101DE000D4E907010843A16A2A4A490802EB0141E4
:101DF000626A41EA8211084394F82C1040EA0161BA
:101E0000C9F8001001203866FFF73AFD044606E0E5
:101E100036E000BFFFF734FD001B022809D8286810
:101E20008001F7D52CE000BFFFF72AFD001B022838
:101E300002D90320BDE8F88F28688001F4D41FE0A0
:101E40000128F7D0D9F80000E26900F4800191423E
:101E500014D1226A00F03F0191420FD147F6C071C0
:101E6000626A0140914209D1A26A00F44031914274
:101E700004D1E16A00F07060884201D00120D9E706
:101E80000020D7E70438024000004742800E474256
:101E9000007000400000FFFF70B5040003D06079BF
:101EA000002510B105E0012070BD2571204600F02D
:101EB0000DF8022060712068016841F004010160A2
:101EC00001206071A560002070BD000008B50068A9
:101ED0000649884208D10648016841F04001016086
:101EE000006800F04000009008BD000000080650A7
:101EF0003438024070B515460E46040003D094F8FD
:101F0000490010B107E0012070BD002084F84800AE
:101F1000204600F01AF804F108012068FFF7CCFA17
:101F20003146A2682068FFF7F1FAD4E90102294698
:101F3000236BFFF7A1FAA168206850F8212042F036
:101F4000010240F82120002070BDFFF779BB10B5D9
:101F5000401EB0F1807F01D3012010BD4FF0E0247E
:101F600060610F21601700F027FD0020A0610720AD
:101F70002061002010BD000070B590F83C20012ABF
:101F800032D0012480F83C40022280F83D200368D2
:101F90005A689D6822F070060A6832435A60134BF3
:101FA00002689A4214D0B2F1804F11D0104B9A427D
:101FB0000ED0104B9A420BD00F4B9A4208D00F4BC9
:101FC0009A4205D00E4B9A4202D00E4B9A4204D14F
:101FD000496825F080031943916080F83D40002155
:101FE00080F83C10084670BD022070BD0000014022
:101FF0000004004000080040000C004000040140C4
:10200000004001400018004010B5040003D094F8CF
:102010003D0010B107E0012010BD002084F83C0015
:10202000204600F00DF8022084F83D00211D2068B4
:1020300000F040FB012084F83D00002010BD0000AE
:1020400008B50F4A01680F48914207D1016841F075
:1020500002010160006800F0020009E00A4A9142B2
:1020600008D1016841F004010160006800F004003B
:10207000009008BD05488142FBD10248001DE5E7FC
:1020800000040040403802400008004000040140C5
:1020900070B5044690F83C00012817D0012584F85B
:1020A0003C50022084F83D002068826822F07702CC
:1020B00022F47F4282600868502830D00DDC20284E
:1020C0004DD005DC98B310283BD148E0022070BD0C
:1020D000302844D0402834D139E0602828D07028F6
:1020E00006D0B0F5805F2CD0B0F5005F29D10AE0B2
:1020F000CB68D1E90121206800F04DFB20688168A0
:1021000041F0770109E0CB68D1E90121206800F0B6
:1021100042FB2068816841F48041816011E0CA6817
:102120004968206800F00CFC5021206807E016E0A8
:10213000CA684968206800F014FC6021206800F03B
:1021400034FB84F83D50002084F83C0070BDCA6820
:102150004968206800F0F4FB40212068EFE722681E
:1021600001461046EBE7000010B586B00446142186
:102170006846FEF76FF80D492068884214D10C4874
:102180000021026842F001020260006800F00100D4
:102190000590402000900220CDE90101CDE9031017
:1021A00069460448FFF786FA06B010BD00040040F7
:1021B000303802400000024070B5044690F83C0000
:1021C0000D4601280DD0012684F83C60022084F8D9
:1021D0003D0042B1042A18D0082A2AD00C2A4DD139
:1021E00039E0022070BD206800F0E8FA20688169BB
:1021F00041F0080181612068816921F00401816159
:10220000206881692A69114311E0206800F006FB0B
:102210002068816941F4006181612068816921F44D
:1022200080618161206881692A6941EA02218161B6
:1022300024E0206800F028FB2068C16941F0080113
:10224000C1612068C16921F00401C1612068C169D0
:102250002A69114311E0206800F04AFB2068C16937
:1022600041F40061C1612068C16921F48061C161EC
:102270002068C1692A6941EA0221C16184F83D6090
:10228000002084F83C0070BD10B5040003D094F821
:102290003D0010B107E0012010BD002084F83C0093
:1022A000204600F00CF8022084F83D00211D206833
:1022B00000F000FA012084F83D00002010BD7047B6
:1022C00010B504460068012200F058FA0B49206856
:1022D000884202D00A49884203D1416C41F400414E
:1022E00041642068816801F00701062903D0016874
:1022F00041F001010160002010BD0000000001401C
:1023000000040140FEE700001CB5002410490094C1
:102310000E48019408600846FFF73BF908B1FFF743
:10232000A9F800940022694609480194FFF710F9C2
:1023300008B1FFF79FF8102269460548FFF708F932
:10234000002801D0FFF796F81CBD00000074004083
:10235000500000202DE9F04186B014216846FDF7B9
:1023600079FF37480024016841F08001016001686D
:1023700001F080010591016841F0040101600168EC
:1023800001F004010591016841F00101016001685B
:1023900001F001010591016841F00201016001684D
:1023A00001F002010591016841F01001016001682E
:1023B00001F010010591016841F008010160006819
:1023C000204F00F008000590002280213846FFF7DA
:1023D00052FADFF87480002220214046FFF74BFAC2
:1023E0000F260225009669464046CDE90145FFF7D4
:1023F00061F9009669463846CDE90145FFF75AF97B
:10240000802000900126CDE9016503256946384604
:102410000395FFF74FF92020CDE9000669464046B5
:10242000CDE90245FFF746F94FF6FF70CDE900040C
:10243000694606480294FFF73DF906B0BDE8F08111
:102440003038024000000240000802400004024010
:10245000074910B5054808600846FFF71DFD00282C
:1024600003D0BDE81040FFF705B810BD00080650C6
:10247000B400002030B58DB000240794089409946E
:102480000A940B941C2168460C94FDF7E3FE234D3F
:102490002148C5E9000441F28730C5E902402C61BA
:1024A0002846AC61FFF7B0FD08B1FEF7E3FF4FF43B
:1024B0008050079007A91948FFF7EAFD08B1FEF719
:1024C000D9FF1648FFF7E0FE08B1FEF7D3FF0B94E3
:1024D0000BA912480C94FFF74FFD08B1FEF7CAFF95
:1024E000602000904FF42F600190022002900420A1
:1024F0000490002269460948FFF75EFE08B1FEF726
:10250000B9FF2868816921F0080181610348FFF75C
:102510002BFE0DB030BD000000040040C4000020C0
:1025200010B586B0002416480094019402940394D8
:10253000049412490594C0E900144FF6FF71C0E9F4
:10254000024104618461FFF75FFD08B1FEF792FF6D
:102550004FF48050009069460948FFF799FD08B193
:10256000FEF788FF049404A905480594FFF704FDCD
:10257000002801D0FEF77EFF06B010BD0008004025
:102580000401002010B586B000241748009401947F
:1025900002940394049413490594C0E900144FF67F
:1025A000FF71C0E90241046144618461FFF72CFDC1
:1025B00008B1FEF75FFF4FF48050009069460A486B
:1025C000FFF766FD08B1FEF755FF049404A906481D
:1025D0000594FFF7D1FC002801D0FEF74BFF06B0B1
:1025E00010BD00000004014044010020FEE7FEE7AA
:1025F00070477047704710B5FFF748F9BDE81040C5
:1026000000F022BF30B593B030216846FDF722FEBE
:1026100014210CA8FDF71EFE1D480025016841F09D
:1026200080510160006800F08050119019480168E5
:1026300041F4804101600068022400F48040119060
:1026400001200090000401908001CDE906400620A1
:102650000890A820CDE9090407200B906846FFF7F1
:102660006DFA08B172B6FEE70CA90F2081E83100BF
:102670004FF4A0500F904FF48050109005210CA8FB
:10268000FFF790F9002801D072B6FEE713B030BD15
:1026900040380240007000400548016841F4700174
:1026A000016003494FF00060803908607047000006
:1026B00088ED00E0F0B50268254C264D264E274FE8
:1026C000274B4FF0804CA04209D0604507D0A8426C
:1026D00005D0B04203D0B84201D0984204D122F0D4
:1026E000700E4A6842EA0E02A0421BD0604519D023
:1026F000A84217D0B04215D0B84213D0984211D09A
:10270000184DA8420ED0184DA8420BD0174DA84224
:1027100008D0174DA84205D0164DA84202D0164D3C
:10272000A84203D122F44075CA682A434D6922F0B9
:1027300080022A4302608A68C2620A688262A042FA
:1027400001D0984201D10969016301214161F0BDC5
:10275000000001400004004000080040000C004060
:102760000004014000400140004401400048014095
:1027700000180040001C00400020004010B501F08F
:102780001F030121046A99408C430462016A9A4044
:102790001143016210BD10B5846842EA032224F49B
:1027A0007F440A432243826010BD826822F0700297
:1027B0000A4342F00701816070470000F0B5026AE9
:1027C00022F001020262036A42688469124E24F018
:1027D00073050C682C4323F002058B682B430D4DC9
:1027E000A84201D0B04205D123F00807CB683B4393
:1027F00023F00403A84201D0B04205D14D6922F470
:10280000407215438A692A43426084614968416382
:102810000362F0BD0000014000040140F0B5026A0F
:1028200022F010020262026A436884690D6824F48F
:10283000E64444EA05248D6822F0200242EA0512AB
:102840000F4D104EA84201D0B04206D1CF6822F001
:10285000800242EA071222F04002A84201D0B042B0
:1028600007D14D6923F4406343EA85038D6943EA48
:10287000850343608461496881630262F0BD0000A2
:102880000000014000040140F0B5026A22F48072A9
:102890000262026A4368C46922F4007224F073057C
:1028A0000C68124E2C438D6842EA05220E4DA84258
:1028B00001D0B04206D1CF6822F4006242EA07227A
:1028C00022F48062A84201D0B04207D14D6923F4BE
:1028D000405343EA05138D6943EA05134360C4611D
:1028E0004968C1630262F0BD00000140000401407C
:1028F00030B5026A22F480520262046A4268C369F7
:102900000D6823F4E64343EA05238D6824F400545C
:1029100044EA0534084DA84202D0084DA84204D12B
:102920004D6922F4804242EA85124260C3614968DF
:102930000164046230BD0000000001400004014059
:1029400010B5036A046A24F001040462846924F067
:10295000F00444EA021423F00A020A43846102628A
:1029600010BD10B5036A23F0100303628369046A83
:1029700023F4704343EA023224F0A00343EA011136
:102980008261016210BDFEE703B401984100009826
:1029900050EAC12018BF04204A0D18BF40F00100C2
:1029A00040F2FF72B2EB515F08BF40F00200012815
:1029B00008BF052002B070470907090E002804DB94
:1029C00000F1E02080F80014704700F00F0000F1E3
:1029D000E02080F8141D704710B52F499FED2C1B87
:1029E0002DED020B84B0059820F000408842DCBF3A
:1029F00000209DED040B32DD2849884209D104985E
:102A000040B94FF0010000F06FFC00F03DFC06B053
:102A100010BD05DB9DED040B00F02AFC06B010BDD7
:102A200068469DED040B00F03BF810F0030011D058
:102A3000012818D09DED021B9DED000B02281AD035
:102A400000F04AFA51EC100B81F0004106B041EC65
:102A5000100B10BD9DED021B9DED000B012000F041
:102A60006FFB06B010BD9DED021B9DED000B00F04D
:102A700033FA06B010BD012000F062FB51EC100BE0
:102A800081F0004106B041EC100B10BD00000000C9
:102A90000000000000000000FB21E93F0000F07F83
:102AA0002DE9F14F04462DED020B2DED088B8AB078
:102AB0009FEDE70B80ED020B139EE74826F00045E3
:102AC00085420ADC9DED120B002084ED000B0AB05C
:102AD000BDEC088B03B0BDE8F08FE0489FEDE0ABA4
:102AE0009FEDE1BBA84247DDE14F9FEDE39B9FEDEA
:102AF000E48B9DED120B53EC1A2B51EC100B002EB6
:102B00001CDDFDF7E6FD41EC100BBD4208D053EC97
:102B10001B2B51EC100BFDF7DCFDC4E900010BE0B1
:102B200053EC192B51EC100BFDF7D3FD53EC182B84
:102B3000FDF7CFFDC4E900010120C8E7FDF728FD3E
:102B400041EC100BBD4208D053EC1B2B51EC100B89
:102B5000FDF71EFDC4E900010BE053EC192B51EC0D
:102B6000100BFDF715FD53EC182BFDF711FDC4E913
:102B700000014FF0FF30AAE7C348A84279DB9DED82
:102B8000120B51EC100B00F065FD41EC180B9FEDA2
:102B9000C00B53EC102BFDF76FFB9FEDBF1B53ECED
:102BA000112BFDF7F5FCFDF71AFE0746FDF706FEB3
:102BB00041EC190B53EC1A2BFDF75EFB53EC182B71
:102BC000FDF78AFD41EC180B53EC1B2B51EC190B54
:102BD000FDF752FBDFF8C8A241EC100B4FEA155885
:102BE0000125FA4453EC102B51EC180BFDF771FD45
:102BF000032DC4E900013DD0C1F30A5005EB451196
:102C0000A8EB00001139814234DA0AEB051BB0EE63
:102C100048AA9BED000BF0EE68AA53EC102B51EC88
:102C2000190BFDF729FB41EC1B0B51EC1A0B53EC74
:102C30001B2BFDF74EFD41EC180B51EC1A0B53EC1E
:102C4000182BFDF746FD53EC1B2BFDF742FD9BEDCA
:102C5000020B41EC1A0B53EC102B51EC190BFDF746
:102C60000BFB53EC1A2BFDF734FD41EC100B6D1CE4
:102C7000B8E70EE0002EA8BF3846BFF628AF94EDA7
:102C8000000B51EC100B81F00041C4E900017842C7
:102C90001DE7C6F3130040F4801EC6F30A50A0F2ED
:102CA000F530471100F01F05C5F12000DDF848B0F0
:102CB00008900020069007900520EC467949002DE9
:102CC00007EB0002794408BF51F8221009D051F8EF
:102CD000223001EB8201AB404A68089922FA01F1E7
:102CE0001943A1FB0E26A1FB0B131A449A4234BFD1
:102CF0000123002303EB06080CEB8003D3E901A6B4
:102D00000E448E4234BF0121002192448A4411B105
:102D1000924502D903E0924501D2012100E0002151
:102D2000C3E901A641444CF82010011EA0F10100A6
:102D3000C4DC029800F10050850F0298DDE90367BA
:102D40008000DDF81480FDF739FD41EC1A0B3046A8
:102D5000FDF704FB9FED541B53EC112BFDF78CFA90
:102D600041EC1B0B3846FDF7F9FA9FED511B53EC74
:102D7000112BFDF781FA41EC180B4046FDF7EEFAF6
:102D80009FED4D1B53EC112BFDF776FA41EC190B1F
:102D900051EC180B53EC192BFDF7FAFB53EC1B2BE2
:102DA000FDF7F6FB53EC1A2BFDF7F2FBCDE908011A
:102DB000002008909DED080B53EC1A2B51EC100BE2
:102DC000FDF787FC53EC1B2BFDF783FC53EC182B12
:102DD000FDF77FFC53EC192BFDF77EFC9FED381BB4
:102DE00053EC112BFDF748FA9FED370B41EC180B14
:102DF00053EC102B9DED080B51EC100BFDF73CFA3A
:102E000053EC182BFDF7C4FB9FED310B41EC180B75
:102E100053EC102B9DED080B51EC100BFDF72CFA29
:102E200053EC182BFDF7B4FB41EC100B139810F08A
:102E3000004F06D06D4251EC100B81F0004141EC87
:102E4000100B284684ED000B41E600000000000056
:102E50000000000000000000FB21E93F7CD9024097
:102E600000004054FB21F93F3163621A61B4D03D48
:102E7000FB21F93F000000000000601A61B4D03D62
:102E80007370032E8A19A33BFB2139410000000017
:102E900083C8C96D305FE43F000000000000E03FE0
:102EA00022B6010070B50100000000000000103ED5
:102EB000000000000000103C000000000000103A7C
:102EC000182D4454FB21F93D3326A611460B113C25
:102ED00000000054FB21F93D10B52DED040B2DED44
:102EE000088B82B0B0EE419AF0EE619A0B9820F018
:102EF00000449FED4BABB4F1795F11DA9DED0A0B05
:102F000051EC100BFDF76BFC002801BFB0EE4A0A34
:102F1000F0EE6A0A02B0BDEC088B04BF04B010BD2D
:102F20009DED0A0B53EC102B51EC100BFDF7A4F99F
:102F300041EC180B3C480621B0EE480AF0EE680A56
:102F4000784400F081F853EC182B51EC100BFDF78E
:102F500093F99DED0A0B41EC1B0B53EC192B51EC33
:102F6000100BFDF789F941EC190B53EC1B2B51ECBD
:102F7000180BFDF781F953EC192BFDF7AAFB9FED18
:102F80002C0B41EC190B53EC102B51EC180BFDF7EB
:102F900073F941EC100B2848844210DA53EC192BDA
:102FA00051EC100BFDF795FB53EC1A2BFDF794FB3E
:102FB00041EC100B02B0BDEC088B04B010BD1F48F3
:102FC000A042BCBF9FED1E1B8DED001B06DBA4F5D0
:102FD00000100190002000909DED001B51EC100BA3
:102FE00053EC112BFDF775FB9DED000B41EC180B1D
:102FF00053EC102B51EC1A0BFDF76BFB41EC1A0B49
:1030000053EC192B51EC180BFDF763FB53EC1A2B07
:10301000FDF762FB41EC100BCCE700000000000064
:10302000000000000000F03F94B20100000000002A
:10303000000000000000E03F3333D33F0000E93FD1
:10304000000000000000D23F70B504462DED028B59
:103050004D1E00EBC500B0EE408AF0EE608A90EDA8
:10306000000B35F0060017D053EC182B51EC100B69
:10307000FDF702F941EC100B6D1E04EBC50090ED5D
:10308000001B51EC100B53EC112BFDF781FA41ECB6
:10309000100B35F00600E7D1022D36D0042D1CD0E0
:1030A000062D1CBFBDEC028B70BD53EC182B51ECF0
:1030B000100BFDF7E1F894ED0A1B53EC112BFDF713
:1030C00067FA53EC182BFDF7D7F894ED081B53EC77
:1030D000112BFDF75DFA41EC100B53EC182B51EC62
:1030E000100BFDF7C9F894ED061B53EC112BFDF7FF
:1030F0004FFA53EC182BFDF7BFF894ED040B53EC8B
:10310000102BFDF745FA41EC100B53EC182B51EC4A
:10311000100BFDF7B1F894ED021B53EC112BFDF7EA
:1031200037FA53EC182BFDF7A7F894ED001B53EC7E
:10313000112BFDF72DFABDEC028B41EC100B70BD8D
:1031400031B504462DED040B2DED0A8BB0EE41BADE
:10315000F0EE61BA0B989DED0A0B20F00040B0F143
:10316000795F0DDA51EC100BFFF70EFC042808BF55
:1031700000F09AF89DED0A0BBDEC0A8B05B030BD4E
:1031800053EC102B51EC100BFDF776F841EC180BBB
:103190009DED0A0B53EC182B51EC100BFDF76CF85E
:1031A00041EC190B2C48B0EE480AF0EE680A0521F4
:1031B0007844FFF749FF9FED2ACBB0EE40AAF0EE2E
:1031C00060AA9CB353EC1C2B51EC190BFDF754F87F
:1031D00041EC1C0B53EC1A2B51EC190BFDF74CF87E
:1031E0009FED210B41EC190B53EC102B51EC1B0BF9
:1031F000FDF742F853EC192BFDF76BFA53EC182B43
:10320000FDF73AF853EC1B2BFDF763FA53EC1C2B3C
:10321000FDF75FFA9DED0A1B53EC112BFDF75CFAED
:10322000BDEC0A8B05B041EC100B30BDFFE753EC51
:103230001A2B51EC180BFDF71FF853EC1C2BFDF764
:10324000A7F953EC192BFDF717F89DED0A1B53EC6A
:10325000112BFDF79DF9E3E71CB101000000000010
:10326000495555555555C5BF000000000000E03FC9
:1032700010B553EC102B51EC100BFDF789F941EC14
:10328000100B10BD000000009FED050B10B553ECB6
:10329000102B51EC100BFDF722FA41EC100B10BD76
:1032A00000000000000000009FED050B10B553EC7E
:1032B000102B51EC100BFCF7DFFF41EC100B10BD95
:1032C000000000000000001002E008C8121F08C142
:1032D000002AFAD170477047002001E001C1121F97
:1032E000002AFBD1704700000149086070470000C8
:1032F0003C000020002101E000BF491C8142FBDBB3
:10330000704700003EB54F49044680890860009030
:103310006188E088A2880844401E83B22088024465
:10332000521E92B202F0FAFD42F204156188208822
:103330002A4600F09FFA20886188401C80B22A4605
:1033400000F098FA60882A46401C81B2208800F07C
:1033500091FA2088A1882A460844401E80B26188DC
:1033600000F088FA2088A1882A460844801E80B28E
:10337000618800F07FFA2088A1882A460844618885
:10338000401E491C80B289B200F074FA6088E1885E
:103390002A460844401E81B2208800F06BFA6088FB
:1033A000E1882A460844801E81B2208800F062FA33
:1033B0006088E1882A460844401E81B22088401C6B
:1033C00080B200F057FA6088E188A2880844401E65
:1033D00081B220881044401E80B22A4600F04AFA8A
:1033E0006088E188A2880844401E81B22088104489
:1033F000801E80B22A4600F03DFA6088E188A288EB
:103400000844801E81B220881044401E80B22A46A3
:1034100000F030FAA068002813D0E188A37B228A4C
:103420000093CDE90102C91A608801EBD17100EB6C
:10343000610081B22088628A104480B2A28803F0C1
:1034400007F93EBD000000202DE9F0417F4E02212A
:103450003046FEF70BFA01284CD0002401213046FB
:10346000FEF704FA012800D00020794D062704EB6E
:103470004000297805F10A04B1FBF7F207FB1211AD
:10348000B046605408213046FEF7F0F9012833D0E9
:10349000002604214046FEF7E9F9012800D000206B
:1034A00006EB40016878C01CB0FBF7F207FB120086
:1034B000215400200322295C491CC9B2B1FBF2F35C
:1034C00002FB13112954401C0228F4DB604800223F
:1034D000801C0023194602EB42056E18A75D2644A6
:1034E0007678B74200D15B1C491C0229F5DB022B20
:1034F00004D005E00124B1E70126CAE7615D8154EB
:10350000521C022AE5DB524A0021521E1170511D45
:103510000C7805788A1C01F10F03AC4247D00C7877
:103520001578AC4203D104785578AC4217D00C78AA
:103530005578AC4203D104789578AC420FD00C7822
:103540009578AC4203D10478D578AC4207D00C789A
:10355000D578AC4206D104781578AC4202D11C680B
:10356000641D21E00C781578AC4203D10478D5783D
:10357000AC4217D00C785578AC4203D1047815785A
:10358000AC420FD00C789578AC4203D104785578D2
:10359000AC4207D00C78D578AC4206D10478957847
:1035A000AC4202D11C68641F1C6004780C704C781B
:1035B0004578AC4247D04C781578AC4203D144787A
:1035C0005578AC4217D04C785578AC4203D144784A
:1035D0009578AC420FD04C789578AC4203D14478C2
:1035E000D578AC4207D04C78D578AC4206D1447837
:1035F0001578AC4202D15A68521D21E04C781578FA
:10360000AC4203D14478D578AC4217D04C78557889
:10361000AC4203D144781578AC420FD04C78957801
:10362000AC4203D144785578AC4207D04C78D57879
:10363000AC4206D144789278944202D15A68521F23
:103640005A6040784870BDE8F081000000080240F0
:103650002100002082B0CDE9000121F0004001905E
:103660009DED000B02B051EC100B704770B509498D
:103670000646002408884D8821464543204602F02E
:10368000A7FE03F051F8044801E00680641CAC4238
:10369000FBD370BD40000020000002602DE9F04720
:1036A0008246A2EB0A00401C0E4685B2981B401CC5
:1036B00087B20024DFF83C90DDF8208015E0301957
:1036C00081B2504602F084FE03F02EF800204946F5
:1036D00007E000BF04FB050338F813200A80401CF4
:1036E00080B2A842F6D3641CA4B2BC42E7D3BDE8C2
:1036F000F0870000000002602DE9F04F35492C26CC
:103700000A46887192884FF4305A4FF4285B4FF480
:103710002C5E4FF448752B274FF02A0C4FF0F00821
:1037200045F210594FF4A0744FF4F073F8B10C80C7
:10373000A1F802804A4544D1A1F808A0A1F80AB036
:10374000A1F80CE00D804B80A2F5A640103807D000
:10375000A2F5EE40963803D0A2F51440883801D186
:103760000B804C80BDE8F04F002002F069BDA1F84D
:1037700000804C804A4506D1A1F808A0A1F80AB003
:10378000A1F80CE01AE0A2F5C85063380E8112D0FF
:10379000A1F80AC0A1F80C70A2F5A640103807D015
:1037A000A2F5EE40963803D0A2F514408838D9D15E
:1037B0000C804B80D6E74F81A1F80CC00B804D8068
:1037C000EAE70E81A2F5C850A1F80AC063388F81DC
:1037D000B8D0B9E7400000202DE9FE4F161ACDE918
:1037E00000104FF000085D1A47464FF0FF30002EE2
:1037F00002DD4FF0010102E003D14FF000018B46E2
:1038000002E08346C6F10006002D02DD4FF0010004
:1038100002E003D14FF00000824602E08246C5F18B
:103820000005AE4201DD344600E02C46601C4FF03E
:103830000009029019E000980C9A81B2019880B2B8
:1038400000F018F8B0442F44A04504DD0198A8EB1F
:10385000040858440190A74203DD00983F1B5044E0
:10386000009009F101001FFA80F902998945E2DD13
:10387000BDE8FE8F10B5144602F0AAFD02F054FF19
:103880000148048010BD0000000002602DE9F841ED
:103890001D46079C1646884607460B460094FFF7D0
:1038A0009BFF3A462B46414610460094FFF794FF93
:1038B0002B463246194638460094FFF78DFF3246B4
:1038C0002B46414610460094FFF786FFBDE8F8817D
:1038D00010B5CF2002F01CFF002002F00DFFC12028
:1038E00002F00AFF302002F007FFED2002F010FF87
:1038F000642002F001FF032002F0FEFE122002F01D
:10390000FBFE812002F0F8FEE82002F001FF852096
:1039100002F0F2FE102002F0EFFE7A2002F0ECFE40
:10392000CB2002F0F5FE392002F0E6FE2C2002F05A
:10393000E3FE002002F0E0FE342002F0DDFE022073
:1039400002F0DAFEF72002F0E3FE202002F0D4FEBF
:10395000EA2002F0DDFE002002F0CEFE002002F0A0
:10396000CBFEC02002F0D4FE1B2002F0C5FEC12019
:1039700002F0CEFE012002F0BFFEC52002F0C8FE1C
:10398000302002F0B9FE302002F0B6FEC72002F06F
:10399000BFFEB72002F0B0FE362002F0B9FE48208C
:1039A00002F0AAFE3A2002F0B3FE552002F0A4FE77
:1039B000B12002F0ADFE002002F09EFE1A2002F0BF
:1039C0009BFEB62002F0A4FE0A2002F095FEA22083
:1039D00002F092FEF22002F09BFE002002F08CFE2C
:1039E000262002F095FE012002F086FEE02002F083
:1039F0008FFE0F2002F080FE2A2002F07DFE28209C
:103A000002F07AFE082002F077FE0E2002F074FE2B
:103A1000082002F071FE542002F06EFEA92002F090
:103A20006BFE432002F068FE0A2002F065FE0F20C4
:103A300002F062FE002002F05FFE002002F05CFE59
:103A4000002002F059FE002002F056FEE12002F0B4
:103A50005FFE002002F050FE152002F04DFE172000
:103A600002F04AFE072002F047FE112002F044FE59
:103A7000062002F041FE2B2002F03EFE562002F00E
:103A80003BFE3C2002F038FE052002F035FE1020FF
:103A900002F032FE0F2002F02FFE3F2002F02CFE3B
:103AA0003F2002F029FE0F2002F026FE2B2002F01C
:103AB0002FFE002002F020FE002002F01DFE01205B
:103AC00002F01AFE3F2002F017FE2A2002F020FE2C
:103AD000002002F011FE002002F00EFE002002F095
:103AE0000BFEEF2002F008FE112002F011FE7820FC
:103AF000FDF794FDBDE81040292002F009BE10B585
:103B0000E02002F005FE002002F0F6FD132002F096
:103B1000F3FD182002F0F0FD042002F0EDFD0F206F
:103B200002F0EAFD062002F0E7FD3A2002F0E4FD93
:103B3000562002F0E1FD4D2002F0DEFD032002F0F0
:103B4000DBFD0A2002F0D8FD062002F0D5FD302072
:103B500002F0D2FD3E2002F0CFFD0F2002F0CCFD9E
:103B6000E12002F0D5FD002002F0C6FD132002F096
:103B7000C3FD182002F0C0FD012002F0BDFD1120A0
:103B800002F0BAFD062002F0B7FD382002F0B4FDC5
:103B9000342002F0B1FD4D2002F0AEFD062002F00F
:103BA000ABFD0D2002F0A8FD0B2002F0A5FD312099
:103BB00002F0A2FD372002F09FFD0F2002F09CFDD5
:103BC000C02002F0A5FD172002F096FD152002F09E
:103BD00093FDC12002F09CFD412002F08DFDC52027
:103BE00002F096FD002002F087FD1A2002F084FD0D
:103BF000802002F081FD362002F08AFD482002F08C
:103C00007BFD3A2002F084FD552002F075FDB020C6
:103C100002F07EFD002002F06FFDB12002F078FD81
:103C2000A02002F069FDB42002F072FD022002F033
:103C300063FDB62002F06CFD022002F05DFD022063
:103C400002F05AFDE92002F063FD002002F054FD6D
:103C5000F72002F05DFDA92002F04EFD512002F098
:103C60004BFD2C2002F048FD822002F045FD212072
:103C700002F04EFD112002F04BFD7820FDF7CEFC46
:103C8000BDE81040292002F043BD10B5ED2002F040
:103C90003FFD012002F030FDFE2002F02DFDEE2060
:103CA00002F036FDDE2002F027FD212002F024FD87
:103CB000F12002F02DFD012002F01EFDDF2002F0B8
:103CC00027FD102002F018FDC42002F021FD8F20F6
:103CD00002F012FDC62002F01BFD002002F00CFDD8
:103CE000E22002F009FDE22002F006FDE22002F0EF
:103CF00003FDBF2002F00CFDAA2002F0FDFCB02065
:103D000002F006FD0D2002F0F7FC002002F0F4FCAA
:103D10000D2002F0F1FC002002F0EEFC112002F078
:103D2000EBFC002002F0E8FC192002F0E5FC00208A
:103D300002F0E2FC212002F0DFFC002002F0DCFCBB
:103D40002D2002F0D9FC002002F0D6FC3D2002F02C
:103D5000D3FC002002F0D0FC5D2002F0CDFC00205E
:103D600002F0CAFC5D2002F0C7FC002002F0C4FC97
:103D7000B12002F0CDFC802002F0BEFC002002F059
:103D8000BBFC8B2002F0B8FC002002F0B5FC9620B2
:103D900002F0B2FC002002F0AFFCB22002F0B8FC4E
:103DA000002002F0A9FC002002F0A6FC022002F094
:103DB000A3FC002002F0A0FC032002F09DFC0020E8
:103DC00002F09AFCB32002F0A3FC002002F094FC65
:103DD000002002F091FC002002F08EFC002002F096
:103DE0008BFC002002F088FC002002F085FC002003
:103DF00002F082FC002002F07FFC002002F07CFC3C
:103E0000002002F079FC002002F076FC002002F095
:103E100073FC002002F070FC002002F06DFC00201A
:103E200002F06AFC002002F067FC002002F064FC53
:103E3000002002F061FC002002F05EFC002002F095
:103E40005BFC002002F058FC002002F055FC002032
:103E500002F052FC002002F04FFCB42002F058FCAB
:103E60008B2002F049FC002002F046FC962002F074
:103E700043FC002002F040FCA12002F03DFC0020A9
:103E800002F03AFCB52002F043FC022002F034FCC0
:103E9000002002F031FC032002F02EFC002002F092
:103EA0002BFC042002F028FC002002F025FCB620A8
:103EB00002F02EFC002002F01FFC002002F01CFC8F
:103EC000B72002F025FC002002F016FC002002F0D2
:103ED00013FC3F2002F010FC002002F00DFC5E20DD
:103EE00002F00AFC002002F007FC642002F004FC4F
:103EF000002002F001FC8C2002F0FEFB002002F00A
:103F0000FBFBAC2002F0F8FB002002F0F5FBDC200C
:103F100002F0F2FB002002F0EFFB702002F0ECFB5D
:103F2000002002F0E9FB902002F0E6FB002002F006
:103F3000E3FBEB2002F0E0FB002002F0DDFBDC20E5
:103F400002F0DAFB002002F0D7FBB82002F0E0FB21
:103F5000002002F0D1FB002002F0CEFB002002F096
:103F6000CBFB002002F0C8FB002002F0C5FB0020C4
:103F700002F0C2FB002002F0BFFB002002F0BCFBFD
:103F8000BA2002F0C5FB242002F0B6FB002002F0AC
:103F9000B3FB002002F0B0FB002002F0ADFBC1201B
:103FA00002F0B6FB202002F0A7FB002002F0A4FBE9
:103FB000542002F0A1FB002002F09EFBFF2002F043
:103FC0009BFB002002F098FBC22002F0A1FB0A201C
:103FD00002F092FB002002F08FFB042002F08CFB29
:103FE000002002F089FBC32002F092FB3C2002F08B
:103FF00083FB002002F080FB3A2002F07DFB0020D2
:1040000002F07AFB392002F077FB002002F074FB0B
:10401000372002F071FB002002F06EFB3C2002F022
:104020006BFB002002F068FB362002F065FB0020ED
:1040300002F062FB322002F05FFB002002F05CFB2A
:104040002F2002F059FB002002F056FB2C2002F03A
:1040500053FB002002F050FB292002F04DFB002012
:1040600002F04AFB262002F047FB002002F044FB4E
:10407000242002F041FB002002F03EFB242002F04D
:104080003BFB002002F038FB232002F035FB002030
:1040900002F032FB3C2002F02FFB002002F02CFB50
:1040A000362002F029FB002002F026FB322002F02D
:1040B00023FB002002F020FB2F2002F01DFB00203C
:1040C00002F01AFB2C2002F017FB002002F014FB78
:1040D000292002F011FB002002F00EFB262002F046
:1040E0000BFB002002F008FB242002F005FB00205F
:1040F00002F002FB242002F0FFFA002002F0FCFA9A
:10410000232002F0F9FA002002F0F6FAC42002F0AF
:10411000FFFA622002F0F0FA002002F0EDFA05202A
:1041200002F0EAFA002002F0E7FA842002F0E4FA52
:10413000002002F0E1FAF02002F0DEFA002002F0A6
:10414000DBFA182002F0D8FA002002F0D5FAA420F9
:1041500002F0D2FA002002F0CFFA182002F0CCFAD6
:10416000002002F0C9FA502002F0C6FA002002F046
:10417000C3FA0C2002F0C0FA002002F0BDFA1720AA
:1041800002F0BAFA002002F0B7FA952002F0B4FA71
:10419000002002F0B1FAF32002F0AEFA002002F0A3
:1041A000ABFAE62002F0A8FA002002F0A5FAC5203A
:1041B00002F0AEFA322002F09FFA002002F09CFAE0
:1041C000442002F099FA002002F096FA652002F0ED
:1041D00093FA002002F090FA762002F08DFA002087
:1041E00002F08AFA882002F087FA002002F084FAAE
:1041F000C62002F08DFA202002F07EFA002002F0A4
:104200007BFA172002F078FA002002F075FA0120FC
:1042100002F072FA002002F06FFAC72002F078FA7A
:10422000002002F069FA002002F066FA002002F095
:1042300063FA002002F060FAC82002F069FA002058
:1042400002F05AFA002002F057FA002002F054FA65
:10425000002002F051FAC92002F05AFA002002F0C0
:104260004BFA002002F048FA002002F045FA002044
:1042700002F042FA002002F03FFA002002F03CFA7D
:10428000002002F039FA002002F036FA002002F095
:1042900033FA002002F030FA002002F02DFA00205C
:1042A00002F02AFA002002F027FA002002F024FA95
:1042B000002002F021FA002002F01EFAE02002F0B5
:1042C00027FA162002F018FA002002F015FA1C2036
:1042D00002F012FA002002F00FFA212002F00CFA8C
:1042E000002002F009FA362002F006FA002002F05F
:1042F00003FA462002F000FA002002F0FDF95220F5
:1043000002F0FAF9002002F0F7F9642002F0F4F963
:10431000002002F0F1F97A2002F0EEF9002002F01C
:10432000EBF98B2002F0E8F9002002F0E5F9992082
:1043300002F0E2F9002002F0DFF9A82002F0DCF937
:10434000002002F0D9F9B92002F0D6F9002002F0DD
:10435000D3F9C42002F0D0F9002002F0CDF9CA2030
:1043600002F0CAF9002002F0C7F9D22002F0C4F925
:10437000002002F0C1F9D92002F0BEF9002002F0BD
:10438000BBF9E02002F0B8F9002002F0B5F9F32003
:1043900002F0B2F9002002F0AFF9E12002F0B8F922
:1043A000162002F0A9F9002002F0A6F91C2002F064
:1043B000A3F9002002F0A0F9222002F09DF90020CC
:1043C00002F09AF9362002F097F9002002F094F9F1
:1043D000452002F091F9002002F08EF9522002F0FF
:1043E0008BF9002002F088F9642002F085F90020A2
:1043F00002F082F97A2002F07FF9002002F07CF9C5
:104400008B2002F079F9002002F076F9992002F071
:1044100073F9002002F070F9A82002F06DF9002075
:1044200002F06AF9B92002F067F9002002F064F99D
:10443000C42002F061F9002002F05EF9CA2002F007
:104440005BF9002002F058F9D22002F055F9002063
:1044500002F052F9D82002F04FF9002002F04CF996
:10446000E02002F049F9002002F046F9F32002F0C2
:1044700043F9002002F040F9E22002F049F905205A
:1044800002F03AF9002002F037F90B2002F034F97B
:10449000002002F031F91B2002F02EF9002002F07A
:1044A0002BF9342002F028F9002002F025F94420ED
:1044B00002F022F9002002F01FF94F2002F01CF94F
:1044C000002002F019F9612002F016F9002002F034
:1044D00013F9792002F010F9002002F00DF988207C
:1044E00002F00AF9002002F007F9972002F004F91F
:1044F000002002F001F9A62002F0FEF8002002F0F0
:10450000FBF8B72002F0F8F8002002F0F5F8C2201E
:1045100002F0F2F8002002F0EFF8C72002F0ECF809
:10452000002002F0E9F8D12002F0E6F8002002F0C5
:10453000E3F8D62002F0E0F8002002F0DDF8DD20FC
:1045400002F0DAF8002002F0D7F8F32002F0D4F8F5
:10455000002002F0D1F8E32002F0DAF8052002F0A2
:10456000CBF8002002F0C8F80A2002F0C5F80020BD
:1045700002F0C2F81C2002F0BFF8002002F0BCF8E4
:10458000332002F0B9F8002002F0B6F8442002F01F
:10459000B3F8002002F0B0F8502002F0ADF800208F
:1045A00002F0AAF8622002F0A7F8002002F0A4F8B6
:1045B000782002F0A1F8002002F09EF8882002F096
:1045C0009BF8002002F098F8972002F095F8002060
:1045D00002F092F8A62002F08FF8002002F08CF88A
:1045E000B72002F089F8002002F086F8C22002F01D
:1045F00083F8002002F080F8C72002F07DF8002048
:1046000002F07AF8D12002F077F8002002F074F876
:10461000D52002F071F8002002F06EF8DD2002F0E3
:104620006BF8002002F068F8F32002F065F8002033
:1046300002F062F8E42002F06BF8012002F05CF86E
:10464000002002F059F8012002F056F8002002F094
:1046500053F8022002F050F8002002F04DF82A2012
:1046600002F04AF8002002F047F83C2002F044F83B
:10467000002002F041F84B2002F03EF8002002F04A
:104680003BF85D2002F038F8002002F035F8742085
:1046900002F032F8002002F02FF8842002F02CF80B
:1046A000002002F029F8932002F026F8002002F002
:1046B00023F8A22002F020F8002002F01DF8B32019
:1046C00002F01AF8002002F017F8BE2002F014F8E9
:1046D000002002F011F8C42002F00EF8002002F0D1
:1046E0000BF8CD2002F008F8002002F005F8D320E6
:1046F00002F002F8002001F0FFFFDD2001F0FCFFD6
:10470000002001F0F9FFF32001F0F6FF002001F096
:10471000F3FFE52001F0FCFF002001F0EDFF002099
:1047200001F0EAFF002001F0E7FF002001F0E4FFC4
:10473000022001F0E1FF002001F0DEFF292001F05E
:10474000DBFF002001F0D8FF3C2001F0D5FF002066
:1047500001F0D2FF4B2001F0CFFF002001F0CCFF91
:104760005D2001F0C9FF002001F0C6FF742001F0B8
:10477000C3FF002001F0C0FF842001F0BDFF002036
:1047800001F0BAFF932001F0B7FF002001F0B4FF61
:10479000A22001F0B1FF002001F0AEFFB32001F034
:1047A000ABFF002001F0A8FFBE2001F0A5FF002014
:1047B00001F0A2FFC42001F09FFF002001F09CFF48
:1047C000CD2001F099FF002001F096FFD32001F0E9
:1047D00093FF002001F090FFDC2001F08DFF00200E
:1047E00001F08AFFF32001F087FF002001F084FF31
:1047F000E62001F08DFF112001F07EFF002001F086
:104800007BFF342001F078FF002001F075FF562077
:1048100001F072FF002001F06FFF762001F06CFFC5
:10482000002001F069FF772001F066FF002001F011
:1048300063FF662001F060FF002001F05DFF88202B
:1048400001F05AFF002001F057FF992001F054FFBA
:10485000002001F051FFBB2001F04EFF002001F0CD
:104860004BFF992001F048FF002001F045FF662032
:1048700001F042FF002001F03FFF552001F03CFF16
:10488000002001F039FF552001F036FF002001F033
:1048900033FF452001F030FF002001F02DFF4320C1
:1048A00001F02AFF002001F027FF442001F024FF3F
:1048B000002001F021FFE72001F02AFF322001F063
:1048C0001BFF002001F018FF552001F015FF00200C
:1048D00001F012FF762001F00FFF002001F00CFF25
:1048E000662001F009FF002001F006FF672001F0BB
:1048F00003FF002001F000FF672001F0FDFE002013
:1049000001F0FAFE872001F0F7FE002001F0F4FE2E
:10491000992001F0F1FE002001F0EEFEBB2001F035
:10492000EBFE002001F0E8FE992001F0E5FE0020FA
:1049300001F0E2FE772001F0DFFE002001F0DCFE56
:10494000442001F0D9FE002001F0D6FE562001F0EF
:10495000D3FE002001F0D0FE232001F0CDFE002088
:1049600001F0CAFE332001F0C7FE002001F0C4FEB2
:10497000452001F0C1FE002001F0BEFEE82001F05C
:10498000C7FE002001F0B8FE002001F0B5FE99201E
:1049900001F0B2FE002001F0AFFE872001F0ACFE76
:1049A000002001F0A9FE882001F0A6FE002001F001
:1049B000A3FE772001F0A0FE002001F09DFE6620FE
:1049C00001F09AFE002001F097FE882001F094FE8D
:1049D000002001F091FEAA2001F08EFE002001F0DF
:1049E0008BFEBB2001F088FE002001F085FE99209F
:1049F00001F082FE002001F07FFE662001F07CFEC7
:104A0000002001F079FE552001F076FE002001F033
:104A100073FE552001F070FE002001F06DFE442071
:104A200001F06AFE002001F067FE442001F064FE00
:104A3000002001F061FE552001F05EFE002001F033
:104A40005BFEE92001F064FEAA2001F055FE002083
:104A500001F052FE002001F04FFE002001F04CFE5C
:104A6000002001F055FEAA2001F046FECF2001F003
:104A70004FFE002001F040FE002001F03DFE00202E
:104A800001F03AFE002001F037FE002001F034FE74
:104A9000002001F031FE002001F02EFE002001F088
:104AA0002BFE002001F028FE002001F025FE002052
:104AB00001F022FE002001F01FFE002001F01CFE8C
:104AC000002001F019FE002001F016FE002001F088
:104AD00013FE002001F010FEF02001F019FE00206E
:104AE00001F00AFE502001F007FE002001F004FE54
:104AF000002001F001FE002001F0FEFDF32001F096
:104B000007FE002001F0F8FDF92001F001FE06206B
:104B100001F0F2FD102001F0EFFD292001F0ECFD85
:104B2000002001F0E9FD3A2001F0F2FD552001F0EE
:104B3000E3FD112001F0ECFD6420FCF76FFD29205E
:104B400001F0E6FD352001F0E3FD002001F0D4FD89
:104B5000512001F0DDFDFF2001F0CEFD532001F0DA
:104B6000D7FD2C2001F0C8FD552001F0D1FD822099
:104B700001F0C2FDBDE810402C2001F0C9BD2DE9B7
:104B8000F05F4FF470435521184601F0D7FD4FF206
:104B90000104AA21204601F0D1FD651C52212846BE
:104BA00001F0CCFDA61C0821304601F0C7FDE71C32
:104BB0000121384601F0C2FD0D214FF4304001F0D3
:104BC000BDFD0D214BF2010001F0B8FD0D214BF2AE
:104BD000020001F0B3FD4FF436483421404601F0A5
:104BE000ADFD34214BF2016001F0A8FD34214BF200
:104BF000026001F0A3FD4FF431490D21484601F058
:104C00009DFD4BF2011A0D21504601F097FD0D213B
:104C10004BF2021001F092FD4FF4374B342158460D
:104C200001F08CFD34214BF2017001F087FD34213D
:104C30004BF2027001F082FD00214FF4324001F08E
:104C40007DFD00214BF2012001F078FD00214BF2A7
:104C5000022001F073FD24214FF4384001F06EFD75
:104C600024214BF6010001F069FD24214BF60200DE
:104C700001F064FD01214FF43F4001F05FFD0F2181
:104C80004FF4334001F05AFD0F214BF2013001F097
:104C900055FD0F214BF2023001F050FD34214FF44D
:104CA000394001F04BFD34214BF6011001F046FD77
:104CB00034214BF6021001F041FD08214FF435403C
:104CC00001F03CFD08214BF2015001F037FD0821B5
:104CD0004BF2025001F032FD03214FF4424001F04B
:104CE0002DFD24214FF43A4001F028FD24214BF6FC
:104CF000012001F023FD24214BF6022001F01EFDCE
:104D000000214FF43C4001F019FD78214BF60140A1
:104D100001F014FD00214BF6024001F00FFD0021CF
:104D20004FF43D4001F00AFD78214BF6015001F0AF
:104D300005FD00214BF6025001F000FD00214FF46B
:104D40003E4001F0FBFC64214BF6016001F0F6FCF3
:104D500000214FF4514001F0F1FC33214DF20110DC
:104D600001F0ECFC00214DF2021001F0E7FC3421CF
:104D70004DF2031001F0E2FC00214DF2041001F0AD
:104D8000DDFC3A214DF2051001F0D8FC00214DF276
:104D9000061001F0D3FC4A214DF2071001F0CEFCC1
:104DA00000214DF2081001F0C9FC5C214DF2091000
:104DB00001F0C4FC00214DF20A1001F0BFFC81217A
:104DC0004DF20B1001F0BAFC00214DF20C1001F075
:104DD000B5FCA6214DF20D1001F0B0FC00214DF202
:104DE0000E1001F0ABFCE5214DF20F1001F0A6FC16
:104DF00001214DF2101001F0A1FC13214DF2111010
:104E000001F09CFC01214DF2121001F097FC54219D
:104E10004DF2131001F092FC01214DF2141001F03B
:104E20008DFC82214DF2151001F088FC01214DF21C
:104E3000161001F083FCCA214DF2171001F07EFC20
:104E400002214DF2181001F079FC00214DF21910E9
:104E500001F074FC02214DF21A1001F06FFC0121E7
:104E60004DF21B1001F06AFC02214DF21C1001F002
:104E700065FC34214DF21D1001F060FC02214DF261
:104E80001E1001F05BFC67214DF21F1001F056FC73
:104E900002214DF2201001F051FC84214DF221102D
:104EA00001F04CFC02214DF2221001F047FCA4213C
:104EB0004DF2231001F042FC02214DF2241001F0CA
:104EC0003DFCB7214DF2251001F038FC02214DF2D6
:104ED000261001F033FCCF214DF2271001F02EFCFB
:104EE00002214DF2281001F029FCDE214DF229109B
:104EF00001F024FC02214DF22A1001F01FFCF221E6
:104F00004DF22B1001F01AFC02214DF22C1001F091
:104F100015FCFE214DF22D1001F010FC03214DF285
:104F20002E1001F00BFC10214DF22F1001F006FCA9
:104F300003214DF2301001F001FC33214DF231100C
:104F400001F0FCFB03214DF2321001F0F7FB6D2163
:104F50004DF2331001F0F2FB00214FF4524001F00A
:104F6000EDFB33214DF2012001F0E8FB00214DF271
:104F7000022001F0E3FB34214DF2032001F0DEFBBF
:104F800000214DF2042001F0D9FB3A214DF2052019
:104F900001F0D4FB00214DF2062001F0CFFB4A21A5
:104FA0004DF2072001F0CAFB00214DF2082001F06C
:104FB000C5FB5C214DF2092001F0C0FB00214DF240
:104FC0000A2001F0BBFB81214DF20B2001F0B6FB62
:104FD00000214DF20C2001F0B1FBA6214DF20D2075
:104FE00001F0ACFB00214DF20E2001F0A7FBE52102
:104FF0004DF20F2001F0A2FB01214DF2102001F033
:105000009DFB13214DF2112001F098FB01214DF27F
:10501000122001F093FB54214DF2132001F08EFB7E
:1050200001214DF2142001F089FB82214DF215205F
:1050300001F084FB01214DF2162001F07FFBCA2113
:105040004DF2172001F07AFB02214DF2182001F0F9
:1050500075FB00214DF2192001F070FB02214DF289
:105060001A2001F06BFB01214DF21B2001F066FBC1
:1050700002214DF21C2001F061FB34214DF21D2074
:1050800001F05CFB02214DF21E2001F057FB67216D
:105090004DF21F2001F052FB02214DF2202001F0C1
:1050A0004DFB84214DF2212001F048FB02214DF2FD
:1050B000222001F043FBA4214DF2232001F03EFB0E
:1050C00002214DF2242001F039FBB7214DF22520B9
:1050D00001F034FB02214DF2262001F02FFBCF21FD
:1050E0004DF2272001F02AFB02214DF2282001F089
:1050F00025FBDE214DF2292001F020FB02214DF29B
:105100002A2001F01BFBF2214DF22B2001F016FBAF
:1051100002214DF22C2001F011FBFE214DF22D2039
:1051200001F00CFB03214DF22E2001F007FB1021B2
:105130004DF22F2001F002FB03214DF2302001F04F
:10514000FDFA33214DF2312001F0F8FA03214DF23E
:10515000322001F0F3FA6D214DF2332001F0EEFA26
:1051600000214FF4534001F0E9FA33214DF20130B0
:1051700001F0E4FA00214DF2023001F0DFFA3421AF
:105180004DF2033001F0DAFA00214DF2043001F063
:10519000D5FA3A214DF2053001F0D0FA00214DF256
:1051A000063001F0CBFA4A214DF2073001F0C6FA81
:1051B00000214DF2083001F0C1FA5C214DF20930B6
:1051C00001F0BCFA00214DF20A3001F0B7FA81215A
:1051D0004DF20B3001F0B2FA00214DF20C3001F02B
:1051E000ADFAA6214DF20D3001F0A8FA00214DF2E2
:1051F0000E3001F0A3FAE5214DF20F3001F09EFAD6
:1052000001214DF2103001F099FA13214DF21130C5
:1052100001F094FA01214DF2123001F08FFA54217D
:105220004DF2133001F08AFA01214DF2143001F0F1
:1052300085FA82214DF2153001F080FA01214DF2FC
:10524000163001F07BFACA214DF2173001F076FAE0
:1052500002214DF2183001F071FA00214DF219309F
:1052600001F06CFA02214DF21A3001F067FA0121C7
:105270004DF21B3001F062FA02214DF21C3001F0B8
:105280005DFA34214DF21D3001F058FA02214DF241
:105290001E3001F053FA67214DF21F3001F04EFA33
:1052A00002214DF2203001F049FA84214DF22130E3
:1052B00001F044FA02214DF2223001F03FFAA4211C
:1052C0004DF2233001F03AFA02214DF2243001F080
:1052D00035FAB7214DF2253001F030FA02214DF2B6
:1052E000263001F02BFACF214DF2273001F026FABB
:1052F00002214DF2283001F021FADE214DF2293051
:1053000001F01CFA02214DF22A3001F017FAF221C5
:105310004DF22B3001F012FA02214DF22C3001F047
:105320000DFAFE214DF22D3001F008FA03214DF265
:105330002E3001F003FA10214DF22F3001F0FEF96A
:1053400003214DF2303001F0F9F933214DF23130C3
:1053500001F0F4F903214DF2323001F0EFF96D2143
:105360004DF2333001F0EAF900214FF4544001F0DE
:10537000E5F933214DF2014001F0E0F900214DF251
:10538000024001F0DBF934214DF2034001F0D6F97F
:1053900000214DF2044001F0D1F93A214DF20540CF
:1053A00001F0CCF900214DF2064001F0C7F94A2185
:1053B0004DF2074001F0C2F900214DF2084001F022
:1053C000BDF95C214DF2094001F0B8F900214DF220
:1053D0000A4001F0B3F981214DF20B4001F0AEF922
:1053E00000214DF20C4001F0A9F9A6214DF20D402B
:1053F00001F0A4F900214DF20E4001F09FF9E521E2
:105400004DF20F4001F09AF901214DF2104001F0E8
:1054100095F913214DF2114001F090F901214DF25F
:10542000124001F08BF954214DF2134001F086F93E
:1054300001214DF2144001F081F982214DF2154015
:1054400001F07CF901214DF2164001F077F9CA21F3
:105450004DF2174001F072F902214DF2184001F0AF
:105460006DF900214DF2194001F068F902214DF269
:105470001A4001F063F901214DF21B4001F05EF981
:1054800002214DF21C4001F059F934214DF21D402A
:1054900001F054F902214DF21E4001F04FF967214D
:1054A0004DF21F4001F04AF902214DF2204001F077
:1054B00045F984214DF2214001F040F902214DF2DD
:1054C000224001F03BF9A4214DF2234001F036F9CE
:1054D00002214DF2244001F031F9B7214DF225406F
:1054E00001F02CF902214DF2264001F027F9CF21DD
:1054F0004DF2274001F022F902214DF2284001F03F
:105500001DF9DE214DF2294001F018F902214DF27A
:105510002A4001F013F9F2214DF22B4001F00EF96F
:1055200002214DF22C4001F009F9FE214DF22D40EF
:1055300001F004F903214DF22E4001F0FFF8102193
:105540004DF22F4001F0FAF803214DF2304001F006
:10555000F5F833214DF2314001F0F0F803214DF21E
:10556000324001F0EBF86D214DF2334001F0E6F8E6
:1055700000214FF4554001F0E1F833214DF2015084
:1055800001F0DCF800214DF2025001F0D7F834218F
:105590004DF2035001F0D2F800214DF2045001F019
:1055A000CDF83A214DF2055001F0C8F800214DF236
:1055B000065001F0C3F84A214DF2075001F0BEF841
:1055C00000214DF2085001F0B9F85C214DF209506C
:1055D00001F0B4F800214DF20A5001F0AFF881213A
:1055E0004DF20B5001F0AAF800214DF20C5001F0E1
:1055F000A5F8A6214DF20D5001F0A0F800214DF2C2
:105600000E5001F09BF8E5214DF20F5001F096F895
:1056100001214DF2105001F091F813214DF211507B
:1056200001F08CF801214DF2125001F087F854215D
:105630004DF2135001F082F801214DF2145001F0A7
:105640007DF882214DF2155001F078F801214DF2DC
:10565000165001F073F8CA214DF2175001F06EF8A0
:1056600002214DF2185001F069F800214DF2195055
:1056700001F064F802214DF21A5001F05FF80121A7
:105680004DF21B5001F05AF802214DF21C5001F06E
:1056900055F834214DF21D5001F050F802214DF221
:1056A0001E5001F04BF867214DF21F5001F046F8F3
:1056B00002214DF2205001F041F884214DF2215099
:1056C00001F03CF802214DF2225001F037F8A421FC
:1056D0004DF2235001F032F802214DF2245001F036
:1056E0002DF8B7214DF2255001F028F802214DF296
:1056F000265001F023F8CF214DF2275001F01EF87B
:1057000002214DF2285001F019F8DE214DF2295006
:1057100001F014F802214DF22A5001F00FF8F221A5
:105720004DF22B5001F00AF802214DF22C5001F0FD
:1057300005F8FE214DF22D5001F000F803214DF245
:105740002E5000F0FBFF10214DF22F5000F0F6FF1D
:1057500003214DF2305000F0F1FF33214DF2315072
:1057600000F0ECFF03214DF2325000F0E7FF6D2115
:105770004DF2335000F0E2FF00214FF4564000F0AC
:10578000DDFF33214DF2016000F0D8FF00214DF222
:10579000026000F0D3FF34214DF2036000F0CEFF31
:1057A00000214DF2046000F0C9FF3A214DF205607E
:1057B00000F0C4FF00214DF2066000F0BFFF4A2157
:1057C0004DF2076000F0BAFF00214DF2086000F0D2
:1057D000B5FF5C214DF2096000F0B0FF00214DF2F1
:1057E0000A6000F0ABFF81214DF20B6000F0A6FFD4
:1057F00000214DF20C6000F0A1FFA6214DF20D60DA
:1058000000F09CFF00214DF20E6000F097FFE521B3
:105810004DF20F6000F092FF01214DF2106000F098
:105820008DFF13214DF2116000F088FF01214DF230
:10583000126000F083FF54214DF2136000F07EFFF0
:1058400001214DF2146000F079FF82214DF21560C4
:1058500000F074FF01214DF2166000F06FFFCA21C5
:105860004DF2176000F06AFF02214DF2186000F05F
:1058700065FF00214DF2196000F060FF02214DF23A
:105880001A6000F05BFF01214DF21B6000F056FF33
:1058900002214DF21C6000F051FF34214DF21D60D9
:1058A00000F04CFF02214DF21E6000F047FF67211F
:1058B0004DF21F6000F042FF02214DF2206000F027
:1058C0003DFF84214DF2216000F038FF02214DF2AE
:1058D000226000F033FFA4214DF2236000F02EFF80
:1058E00002214DF2246000F029FFB7214DF225601E
:1058F00000F024FF02214DF2266000F01FFFCF21AF
:105900004DF2276000F01AFF02214DF2286000F0EE
:1059100015FFDE214DF2296000F010FF02214DF24B
:105920002A6000F00BFFF2214DF22B6000F006FF21
:1059300002214DF22C6000F001FFFE214DF22D609E
:1059400000F0FCFE03214DF22E6000F0F7FE102166
:105950004DF22F6000F0F2FE03214DF2306000F0B6
:10596000EDFE33214DF2316000F0E8FE03214DF2EF
:10597000326000F0E3FE6D214DF2336000F0DEFE98
:105980005521184600F0DAFEAA21204600F0D6FE86
:105990005221284600F0D2FE0821304600F0CEFE0B
:1059A0000021384600F0CAFECC21484600F0C6FE71
:1059B0000021504600F0C2FE0521404600F0BEFE28
:1059C0007021584600F0BAFE70214BF2017000F0D1
:1059D000B5FE01214FF4384000F0B0FE03214BF634
:1059E000010000F0ABFE03214BF6020000F0A6FE22
:1059F00003214BF6030000F0A1FE02214FF43C40CE
:105A000000F09CFE00214BF6014000F097FE0021C3
:105A10004BF6024000F092FED0214FF4494000F0D6
:105A20008DFE02214CF6011000F088FE50214CF64C
:105A3000021000F083FE50214CF6031000F07EFEB1
:105A400050214CF6041000F079FE00214FF4545020
:105A500000F074FE55214FF4685000F06FFE4FF4D3
:105A6000885000F055FE0120FBF7D8FDBDE8F05F3F
:105A70004FF4245000F04CBE10B5E22000F048FE78
:105A80001D2000F039FE022000F036FE042000F058
:105A900033FE0120FBF7C2FDE02000F039FE0120BB
:105AA00000F02AFE0A20FBF7B9FDE02000F030FEEE
:105AB000032000F021FE0C20FBF7B0FD012000F0D8
:105AC00027FE0A20FBF7AAFDE62000F021FE2F208A
:105AD00000F012FEFF2000F00FFEFF2000F00CFE91
